{"abi":[{"type":"constructor","inputs":[{"name":"_controller","type":"address","internalType":"contract IController"},{"name":"_weth","type":"address","internalType":"contract IWETH"}],"stateMutability":"nonpayable"},{"type":"function","name":"controller","inputs":[],"outputs":[{"name":"","type":"address","internalType":"contract IController"}],"stateMutability":"view"},{"type":"function","name":"exchangeInfo","inputs":[{"name":"","type":"address","internalType":"contract IERC20"}],"outputs":[{"name":"","type":"string","internalType":"string"}],"stateMutability":"view"},{"type":"function","name":"getAndValidateAdapter","inputs":[{"name":"_integrationName","type":"string","internalType":"string"}],"outputs":[{"name":"","type":"address","internalType":"address"}],"stateMutability":"view"},{"type":"function","name":"getRequiredComponentIssuanceUnits","inputs":[{"name":"_JPToken","type":"address","internalType":"contract IJPToken"},{"name":"_quantity","type":"uint256","internalType":"uint256"},{"name":"_isIssue","type":"bool","internalType":"bool"}],"outputs":[{"name":"","type":"address[]","internalType":"address[]"},{"name":"","type":"uint256[]","internalType":"uint256[]"}],"stateMutability":"view"},{"type":"function","name":"initialize","inputs":[{"name":"_JPToken","type":"address","internalType":"contract IJPToken"},{"name":"_preIssueHook","type":"address","internalType":"contract IManagerIssuanceHook"}],"outputs":[],"stateMutability":"nonpayable"},{"type":"function","name":"issueWithEther","inputs":[{"name":"_JPToken","type":"address","internalType":"contract IJPToken"},{"name":"_slippage","type":"uint256","internalType":"uint256"},{"name":"_to","type":"address","internalType":"address"},{"name":"_returnDust","type":"bool","internalType":"bool"}],"outputs":[],"stateMutability":"payable"},{"type":"function","name":"issueWithEther2","inputs":[{"name":"_JPToken","type":"address","internalType":"contract IJPToken"},{"name":"_minJPTokenRec","type":"uint256","internalType":"uint256"},{"name":"_weightings","type":"uint256[]","internalType":"uint256[]"},{"name":"_to","type":"address","internalType":"address"},{"name":"_returnDust","type":"bool","internalType":"bool"}],"outputs":[],"stateMutability":"payable"},{"type":"function","name":"issueWithSingleToken","inputs":[{"name":"_JPToken","type":"address","internalType":"contract IJPToken"},{"name":"_issueToken","type":"address","internalType":"address"},{"name":"_issueTokenQuantity","type":"uint256","internalType":"uint256"},{"name":"_slippage","type":"uint256","internalType":"uint256"},{"name":"_to","type":"address","internalType":"address"},{"name":"_returnDust","type":"bool","internalType":"bool"}],"outputs":[],"stateMutability":"nonpayable"},{"type":"function","name":"issueWithSingleToken2","inputs":[{"name":"_JPToken","type":"address","internalType":"contract IJPToken"},{"name":"_issueToken","type":"address","internalType":"address"},{"name":"_issueTokenQuantity","type":"uint256","internalType":"uint256"},{"name":"_minJPTokenRec","type":"uint256","internalType":"uint256"},{"name":"_weightings","type":"uint256[]","internalType":"uint256[]"},{"name":"_to","type":"address","internalType":"address"},{"name":"_returnDust","type":"bool","internalType":"bool"}],"outputs":[],"stateMutability":"nonpayable"},{"type":"function","name":"managerIssuanceHook","inputs":[{"name":"","type":"address","internalType":"contract IJPToken"}],"outputs":[{"name":"","type":"address","internalType":"contract IManagerIssuanceHook"}],"stateMutability":"view"},{"type":"function","name":"owner","inputs":[],"outputs":[{"name":"","type":"address","internalType":"address"}],"stateMutability":"view"},{"type":"function","name":"redeemToSingleToken","inputs":[{"name":"_JPToken","type":"address","internalType":"contract IJPToken"},{"name":"_JPTokenQuantity","type":"uint256","internalType":"uint256"},{"name":"_redeemToken","type":"address","internalType":"address"},{"name":"_to","type":"address","internalType":"address"},{"name":"_minRedeemTokenToRec","type":"uint256","internalType":"uint256"}],"outputs":[],"stateMutability":"nonpayable"},{"type":"function","name":"removeModule","inputs":[],"outputs":[],"stateMutability":"nonpayable"},{"type":"function","name":"renounceOwnership","inputs":[],"outputs":[],"stateMutability":"nonpayable"},{"type":"function","name":"setExchanges","inputs":[{"name":"_components","type":"address[]","internalType":"address[]"},{"name":"_exchangeNames","type":"string[]","internalType":"string[]"}],"outputs":[],"stateMutability":"nonpayable"},{"type":"function","name":"setWrapAdapters","inputs":[{"name":"_components","type":"address[]","internalType":"address[]"},{"name":"_wrapAdapterNames","type":"string[]","internalType":"string[]"},{"name":"_underlyingTokens","type":"address[]","internalType":"address[]"}],"outputs":[],"stateMutability":"nonpayable"},{"type":"function","name":"transferOwnership","inputs":[{"name":"newOwner","type":"address","internalType":"address"}],"outputs":[],"stateMutability":"nonpayable"},{"type":"function","name":"weth","inputs":[],"outputs":[{"name":"","type":"address","internalType":"contract IWETH"}],"stateMutability":"view"},{"type":"function","name":"wrapInfo","inputs":[{"name":"","type":"address","internalType":"contract IERC20"}],"outputs":[{"name":"wrapAdapterName","type":"string","internalType":"string"},{"name":"underlyingToken","type":"address","internalType":"address"}],"stateMutability":"view"},{"type":"event","name":"AssetExchangeExecutionParamUpdated","inputs":[{"name":"_component","type":"address","indexed":true,"internalType":"address"},{"name":"_newExchangeName","type":"string","indexed":false,"internalType":"string"}],"anonymous":false},{"type":"event","name":"AssetWrapExecutionParamUpdated","inputs":[{"name":"_component","type":"address","indexed":true,"internalType":"address"},{"name":"_newWrapAdapterName","type":"string","indexed":false,"internalType":"string"},{"name":"_newUnderlyingToken","type":"address","indexed":false,"internalType":"address"}],"anonymous":false},{"type":"event","name":"ComponentExchanged","inputs":[{"name":"_JPToken","type":"address","indexed":true,"internalType":"contract IJPToken"},{"name":"_sendToken","type":"address","indexed":true,"internalType":"address"},{"name":"_receiveToken","type":"address","indexed":true,"internalType":"address"},{"name":"_exchangeAdapter","type":"address","indexed":false,"internalType":"contract IExchangeAdapter"},{"name":"_totalSendAmount","type":"uint256","indexed":false,"internalType":"uint256"},{"name":"_totalReceiveAmount","type":"uint256","indexed":false,"internalType":"uint256"}],"anonymous":false},{"type":"event","name":"ComponentUnwrapped","inputs":[{"name":"_JPToken","type":"address","indexed":true,"internalType":"contract IJPToken"},{"name":"_underlyingToken","type":"address","indexed":true,"internalType":"address"},{"name":"_wrappedToken","type":"address","indexed":true,"internalType":"address"},{"name":"_underlyingQuantity","type":"uint256","indexed":false,"internalType":"uint256"},{"name":"_wrappedQuantity","type":"uint256","indexed":false,"internalType":"uint256"},{"name":"_integrationName","type":"string","indexed":false,"internalType":"string"}],"anonymous":false},{"type":"event","name":"ComponentWrapped","inputs":[{"name":"_JPToken","type":"address","indexed":true,"internalType":"contract IJPToken"},{"name":"_underlyingToken","type":"address","indexed":true,"internalType":"address"},{"name":"_wrappedToken","type":"address","indexed":true,"internalType":"address"},{"name":"_underlyingQuantity","type":"uint256","indexed":false,"internalType":"uint256"},{"name":"_wrappedQuantity","type":"uint256","indexed":false,"internalType":"uint256"},{"name":"_integrationName","type":"string","indexed":false,"internalType":"string"}],"anonymous":false},{"type":"event","name":"JPTokenIssued","inputs":[{"name":"_JPToken","type":"address","indexed":true,"internalType":"address"},{"name":"_issuer","type":"address","indexed":false,"internalType":"address"},{"name":"_to","type":"address","indexed":false,"internalType":"address"},{"name":"_hookContract","type":"address","indexed":false,"internalType":"address"},{"name":"_JPMintQuantity","type":"uint256","indexed":false,"internalType":"uint256"},{"name":"_issuedTokenReturned","type":"uint256","indexed":false,"internalType":"uint256"}],"anonymous":false},{"type":"event","name":"JPTokenRedeemed","inputs":[{"name":"_JPToken","type":"address","indexed":true,"internalType":"address"},{"name":"_redeemer","type":"address","indexed":false,"internalType":"address"},{"name":"_to","type":"address","indexed":false,"internalType":"address"},{"name":"_quantity","type":"uint256","indexed":false,"internalType":"uint256"}],"anonymous":false},{"type":"event","name":"OwnershipTransferred","inputs":[{"name":"previousOwner","type":"address","indexed":true,"internalType":"address"},{"name":"newOwner","type":"address","indexed":true,"internalType":"address"}],"anonymous":false}],"bytecode":{"object":"0x60a06040523480156200001157600080fd5b5060405162005d5138038062005d518339810160408190526200003491620000d2565b8160006200004a6001600160e01b03620000ce16565b600080546001600160a01b0319166001600160a01b0383169081178255604051929350917f8be0079c531659141344cd1fd0a4f28419497f9722a3daafe3b4186f6b6457e0908290a350600180546001600160a01b0319166001600160a01b039290921691909117815560025560601b6001600160601b0319166080525062000129565b3390565b60008060408385031215620000e5578182fd5b8251620000f28162000110565b6020840151909250620001058162000110565b809150509250929050565b6001600160a01b03811681146200012657600080fd5b50565b60805160601c615ba6620001ab6000398061054752806109ee5280610a655280610a945280610ace5280610b8a5280610c015280610c305280610c6952806116a35280612e315280612e6c5280612f77528061354352806136c85280613a415280613a7f5280613ec85280613f06528061439c52806143ea5250615ba66000f3fe6080604052600436106101145760003560e01c80638da5cb5b116100a0578063dfe7533511610064578063dfe75335146102c6578063eae4579b146102e6578063f1ca6a3f14610306578063f2fde38b14610334578063f77c47911461035457610114565b80638da5cb5b14610230578063aec0633814610245578063c1b1dd7e14610265578063c1bd162b14610278578063de4321381461029857610114565b80635b82eedd116100e75780635b82eedd146101a65780635f06cd2c146101c6578063715018a6146101f3578063847ef08d14610208578063851062971461021d57610114565b80631f0c46e8146101195780633fc8cef31461013b578063485cc955146101665780634ee05c4a14610186575b600080fd5b34801561012557600080fd5b50610139610134366004614dbf565b610369565b005b34801561014757600080fd5b50610150610545565b60405161015d9190615020565b60405180910390f35b34801561017257600080fd5b50610139610181366004614d87565b610569565b34801561019257600080fd5b506101396101a1366004614b57565b610600565b3480156101b257600080fd5b506101396101c1366004614ced565b6107e6565b3480156101d257600080fd5b506101e66101e1366004614a2d565b610880565b60405161015d9190615248565b3480156101ff57600080fd5b5061013961091b565b34801561021457600080fd5b5061013961099a565b61013961022b366004614e6b565b61099c565b34801561023c57600080fd5b50610150610b08565b34801561025157600080fd5b50610150610260366004614f42565b610b18565b610139610273366004614e19565b610b38565b34801561028457600080fd5b50610139610293366004614bb7565b610ca2565b3480156102a457600080fd5b506102b86102b3366004614a2d565b610f24565b60405161015d92919061525b565b3480156102d257600080fd5b506101506102e1366004614a2d565b610fd4565b3480156102f257600080fd5b50610139610301366004614c7e565b610fef565b34801561031257600080fd5b50610326610321366004614ee9565b611087565b60405161015d929190615158565b34801561034057600080fd5b5061013961034f366004614a2d565b6111a4565b34801561036057600080fd5b5061015061125a565b6002805414156103945760405162461bcd60e51b815260040161038b906159ac565b60405180910390fd5b60028055846103a281611269565b600085116103c25760405162461bcd60e51b815260040161038b906153bb565b604051632770a7eb60e21b81526001600160a01b03871690639dc29fac906103f0903390899060040161508c565b600060405180830381600087803b15801561040a57600080fd5b505af115801561041e573d6000803e3d6000fd5b5050505060608061043188886000611087565b90925090506000805b83518110156104b4576104638a8a86848151811061045457fe5b60200260200101516000611291565b60006104978b8a87858151811061047657fe5b602002602001015187868151811061048a57fe5b602002602001015161142e565b90506104a9838263ffffffff6116fa16565b92505060010161043a565b50848110156104d55760405162461bcd60e51b815260040161038b9061588a565b6104f06001600160a01b038a1688888463ffffffff61172816565b886001600160a01b03167fd6d0d7732aa8c60b86a6c4e0c96716d9692fed0f893a23e9d25c158ead9050a333888b60405161052d93929190615068565b60405180910390a25050600160025550505050505050565b7f000000000000000000000000000000000000000000000000000000000000000081565b8133610575828261186a565b8361057f81611894565b6001600160a01b0385811660008181526003602052604080822080546001600160a01b0319169489169490941790935582516307ff078f60e11b815292519192630ffe0f1e926004808301939282900301818387803b1580156105e157600080fd5b505af11580156105f5573d6000803e3d6000fd5b505050505050505050565b610608611955565b6000546001600160a01b039081169116146106355760405162461bcd60e51b815260040161038b90615737565b610645828263ffffffff61195916565b60005b82518110156107e157600154610666906001600160a01b0316611983565b6001600160a01b031663639a39783084848151811061068157fe5b60200260200101516040518363ffffffff1660e01b81526004016106a6929190615134565b60206040518083038186803b1580156106be57600080fd5b505afa1580156106d2573d6000803e3d6000fd5b505050506040513d601f19601f820116820180604052508101906106f69190614c30565b6107125760405162461bcd60e51b815260040161038b90615688565b81818151811061071e57fe5b60200260200101516004600085848151811061073657fe5b60200260200101516001600160a01b03166001600160a01b031681526020019081526020016000209080519060200190610771929190614749565b5082818151811061077e57fe5b60200260200101516001600160a01b03167fc58c5ebe64b61aa17ac9e8948fc0664b62dff77268a22b4f1142443b3a583aac8383815181106107bc57fe5b60200260200101516040516107d19190615248565b60405180910390a2600101610648565b505050565b6002805414156108085760405162461bcd60e51b815260040161038b906159ac565b600280558661081681611269565b600086116108365760405162461bcd60e51b815260040161038b9061592d565b61084287338a89611a02565b600061085389898989898989611a0e565b90506108706001600160a01b038a1689338463ffffffff61172816565b5050600160025550505050505050565b60046020908152600091825260409182902080548351601f6002600019610100600186161502019093169290920491820184900484028101840190945280845290918301828280156109135780601f106108e857610100808354040283529160200191610913565b820191906000526020600020905b8154815290600101906020018083116108f657829003601f168201915b505050505081565b610923611955565b6000546001600160a01b039081169116146109505760405162461bcd60e51b815260040161038b90615737565b600080546040516001600160a01b03909116907f8be0079c531659141344cd1fd0a4f28419497f9722a3daafe3b4186f6b6457e0908390a3600080546001600160a01b0319169055565b565b6002805414156109be5760405162461bcd60e51b815260040161038b906159ac565b60028055846109cc81611269565b600034116109ec5760405162461bcd60e51b815260040161038b906158f8565b7f00000000000000000000000000000000000000000000000000000000000000006001600160a01b031663d0e30db0346040518263ffffffff1660e01b81526004016000604051808303818588803b158015610a4757600080fd5b505af1158015610a5b573d6000803e3d6000fd5b5050505050610a8c7f0000000000000000000000000000000000000000000000000000000000000000308834611a02565b6000610abd877f00000000000000000000000000000000000000000000000000000000000000003489898989611a0e565b9050610afa6001600160a01b0388167f0000000000000000000000000000000000000000000000000000000000000000338463ffffffff61172816565b505060016002555050505050565b6000546001600160a01b03165b90565b600080610b2483611ba6565b9050610b2f81611bb1565b9150505b919050565b600280541415610b5a5760405162461bcd60e51b815260040161038b906159ac565b6002805583610b6881611269565b60003411610b885760405162461bcd60e51b815260040161038b906158f8565b7f00000000000000000000000000000000000000000000000000000000000000006001600160a01b031663d0e30db0346040518263ffffffff1660e01b81526004016000604051808303818588803b158015610be357600080fd5b505af1158015610bf7573d6000803e3d6000fd5b5050505050610c287f0000000000000000000000000000000000000000000000000000000000000000308734611a02565b6000610c58867f000000000000000000000000000000000000000000000000000000000000000034888888611c70565b9050610c956001600160a01b0387167f0000000000000000000000000000000000000000000000000000000000000000338463ffffffff61172816565b5050600160025550505050565b610caa611955565b6000546001600160a01b03908116911614610cd75760405162461bcd60e51b815260040161038b90615737565b610ce7838363ffffffff61195916565b610cf7838263ffffffff61195916565b60005b8351811015610f1e57600154610d18906001600160a01b0316611983565b6001600160a01b031663639a397830858481518110610d3357fe5b60200260200101516040518363ffffffff1660e01b8152600401610d58929190615134565b60206040518083038186803b158015610d7057600080fd5b505afa158015610d84573d6000803e3d6000fd5b505050506040513d601f19601f82011682018060405250810190610da89190614c30565b610dc45760405162461bcd60e51b815260040161038b906158c1565b828181518110610dd057fe5b602002602001015160056000868481518110610de857fe5b60200260200101516001600160a01b03166001600160a01b031681526020019081526020016000206000019080519060200190610e26929190614749565b50818181518110610e3357fe5b602002602001015160056000868481518110610e4b57fe5b60200260200101516001600160a01b03166001600160a01b0316815260200190815260200160002060010160006101000a8154816001600160a01b0302191690836001600160a01b03160217905550838181518110610ea657fe5b60200260200101516001600160a01b03167f9b6908663d418cb1b019425f179085f031896cd0545d64837c95ce3cfff91299848381518110610ee457fe5b6020026020010151848481518110610ef857fe5b6020026020010151604051610f0e92919061525b565b60405180910390a2600101610cfa565b50505050565b60056020908152600091825260409182902080548351601f60026000196101006001861615020190931692909204918201849004840281018401909452808452909291839190830182828015610fbb5780601f10610f9057610100808354040283529160200191610fbb565b820191906000526020600020905b815481529060010190602001808311610f9e57829003601f168201915b505050600190930154919250506001600160a01b031682565b6003602052600090815260409020546001600160a01b031681565b6002805414156110115760405162461bcd60e51b815260040161038b906159ac565b600280558561101f81611269565b6000851161103f5760405162461bcd60e51b815260040161038b9061592d565b61104b86338988611a02565b600061105b888888888888611c70565b90506110786001600160a01b03891688338463ffffffff61172816565b50506001600255505050505050565b60608060608061109687611e9f565b91509150606082516001600160401b03811180156110b357600080fd5b506040519080825280602002602001820160405280156110dd578160200160208202803683370190505b50905060005b8251811015611195578661111c576111178884838151811061110157fe5b60200260200101516121a590919063ffffffff16565b611142565b6111428884838151811061112c57fe5b60200260200101516121cf90919063ffffffff16565b82828151811061114e57fe5b602002602001018181525050600082828151811061116857fe5b60200260200101511161118d5760405162461bcd60e51b815260040161038b90615285565b6001016110e3565b50919791965090945050505050565b6111ac611955565b6000546001600160a01b039081169116146111d95760405162461bcd60e51b815260040161038b90615737565b6001600160a01b0381166111ff5760405162461bcd60e51b815260040161038b90615375565b600080546040516001600160a01b03808516939216917f8be0079c531659141344cd1fd0a4f28419497f9722a3daafe3b4186f6b6457e091a3600080546001600160a01b0319166001600160a01b0392909216919091179055565b6001546001600160a01b031681565b6112728161221a565b61128e5760405162461bcd60e51b815260040161038b90615511565b50565b60405163a7bdad0360e01b81526060906001600160a01b0386169063a7bdad03906112c0908690600401615020565b60006040518083038186803b1580156112d857600080fd5b505afa1580156112ec573d6000803e3d6000fd5b505050506040513d6000823e601f3d908101601f191682016040526113149190810190614abc565b905060005b81518110156114265782156113a55781818151811061133457fe5b60200260200101516001600160a01b0316630fb96b2187878760016040518563ffffffff1660e01b815260040161136e949392919061521e565b600060405180830381600087803b15801561138857600080fd5b505af115801561139c573d6000803e3d6000fd5b5050505061141e565b8181815181106113b157fe5b60200260200101516001600160a01b031663c137f4d787878760016040518563ffffffff1660e01b81526004016113eb949392919061521e565b600060405180830381600087803b15801561140557600080fd5b505af1158015611419573d6000803e3d6000fd5b505050505b600101611319565b505050505050565b600080836001600160a01b0316856001600160a01b031614156114525750816116ef565b6001600160a01b038481166000908152600560205260409020600101541661148b5761148286858786600161231e565b91506116ef9050565b6114936147c3565b6001600160a01b0385166000908152600560209081526040918290208251815460026001821615610100026000190190911604601f81018490049093028101606090810185529381018381529093919284928491908401828280156115395780601f1061150e57610100808354040283529160200191611539565b820191906000526020600020905b81548152906001019060200180831161151c57829003601f168201915b5050509183525050600191909101546001600160a01b0316602090910152805190915060009061156890610b18565b905060008061160b8a85602001518a8a8860000151886001600160a01b0316631878d1f16040518163ffffffff1660e01b815260040160206040518083038186803b1580156115b657600080fd5b505afa1580156115ca573d6000803e3d6000fd5b505050506040513d601f19601f820116820180604052508101906115ee9190614a49565b6001600160a01b03168a602001516001600160a01b0316146124ed565b91509150826001600160a01b0316631878d1f16040518163ffffffff1660e01b815260040160206040518083038186803b15801561164857600080fd5b505afa15801561165c573d6000803e3d6000fd5b505050506040513d601f19601f820116820180604052508101906116809190614a49565b6001600160a01b031684602001516001600160a01b031614156116d4576116cb8a7f00000000000000000000000000000000000000000000000000000000000000008b85600161231e565b95506116ea9050565b6116e68a85602001518b85600161231e565b9550505b505050505b90505b949350505050565b60008282018381101561171f5760405162461bcd60e51b815260040161038b906153f2565b90505b92915050565b8015610f1e576040516370a0823160e01b81526000906001600160a01b038516906370a082319061175d908890600401615020565b60206040518083038186803b15801561177557600080fd5b505afa158015611789573d6000803e3d6000fd5b505050506040513d601f19601f820116820180604052508101906117ad9190614f2a565b90506117bb8585858561256d565b6040516370a0823160e01b81526000906001600160a01b038616906370a08231906117ea908990600401615020565b60206040518083038186803b15801561180257600080fd5b505afa158015611816573d6000803e3d6000fd5b505050506040513d601f19601f8201168201806040525081019061183a9190614f2a565b905061184c828463ffffffff61263a16565b81146114265760405162461bcd60e51b815260040161038b9061576c565b611874828261267c565b6118905760405162461bcd60e51b815260040161038b906156bf565b5050565b600154604051635ae5900360e01b81526001600160a01b0390911690635ae59003906118c4908490600401615020565b60206040518083038186803b1580156118dc57600080fd5b505afa1580156118f0573d6000803e3d6000fd5b505050506040513d601f19601f820116820180604052508101906119149190614c30565b6119305760405162461bcd60e51b815260040161038b906157a3565b6119398161270a565b61128e5760405162461bcd60e51b815260040161038b90615429565b3390565b805182511461197a5760405162461bcd60e51b815260040161038b906152c8565b61189082612739565b6040516373b2e76b60e11b81526000906001600160a01b0383169063e765ced6906119b2908490600401615a91565b60206040518083038186803b1580156119ca57600080fd5b505afa1580156119de573d6000803e3d6000fd5b505050506040513d601f19601f820116820180604052508101906117229190614a49565b610f1e84848484612780565b600080611a1d898733876128a4565b90506060896001600160a01b03166399d50d5d6040518163ffffffff1660e01b815260040160006040518083038186803b158015611a5a57600080fd5b505afa158015611a6e573d6000803e3d6000fd5b505050506040513d6000823e601f3d908101601f19168201604052611a969190810190614abc565b90508551815114611ab95760405162461bcd60e51b815260040161038b906152f7565b600080611aca8c8c8c868c8b612940565b9150915088821015611aee5760405162461bcd60e51b815260040161038b90615658565b6040516340c10f1960e01b81526001600160a01b038d16906340c10f1990611b1c908a90869060040161508c565b600060405180830381600087803b158015611b3657600080fd5b505af1158015611b4a573d6000803e3d6000fd5b505050508b6001600160a01b03167f77b79f685ebcbc81e2e2f09f0543e94dacd078795d4d289029912037c51623ab3389878686604051611b8f959493929190615034565b60405180910390a29b9a5050505050505050505050565b805160209091012090565b6001546000908190611bcb906001600160a01b0316611983565b6001600160a01b031663e6d642c530856040518363ffffffff1660e01b8152600401611bf892919061508c565b60206040518083038186803b158015611c1057600080fd5b505afa158015611c24573d6000803e3d6000fd5b505050506040513d601f19601f82011682018060405250810190611c489190614a49565b90506001600160a01b0381166117225760405162461bcd60e51b815260040161038b90615558565b6001546000908190611c8a906001600160a01b0316612af2565b6001600160a01b031663510faa7689896040518363ffffffff1660e01b8152600401611cb79291906150a5565b60206040518083038186803b158015611ccf57600080fd5b505afa158015611ce3573d6000803e3d6000fd5b505050506040513d601f19601f82011682018060405250810190611d079190614f2a565b90506000611dd782611dcb611d2a89611d1e612b22565b9063ffffffff61263a16565b611dbf611db28d6001600160a01b031663313ce5676040518163ffffffff1660e01b815260040160206040518083038186803b158015611d6957600080fd5b505afa158015611d7d573d6000803e3d6000fd5b505050506040513d601f19601f82011682018060405250810190611da19190614f74565b600a9060ff1663ffffffff612b2e16565b8c9063ffffffff612b8016565b9063ffffffff6121a516565b9063ffffffff612b8016565b90506000611de78a8333896128a4565b9050600080611df98c8c8c878b612b9e565b6040516340c10f1960e01b815291935091506001600160a01b038d16906340c10f1990611e2c908b90869060040161508c565b600060405180830381600087803b158015611e4657600080fd5b505af1158015611e5a573d6000803e3d6000fd5b505050508b6001600160a01b03167f77b79f685ebcbc81e2e2f09f0543e94dacd078795d4d289029912037c51623ab338a868686604051611b8f959493929190615034565b6060806060836001600160a01b03166399d50d5d6040518163ffffffff1660e01b815260040160006040518083038186803b158015611edd57600080fd5b505afa158015611ef1573d6000803e3d6000fd5b505050506040513d6000823e601f3d908101601f19168201604052611f199190810190614abc565b9050606081516001600160401b0381118015611f3457600080fd5b50604051908082528060200260200182016040528015611f5e578160200160208202803683370190505b50905060005b825181101561219a576000838281518110611f7b57fe5b602002602001015190506000876001600160a01b03166366cb8d2f836040518263ffffffff1660e01b8152600401611fb39190615020565b60206040518083038186803b158015611fcb57600080fd5b505afa158015611fdf573d6000803e3d6000fd5b505050506040513d601f19601f820116820180604052508101906120039190614f2a565b90506060886001600160a01b031663a7bdad03846040518263ffffffff1660e01b81526004016120339190615020565b60006040518083038186803b15801561204b57600080fd5b505afa15801561205f573d6000803e3d6000fd5b505050506040513d6000823e601f3d908101601f191682016040526120879190810190614abc565b80519091501561216f5760005b815181101561216d5760008a6001600160a01b03166322ebeba4868585815181106120bb57fe5b60200260200101516040518363ffffffff1660e01b81526004016120e09291906150a5565b60206040518083038186803b1580156120f857600080fd5b505afa15801561210c573d6000803e3d6000fd5b505050506040513d601f19601f820116820180604052508101906121309190614f2a565b9050600081136121525760405162461bcd60e51b815260040161038b90615a1a565b612162848263ffffffff612d3b16565b935050600101612094565b505b61217882612d81565b85858151811061218457fe5b6020908102919091010152505050600101611f64565b509092509050915091565b600061171f670de0b6b3a76400006121c3858563ffffffff612da716565b9063ffffffff612de116565b60008215806121dc575081155b156121e957506000611722565b61171f600161220e670de0b6b3a76400006121c383611d1e898963ffffffff612da716565b9063ffffffff6116fa16565b600154604051635ae5900360e01b81526000916001600160a01b031690635ae590039061224b908590600401615020565b60206040518083038186803b15801561226357600080fd5b505afa158015612277573d6000803e3d6000fd5b505050506040513d601f19601f8201168201806040525081019061229b9190614c30565b801561172257506040516335fc6c9f60e21b81526001600160a01b0383169063d7f1b27c906122ce903090600401615020565b60206040518083038186803b1580156122e657600080fd5b505afa1580156122fa573d6000803e3d6000fd5b505050506040513d601f19601f820116820180604052508101906117229190614c30565b600080846001600160a01b0316866001600160a01b031614156123455750829050806124e3565b61234d6147db565b6001600160a01b0386166000908152600460209081526040918290208054835160026001831615610100026000190190921691909104601f8101849004840282018401909452838152612406938c936123fd9391908301828280156123f35780601f106123c8576101008083540402835291602001916123f3565b820191906000526020600020905b8154815290600101906020018083116123d657829003601f168201915b5050505050610b18565b89898989612e23565b90506124118161316d565b61243d816000015182602001518360400151846060015185608001518660a0015187610100015161323d565b612446816133f2565b5060006124676124568a8a6134a7565b60c08401519063ffffffff61263a16565b9050600061247d8360e00151611d1e8c8b6134a7565b9050876001600160a01b0316896001600160a01b03168b6001600160a01b03167f71c90a8e22bbb06ea39d299250bcaff990254be58217e7d1479dcbf2f24aa776866020015186866040516124d4939291906151d2565b60405180910390a49093509150505b9550959350505050565b600080600080612501868b8b8b8b8a613526565b91509150876001600160a01b0316896001600160a01b03168b6001600160a01b03167f0e631fe8e26e2b6c2ce8c4c55eca1d769c98bb4b5539068aec9ada0a3b429afe85858b60405161255693929190615a9a565b60405180910390a490999098509650505050505050565b8015610f1e576060828260405160240161258892919061508c565b60408051601f198184030181529181526020820180516001600160e01b031663a9059cbb60e01b179052516347b7819960e11b81529091506001600160a01b03861690638f6f0332906125e4908790600090869060040161510d565b600060405180830381600087803b1580156125fe57600080fd5b505af1158015612612573d6000803e3d6000fd5b505050506040513d6000823e601f3d908101601f191682016040526114269190810190614c4c565b600061171f83836040518060400160405280601e81526020017f536166654d6174683a207375627472616374696f6e206f766572666c6f770000815250613746565b6000816001600160a01b0316836001600160a01b031663481c6a756040518163ffffffff1660e01b815260040160206040518083038186803b1580156126c157600080fd5b505afa1580156126d5573d6000803e3d6000fd5b505050506040513d601f19601f820116820180604052508101906126f99190614a49565b6001600160a01b0316149392505050565b6040516353bae5f760e01b81526000906001600160a01b038316906353bae5f7906122ce903090600401615020565b600081511161275a5760405162461bcd60e51b815260040161038b90615853565b61276381613772565b1561128e5760405162461bcd60e51b815260040161038b906155bc565b8015610f1e576040516370a0823160e01b81526000906001600160a01b038616906370a08231906127b5908690600401615020565b60206040518083038186803b1580156127cd57600080fd5b505afa1580156127e1573d6000803e3d6000fd5b505050506040513d601f19601f820116820180604052508101906128059190614f2a565b905061281385858585613821565b6040516370a0823160e01b81526000906001600160a01b038716906370a0823190612842908790600401615020565b60206040518083038186803b15801561285a57600080fd5b505afa15801561286e573d6000803e3d6000fd5b505050506040513d601f19601f820116820180604052508101906128929190614f2a565b905061184c828463ffffffff6116fa16565b6001600160a01b0380851660009081526003602052604081205490911680156129345760405163a045808360e01b81526001600160a01b0382169063a0458083906128f99089908990899089906004016151f3565b600060405180830381600087803b15801561291357600080fd5b505af1158015612927573d6000803e3d6000fd5b50505050809150506116f2565b50600095945050505050565b60008060006000199050606086516001600160401b038111801561296357600080fd5b5060405190808252806020026020018201604052801561298d578160200160208202803683370190505b50905060005b8751811015612ad05760006129c96001611d1e8a85815181106129b257fe5b60200260200101518d6121a590919063ffffffff16565b90506000612a648d6001600160a01b03166366cb8d2f8c86815181106129eb57fe5b60200260200101516040518263ffffffff1660e01b8152600401612a0f9190615020565b60206040518083038186803b158015612a2757600080fd5b505afa158015612a3b573d6000803e3d6000fd5b505050506040513d601f19601f82011682018060405250810190612a5f9190614f2a565b612d81565b90506000612a878e8e858e8881518110612a7a57fe5b6020026020010151613879565b905080858581518110612a9657fe5b60209081029190910101526000612ab3828463ffffffff612b8016565b9050868111612ac0578096505b5050600190920191506129939050565b506000612ae08b8b84868a613b0f565b929b929a509198505050505050505050565b6040516373b2e76b60e11b81526000906001600160a01b0383169063e765ced6906119b290600290600401615a91565b670de0b6b3a764000090565b6000808311612b4f5760405162461bcd60e51b815260040161038b906155f3565b600160005b83811015612b785781612b6d818763ffffffff612da716565b925050600101612b54565b509392505050565b600061171f826121c385670de0b6b3a764000063ffffffff612da716565b600080606080612bb089876001611087565b915091506000806000670de0b6b3a76400009050606085516001600160401b0381118015612bdd57600080fd5b50604051908082528060200260200182016040528015612c07578160200160208202803683370190505b50905060005b8651811015612cf557612c488e8e898481518110612c2757fe5b6020026020010151898581518110612c3b57fe5b6020026020010151613c6d565b9095509350848c1015612c6d5760405162461bcd60e51b815260040161038b90615587565b612c7d8c8663ffffffff61263a16565b9b50612c9f8e8c898481518110612c9057fe5b60200260200101516001611291565b6000612cc7878381518110612cb057fe5b602002602001015186612b8090919063ffffffff16565b9050838111612cd4578093505b84838381518110612ce157fe5b602090810291909101015250600101612c0d565b506000612d088b8463ffffffff6121a516565b9050612d27612d1a8f8f85858f613b0f565b8d9063ffffffff6116fa16565b909e909d509b505050505050505050505050565b6000828201818312801590612d505750838112155b80612d655750600083128015612d6557508381125b61171f5760405162461bcd60e51b815260040161038b906154d0565b600080821215612da35760405162461bcd60e51b815260040161038b90615623565b5090565b600082612db657506000611722565b82820282848281612dc357fe5b041461171f5760405162461bcd60e51b815260040161038b906156f6565b600061171f83836040518060400160405280601a81526020017f536166654d6174683a206469766973696f6e206279207a65726f000000000000815250613f99565b612e2b6147db565b600060607f00000000000000000000000000000000000000000000000000000000000000006001600160a01b0316876001600160a01b03161480612ea057507f00000000000000000000000000000000000000000000000000000000000000006001600160a01b0316866001600160a01b0316145b15612f265760408051600280825260608201835290916020830190803683370190505090508681600081518110612ed357fe5b60200260200101906001600160a01b031690816001600160a01b0316815250508581600181518110612f0157fe5b60200260200101906001600160a01b031690816001600160a01b031681525050612ff2565b6040805160038082526080820190925290602082016060803683370190505090508681600081518110612f5557fe5b60200260200101906001600160a01b031690816001600160a01b0316815250507f000000000000000000000000000000000000000000000000000000000000000081600181518110612fa357fe5b60200260200101906001600160a01b031690816001600160a01b0316815250508581600281518110612fd157fe5b60200260200101906001600160a01b031690816001600160a01b0316815250505b612ffa6147db565b6001600160a01b03808b168252898116602083015288811660408301528716606082015260808101869052600060a08201526130368a896134a7565b60c08201526130458a886134a7565b60e0820152846130d757604051631a0abf8760e31b81526001600160a01b038a169063d055fc389061307e9085906000906004016151ae565b60006040518083038186803b15801561309657600080fd5b505afa1580156130aa573d6000803e3d6000fd5b505050506040513d6000823e601f3d908101601f191682016040526130d29190810190614c4c565b61315a565b604051631a0abf8760e31b81526001600160a01b038a169063d055fc38906131069085906001906004016151ae565b60006040518083038186803b15801561311e57600080fd5b505afa158015613132573d6000803e3d6000fd5b505050506040513d6000823e601f3d908101601f1916820160405261315a9190810190614c4c565b6101008201529998505050505050505050565b60008160800151116131915760405162461bcd60e51b815260040161038b906159e3565b600081604001516001600160a01b03166370a0823183600001516040518263ffffffff1660e01b81526004016131c79190615020565b60206040518083038186803b1580156131df57600080fd5b505afa1580156131f3573d6000803e3d6000fd5b505050506040513d601f19601f820116820180604052508101906132179190614f2a565b905081608001518110156118905760405162461bcd60e51b815260040161038b90615324565b6132ca85876001600160a01b031663334fc2896040518163ffffffff1660e01b815260040160206040518083038186803b15801561327a57600080fd5b505afa15801561328e573d6000803e3d6000fd5b505050506040513d601f19601f820116820180604052508101906132b29190614a49565b6001600160a01b038a1691908663ffffffff613fd016565b6000806060886001600160a01b031663e171fcab89898d8a8a8a6040518763ffffffff1660e01b8152600401613305969594939291906150bf565b60006040518083038186803b15801561331d57600080fd5b505afa158015613331573d6000803e3d6000fd5b505050506040513d6000823e601f3d908101601f191682016040526133599190810190614a65565b925092509250896001600160a01b0316638f6f03328484846040518463ffffffff1660e01b815260040161338f9392919061510d565b600060405180830381600087803b1580156133a957600080fd5b505af11580156133bd573d6000803e3d6000fd5b505050506040513d6000823e601f3d908101601f191682016040526133e59190810190614c4c565b5050505050505050505050565b6000806134818360e0015184606001516001600160a01b03166370a0823186600001516040518263ffffffff1660e01b81526004016134319190615020565b60206040518083038186803b15801561344957600080fd5b505afa15801561345d573d6000803e3d6000fd5b505050506040513d601f19601f82011682018060405250810190611d1e9190614f2a565b90508260a001518110156117225760405162461bcd60e51b815260040161038b90615460565b600080826001600160a01b03166370a08231856040518263ffffffff1660e01b81526004016134d69190615020565b60206040518083038186803b1580156134ee57600080fd5b505afa158015613502573d6000803e3d6000fd5b505050506040513d601f19601f820116820180604052508101906116f29190614f2a565b600080613534878686614041565b6000836135415786613563565b7f00000000000000000000000000000000000000000000000000000000000000005b9050600061357189836134a7565b9050600061357f8a896134a7565b9050600061358c8c610b18565b90506000816001600160a01b03166383d918098c8c6040518363ffffffff1660e01b81526004016135be9291906150a5565b60206040518083038186803b1580156135d657600080fd5b505afa1580156135ea573d6000803e3d6000fd5b505050506040513d601f19601f8201168201806040525081019061360e9190614a49565b905061362b6001600160a01b038d168b838c63ffffffff613fd016565b6136b38c838a61363b578d6136ac565b846001600160a01b0316631878d1f16040518163ffffffff1660e01b815260040160206040518083038186803b15801561367457600080fd5b505afa158015613688573d6000803e3d6000fd5b505050506040513d601f19601f820116820180604052508101906136ac9190614a49565b8d8d61408a565b87156136f4576136f46001600160a01b038d167f0000000000000000000000000000000000000000000000000000000000000000813163ffffffff61419f16565b60006137008d876134a7565b9050600061370e8e8d6134a7565b9050613720828763ffffffff61263a16565b613730868363ffffffff61263a16565b9850985050505050505050965096945050505050565b6000818484111561376a5760405162461bcd60e51b815260040161038b9190615248565b505050900390565b6000808251116137945760405162461bcd60e51b815260040161038b90615a6d565b60005b60018351038110156138185760008382815181106137b157fe5b6020026020010151905060008260010190505b845181101561380e578481815181106137d957fe5b60200260200101516001600160a01b0316826001600160a01b031614156138065760019350505050610b33565b6001016137c4565b5050600101613797565b50600092915050565b610f1e846323b872dd60e01b85858560405160240161384293929190615068565b60408051601f198184030181529190526020810180516001600160e01b03166001600160e01b031990931692909217909152614254565b600080826001600160a01b0316856001600160a01b0316141561389d5750826116ef565b6001600160a01b03838116600090815260056020526040902060010154166138cd5761148286868587600161231e565b6138d56147c3565b6001600160a01b0384166000908152600560209081526040918290208251815460026001821615610100026000190190911604601f810184900490930281016060908101855293810183815290939192849284919084018282801561397b5780601f106139505761010080835404028352916020019161397b565b820191906000526020600020905b81548152906001019060200180831161395e57829003601f168201915b5050509183525050600191909101546001600160a01b031660209091015280519091506000906139aa90610b18565b90506000809050816001600160a01b0316631878d1f16040518163ffffffff1660e01b815260040160206040518083038186803b1580156139ea57600080fd5b505afa1580156139fe573d6000803e3d6000fd5b505050506040513d601f19601f82011682018060405250810190613a229190614a49565b6001600160a01b031683602001516001600160a01b03161415613ad0577f00000000000000000000000000000000000000000000000000000000000000006001600160a01b0316886001600160a01b031614613aaf57613aa689897f00000000000000000000000000000000000000000000000000000000000000008a600161231e565b9150613ab29050565b50855b613ac98984602001518884876000015160016142e3565b9350613b02565b613ae2898985602001518a600161231e565b905080915050613aff8984602001518884876000015160006142e3565b93505b5050509050949350505050565b600081613b1e57506000613c64565b60008090506060876001600160a01b03166399d50d5d6040518163ffffffff1660e01b815260040160006040518083038186803b158015613b5e57600080fd5b505afa158015613b72573d6000803e3d6000fd5b505050506040513d6000823e601f3d908101601f19168201604052613b9a9190810190614abc565b905060005b8151811015613c5e576000613bcc87611dbf8c6001600160a01b03166366cb8d2f8787815181106129eb57fe5b90506000613bf6828a8581518110613be057fe5b602002602001015161263a90919063ffffffff16565b90506000613c0a828463ffffffff612b8016565b9050613c1a6127106121c3612b22565b811115613c5357613c50613c438d8d888881518110613c3557fe5b60200260200101518661142e565b879063ffffffff6116fa16565b95505b505050600101613b9f565b50909150505b95945050505050565b600080600080856001600160a01b0316876001600160a01b03161415613c97575083905080613f8c565b6001600160a01b0386811660009081526005602052604090206001015416613cd157613cc788888888600061231e565b9092509050613f8c565b613cd96147c3565b6001600160a01b0387166000908152600560209081526040918290208251815460026001821615610100026000190190911604601f8101849004909302810160609081018552938101838152909391928492849190840182828015613d7f5780601f10613d5457610100808354040283529160200191613d7f565b820191906000526020600020905b815481529060010190602001808311613d6257829003601f168201915b5050509183525050600191909101546001600160a01b03166020909101528051909150600090613dae90610b18565b90506000816001600160a01b031663161aa66184602001518b8b6040518463ffffffff1660e01b8152600401613de693929190615068565b60206040518083038186803b158015613dfe57600080fd5b505afa158015613e12573d6000803e3d6000fd5b505050506040513d601f19601f82011682018060405250810190613e369190614f2a565b9050816001600160a01b0316631878d1f16040518163ffffffff1660e01b815260040160206040518083038186803b158015613e7157600080fd5b505afa158015613e85573d6000803e3d6000fd5b505050506040513d601f19601f82011682018060405250810190613ea99190614a49565b6001600160a01b031683602001516001600160a01b03161415613f57577f00000000000000000000000000000000000000000000000000000000000000006001600160a01b03168a6001600160a01b031614613f3557613f2d8b8b7f000000000000000000000000000000000000000000000000000000000000000084600061231e565b509450613f39565b8094505b613f508b84602001518b84876000015160016142e3565b9350613f88565b613f698b8b856020015184600061231e565b5080955050613f858b84602001518b84876000015160006142e3565b93505b5050505b9097909650945050505050565b60008183613fba5760405162461bcd60e51b815260040161038b9190615248565b506000838581613fc657fe5b0495945050505050565b60608282604051602401613fe592919061508c565b60408051601f198184030181529181526020820180516001600160e01b031663095ea7b360e01b179052516347b7819960e11b81529091506001600160a01b03861690638f6f0332906125e4908790600090869060040161510d565b600081116140615760405162461bcd60e51b815260040161038b906157e5565b8061406c84846134a7565b10156107e15760405162461bcd60e51b815260040161038b9061548a565b6000806060866001600160a01b031663a22fe98e8787876040518463ffffffff1660e01b81526004016140bf93929190615068565b60006040518083038186803b1580156140d757600080fd5b505afa1580156140eb573d6000803e3d6000fd5b505050506040513d6000823e601f3d908101601f191682016040526141139190810190614a65565b925092509250876001600160a01b0316638f6f03328484846040518463ffffffff1660e01b81526004016141499392919061510d565b600060405180830381600087803b15801561416357600080fd5b505af1158015614177573d6000803e3d6000fd5b505050506040513d6000823e601f3d908101601f191682016040526105f59190810190614c4c565b6040805160048082526024820183526020820180516001600160e01b0316630d0e30db60e41b17905291516347b7819960e11b815290916001600160a01b03861691638f6f0332916141f7918791879187910161510d565b600060405180830381600087803b15801561421157600080fd5b505af1158015614225573d6000803e3d6000fd5b505050506040513d6000823e601f3d908101601f1916820160405261424d9190810190614c4c565b5050505050565b60606142a9826040518060400160405280602081526020017f5361666545524332303a206c6f772d6c6576656c2063616c6c206661696c6564815250856001600160a01b031661435f9092919063ffffffff16565b8051909150156107e157808060200190518101906142c79190614c30565b6107e15760405162461bcd60e51b815260040161038b90615962565b60008060006142f6858a8a8a8a8961436e565b91509150866001600160a01b0316886001600160a01b03168a6001600160a01b03167f266efe8e5e4e2e7e407c4814a2818ef8e990768c61e67315ac34a8d3555b438e85858a60405161434b93929190615a9a565b60405180910390a498975050505050505050565b60606116f284846000856145a8565b60008060008061437e89886134a7565b9050600061438b8b610b18565b905060008661439a57896143bc565b7f00000000000000000000000000000000000000000000000000000000000000005b90506143c98b828a614041565b6143d38b826134a7565b9350861561441a576144156001600160a01b038c167f00000000000000000000000000000000000000000000000000000000000000008a63ffffffff61466c16565b6144cf565b604051633d3685e960e11b81526000906001600160a01b03841690637a6d0bd29061444b908e908e906004016150a5565b60206040518083038186803b15801561446357600080fd5b505afa158015614477573d6000803e3d6000fd5b505050506040513d601f19601f8201168201806040525081019061449b9190614a49565b90506144cd8b826144b38c600163ffffffff6116fa16565b8f6001600160a01b0316613fd0909392919063ffffffff16565b505b6145578b83896144df578c614550565b846001600160a01b0316631878d1f16040518163ffffffff1660e01b815260040160206040518083038186803b15801561451857600080fd5b505afa15801561452c573d6000803e3d6000fd5b505050506040513d601f19601f820116820180604052508101906145509190614a49565b8c8c6146db565b60006145638c836134a7565b905060006145718d8c6134a7565b9050614583868363ffffffff61263a16565b614593828763ffffffff61263a16565b97509750505050505050965096945050505050565b60606145b385614710565b6145cf5760405162461bcd60e51b815260040161038b9061581c565b60006060866001600160a01b031685876040516145ec9190615004565b60006040518083038185875af1925050503d8060008114614629576040519150601f19603f3d011682016040523d82523d6000602084013e61462e565b606091505b509150915081156146425791506116f29050565b8051156146525780518082602001fd5b8360405162461bcd60e51b815260040161038b9190615248565b60608160405160240161467f9190615a91565b60408051601f198184030181529181526020820180516001600160e01b0316632e1a7d4d60e01b179052516347b7819960e11b81529091506001600160a01b03851690638f6f0332906141f7908690600090869060040161510d565b6000806060866001600160a01b03166377b1aaf88787876040518463ffffffff1660e01b81526004016140bf93929190615068565b6000813f7fc5d2460186f7233c927e7db2dcc703c0e500b653ca82273b7bfad8045d85a4708181148015906116f2575050151592915050565b828054600181600116156101000203166002900490600052602060002090601f016020900481019282601f1061478a57805160ff19168380011785556147b7565b828001600101855582156147b7579182015b828111156147b757825182559160200191906001019061479c565b50612da392915061484b565b60408051808201909152606081526000602082015290565b60405180610120016040528060006001600160a01b0316815260200160006001600160a01b0316815260200160006001600160a01b0316815260200160006001600160a01b0316815260200160008152602001600081526020016000815260200160008152602001606081525090565b610b1591905b80821115612da35760008155600101614851565b600082601f830112614875578081fd5b813561488861488382615adf565b615ab9565b8181529150602080830190848101818402860182018710156148a957600080fd5b60005b848110156148d15781356148bf81615b4d565b845292820192908201906001016148ac565b505050505092915050565b600082601f8301126148ec578081fd5b81356148fa61488382615adf565b818152915060208083019084810160005b848110156148d157614922888484358a01016149df565b8452928201929082019060010161490b565b600082601f830112614944578081fd5b813561495261488382615adf565b81815291506020808301908481018184028601820187101561497357600080fd5b60005b848110156148d157813584529282019290820190600101614976565b600082601f8301126149a2578081fd5b81516149b061488382615afe565b91508082528360208285010111156149c757600080fd5b6149d8816020840160208601615b21565b5092915050565b600082601f8301126149ef578081fd5b81356149fd61488382615afe565b9150808252836020828501011115614a1457600080fd5b8060208401602084013760009082016020015292915050565b600060208284031215614a3e578081fd5b813561171f81615b4d565b600060208284031215614a5a578081fd5b815161171f81615b4d565b600080600060608486031215614a79578182fd5b8351614a8481615b4d565b6020850151604086015191945092506001600160401b03811115614aa6578182fd5b614ab286828701614992565b9150509250925092565b60006020808385031215614ace578182fd5b82516001600160401b03811115614ae3578283fd5b80840185601f820112614af4578384fd5b80519150614b0461488383615adf565b8281528381019082850185850284018601891015614b20578687fd5b8693505b84841015614b4b578051614b3781615b4d565b835260019390930192918501918501614b24565b50979650505050505050565b60008060408385031215614b69578182fd5b82356001600160401b0380821115614b7f578384fd5b614b8b86838701614865565b93506020850135915080821115614ba0578283fd5b50614bad858286016148dc565b9150509250929050565b600080600060608486031215614bcb578283fd5b83356001600160401b0380821115614be1578485fd5b614bed87838801614865565b94506020860135915080821115614c02578384fd5b614c0e878388016148dc565b93506040860135915080821115614c23578283fd5b50614ab286828701614865565b600060208284031215614c41578081fd5b815161171f81615b62565b600060208284031215614c5d578081fd5b81516001600160401b03811115614c72578182fd5b6116f284828501614992565b60008060008060008060c08789031215614c96578384fd5b8635614ca181615b4d565b95506020870135614cb181615b4d565b945060408701359350606087013592506080870135614ccf81615b4d565b915060a0870135614cdf81615b62565b809150509295509295509295565b600080600080600080600060e0888a031215614d07578485fd5b8735614d1281615b4d565b96506020880135614d2281615b4d565b9550604088013594506060880135935060808801356001600160401b03811115614d4a578182fd5b614d568a828b01614934565b93505060a0880135614d6781615b4d565b915060c0880135614d7781615b62565b8091505092959891949750929550565b60008060408385031215614d99578182fd5b8235614da481615b4d565b91506020830135614db481615b4d565b809150509250929050565b600080600080600060a08688031215614dd6578283fd5b8535614de181615b4d565b9450602086013593506040860135614df881615b4d565b92506060860135614e0881615b4d565b949793965091946080013592915050565b60008060008060808587031215614e2e578182fd5b8435614e3981615b4d565b9350602085013592506040850135614e5081615b4d565b91506060850135614e6081615b62565b939692955090935050565b600080600080600060a08688031215614e82578283fd5b8535614e8d81615b4d565b94506020860135935060408601356001600160401b03811115614eae578384fd5b614eba88828901614934565b9350506060860135614ecb81615b4d565b91506080860135614edb81615b62565b809150509295509295909350565b600080600060608486031215614efd578081fd5b8335614f0881615b4d565b9250602084013591506040840135614f1f81615b62565b809150509250925092565b600060208284031215614f3b578081fd5b5051919050565b600060208284031215614f53578081fd5b81356001600160401b03811115614f68578182fd5b6116f2848285016149df565b600060208284031215614f85578081fd5b815160ff8116811461171f578182fd5b6000815180845260208085019450808401835b83811015614fcd5781516001600160a01b031687529582019590820190600101614fa8565b509495945050505050565b60008151808452614ff0816020860160208601615b21565b601f01601f19169290920160200192915050565b60008251615016818460208701615b21565b9190910192915050565b6001600160a01b0391909116815260200190565b6001600160a01b03958616815293851660208501529190931660408301526060820192909252608081019190915260a00190565b6001600160a01b039384168152919092166020820152604081019190915260600190565b6001600160a01b03929092168252602082015260400190565b6001600160a01b0392831681529116602082015260400190565b6001600160a01b038781168252868116602083015285166040820152606081018490526080810183905260c060a0820181905260009061510190830184614fd8565b98975050505050505050565b600060018060a01b038516825283602083015260606040830152613c646060830184614fd8565b6001600160a01b03831681526040602082018190526000906116f290830184614fd8565b60006040825261516b6040830185614f95565b828103602084810191909152845180835285820192820190845b818110156151a157845183529383019391830191600101615185565b5090979650505050505050565b6000604082526151c16040830185614f95565b905082151560208301529392505050565b6001600160a01b039390931683526020830191909152604082015260600190565b6001600160a01b03948516815260208101939093529083166040830152909116606082015260800190565b6001600160a01b039485168152602081019390935292166040820152901515606082015260800190565b60006020825261171f6020830184614fd8565b60006040825261526e6040830185614fd8565b905060018060a01b03831660208301529392505050565b60208082526023908201527f636f6d706f6e656e7420616d6f756e742073686f756c64206e6f74206265207a60408201526265726f60e81b606082015260800190565b602080825260159082015274082e4e4c2f240d8cadccee8d040dad2e6dac2e8c6d605b1b604082015260600190565b6020808252601390820152720eecad2ced0e8d2dccee640dad2e6dac2e8c6d606b1b604082015260600190565b60208082526031908201527f746f74616c2073656e64207175616e746974792063616e742062652067726561604082015270746572207468616e206578697374696e6760781b606082015260800190565b60208082526026908201527f4f776e61626c653a206e6577206f776e657220697320746865207a65726f206160408201526564647265737360d01b606082015260800190565b6020808252601b908201527f52656465656d207175616e74697479206d757374206265203e20300000000000604082015260600190565b6020808252601b908201527f536166654d6174683a206164646974696f6e206f766572666c6f770000000000604082015260600190565b6020808252601e908201527f4d7573742062652070656e64696e6720696e697469616c697a6174696f6e0000604082015260600190565b60208082526010908201526f536c69707061676520746f6f2062696760801b604082015260600190565b60208082526026908201527f7175616e746974792063616e742062652067726561746572207468616e206578604082015265697374696e6760d01b606082015260800190565b60208082526021908201527f5369676e6564536166654d6174683a206164646974696f6e206f766572666c6f6040820152607760f81b606082015260800190565b60208082526027908201527f4d75737420626520612076616c696420616e6420696e697469616c697a65642060408201526625282a37b5b2b760c91b606082015260800190565b60208082526015908201527426bab9ba103132903b30b634b21030b230b83a32b960591b604082015260600190565b6020808252818101527f4e6f7420656e6f75676820697373756520746f6b656e2072656d61696e696e67604082015260600190565b6020808252601a908201527f43616e6e6f74206475706c696361746520616464726573736573000000000000604082015260600190565b60208082526016908201527556616c7565206d75737420626520706f73697469766560501b604082015260600190565b6020808252818101527f53616665436173743a2076616c7565206d75737420626520706f736974697665604082015260600190565b60208082526016908201527517db5a5b9294151bdad95b949958c81b9bdd081b595d60521b604082015260600190565b6020808252601a908201527f556e7265636f676e697a65642065786368616e6765206e616d65000000000000604082015260600190565b6020808252601b908201527f4d75737420626520746865204a50546f6b656e206d616e616765720000000000604082015260600190565b60208082526021908201527f536166654d6174683a206d756c7469706c69636174696f6e206f766572666c6f6040820152607760f81b606082015260800190565b6020808252818101527f4f776e61626c653a2063616c6c6572206973206e6f7420746865206f776e6572604082015260600190565b6020808252601d908201527f496e76616c696420706f7374207472616e736665722062616c616e6365000000604082015260600190565b60208082526022908201527f4d75737420626520636f6e74726f6c6c65722d656e61626c6564204a50546f6b60408201526132b760f11b606082015260800190565b6020808252601e908201527f636f6d706f6e656e74207175616e74697479206d757374206265203e20300000604082015260600190565b6020808252601d908201527f416464726573733a2063616c6c20746f206e6f6e2d636f6e7472616374000000604082015260600190565b60208082526018908201527f4172726179206c656e677468206d757374206265203e20300000000000000000604082015260600190565b6020808252601c908201527f5f6d696e52656465656d546f6b656e546f526563206e6f74206d657400000000604082015260600190565b6020808252601e908201527f556e7265636f676e697a656420777261702061646170746572206e616d650000604082015260600190565b6020808252818101527f4973737565206574686572207175616e74697479206d757374206265203e2030604082015260600190565b6020808252818101527f497373756520746f6b656e207175616e74697479206d757374206265203e2030604082015260600190565b6020808252602a908201527f5361666545524332303a204552433230206f7065726174696f6e20646964206e6040820152691bdd081cdd58d8d9595960b21b606082015260800190565b6020808252601f908201527f5265656e7472616e637947756172643a207265656e7472616e742063616c6c00604082015260600190565b6020808252601d908201527f546f6b656e20746f2073656c6c206d757374206265206e6f6e7a65726f000000604082015260600190565b60208082526033908201527f4f6e6c7920706f7369746976652065787465726e616c20756e697420706f73696040820152721d1a5bdb9cc8185c99481cdd5c1c1bdc9d1959606a1b606082015260800190565b6020808252600a90820152694120697320656d70747960b01b604082015260600190565b90815260200190565b600084825283602083015260606040830152613c646060830184614fd8565b6040518181016001600160401b0381118282101715615ad757600080fd5b604052919050565b60006001600160401b03821115615af4578081fd5b5060209081020190565b60006001600160401b03821115615b13578081fd5b50601f01601f191660200190565b60005b83811015615b3c578181015183820152602001615b24565b83811115610f1e5750506000910152565b6001600160a01b038116811461128e57600080fd5b801515811461128e57600080fdfea2646970667358221220838015f9cb29d45668d31ca153c30a132e9e161b786c0039408763fd863c481864736f6c634300060a0033","linkReferences":{}},"methodIdentifiers":{"controller()":"f77c4791","exchangeInfo(address)":"5f06cd2c","getAndValidateAdapter(string)":"aec06338","getRequiredComponentIssuanceUnits(address,uint256,bool)":"f1ca6a3f","initialize(address,address)":"485cc955","issueWithEther(address,uint256,address,bool)":"c1b1dd7e","issueWithEther2(address,uint256,uint256[],address,bool)":"85106297","issueWithSingleToken(address,address,uint256,uint256,address,bool)":"eae4579b","issueWithSingleToken2(address,address,uint256,uint256,uint256[],address,bool)":"5b82eedd","managerIssuanceHook(address)":"dfe75335","owner()":"8da5cb5b","redeemToSingleToken(address,uint256,address,address,uint256)":"1f0c46e8","removeModule()":"847ef08d","renounceOwnership()":"715018a6","setExchanges(address[],string[])":"4ee05c4a","setWrapAdapters(address[],string[],address[])":"c1bd162b","transferOwnership(address)":"f2fde38b","weth()":"3fc8cef3","wrapInfo(address)":"de432138"},"id":77}