{"abi":[{"type":"constructor","inputs":[],"stateMutability":"nonpayable"},{"type":"function","name":"ETH_TOKEN_ADDRESS","inputs":[],"outputs":[{"name":"","type":"address","internalType":"address"}],"stateMutability":"view"},{"type":"function","name":"getDepositUnderlyingTokenAmount","inputs":[{"name":"_underlyingToken","type":"address","internalType":"address"},{"name":"_wrappedToken","type":"address","internalType":"address"},{"name":"_wrappedAmount","type":"uint256","internalType":"uint256"}],"outputs":[{"name":"","type":"uint256","internalType":"uint256"}],"stateMutability":"view"},{"type":"function","name":"getSpenderAddress","inputs":[{"name":"","type":"address","internalType":"address"},{"name":"_wrappedToken","type":"address","internalType":"address"}],"outputs":[{"name":"","type":"address","internalType":"address"}],"stateMutability":"view"},{"type":"function","name":"getUnwrapCallData","inputs":[{"name":"_underlyingToken","type":"address","internalType":"address"},{"name":"_wrappedToken","type":"address","internalType":"address"},{"name":"_wrappedTokenUnits","type":"uint256","internalType":"uint256"}],"outputs":[{"name":"","type":"address","internalType":"address"},{"name":"","type":"uint256","internalType":"uint256"},{"name":"","type":"bytes","internalType":"bytes"}],"stateMutability":"view"},{"type":"function","name":"getUnwrapSpenderAddress","inputs":[{"name":"","type":"address","internalType":"address"},{"name":"_wrappedToken","type":"address","internalType":"address"}],"outputs":[{"name":"","type":"address","internalType":"address"}],"stateMutability":"view"},{"type":"function","name":"getWrapCallData","inputs":[{"name":"_underlyingToken","type":"address","internalType":"address"},{"name":"_wrappedToken","type":"address","internalType":"address"},{"name":"_underlyingUnits","type":"uint256","internalType":"uint256"}],"outputs":[{"name":"","type":"address","internalType":"address"},{"name":"","type":"uint256","internalType":"uint256"},{"name":"","type":"bytes","internalType":"bytes"}],"stateMutability":"view"},{"type":"function","name":"getWrapSpenderAddress","inputs":[{"name":"","type":"address","internalType":"address"},{"name":"_wrappedToken","type":"address","internalType":"address"}],"outputs":[{"name":"","type":"address","internalType":"address"}],"stateMutability":"view"},{"type":"function","name":"vBNB","inputs":[],"outputs":[{"name":"","type":"address","internalType":"address"}],"stateMutability":"view"}],"bytecode":{"object":"0x60a06040527fa07c5b74c9b40447a954e1466938b865b6bbea3600000000000000000000000060805234801561003457600080fd5b5060805160601c61085e6100576000398061034652806105cf525061085e6000f3fe608060405234801561001057600080fd5b50600436106100885760003560e01c80637a6d0bd21161005b5780637a6d0bd2146101cf57806383d91809146101cf578063a22fe98e146101fd578063de68a3da146101cf57610088565b8063161aa6611461008d5780631878d1f1146100d557806333e1567f146100f957806377b1aaf814610101575b600080fd5b6100c3600480360360608110156100a357600080fd5b506001600160a01b03813581169160208101359091169060400135610233565b60408051918252519081900360200190f35b6100dd61032c565b604080516001600160a01b039092168252519081900360200190f35b6100dd610344565b6101376004803603606081101561011757600080fd5b506001600160a01b03813581169160208101359091169060400135610368565b60405180846001600160a01b03166001600160a01b0316815260200183815260200180602001828103825283818151815260200191508051906020019080838360005b8381101561019257818101518382015260200161017a565b50505050905090810190601f1680156101bf5780820380516001836020036101000a031916815260200191505b5094505050505060405180910390f35b6100dd600480360360408110156101e557600080fd5b506001600160a01b038135811691602001351661046e565b6101376004803603606081101561021357600080fd5b506001600160a01b03813581169160208101359091169060400135610476565b600083836102418282610518565b61028f576040805162461bcd60e51b815260206004820152601a60248201527926bab9ba1031329030903b30b634b2103a37b5b2b7103830b4b960311b604482015290519081900360640190fd5b8361029d5760009250610323565b60008590506000816001600160a01b031663182df0f56040518163ffffffff1660e01b815260040160206040518083038186803b1580156102dd57600080fd5b505afa1580156102f1573d6000803e3d6000fd5b505050506040513d602081101561030757600080fd5b50519050600061031d878363ffffffff61069e16565b95505050505b50509392505050565b73eeeeeeeeeeeeeeeeeeeeeeeeeeeeeeeeeeeeeeee81565b7f000000000000000000000000000000000000000000000000000000000000000081565b600080606085856103798282610518565b6103c7576040805162461bcd60e51b815260206004820152601a60248201527926bab9ba1031329030903b30b634b2103a37b5b2b7103830b4b960311b604482015290519081900360640190fd5b600060606001600160a01b038a1673eeeeeeeeeeeeeeeeeeeeeeeeeeeeeeeeeeeeeeee14156104225750506040805160048152602481019091526020810180516001600160e01b0316631249c58b60e01b1790528690610460565b50506040805160248082018990528251808303909101815260449091019091526020810180516001600160e01b031663140e25ad60e31b1790526000905b979990985095505050505050565b805b92915050565b600080606085856104878282610518565b6104d5576040805162461bcd60e51b815260206004820152601a60248201527926bab9ba1031329030903b30b634b2103a37b5b2b7103830b4b960311b604482015290519081900360640190fd5b5050604080516024808201969096528151808203909601865260440190525050506020810180516001600160e01b031663db006a7560e01b179052909260009250565b600080829050806001600160a01b0316633d9ea3a16040518163ffffffff1660e01b815260040160206040518083038186803b15801561055757600080fd5b505afa15801561056b573d6000803e3d6000fd5b505050506040513d602081101561058157600080fd5b50516105cb576040805162461bcd60e51b81526020600482015260146024820152734d7573742062652056656e757320546f6b656e2160601b604482015290519081900360640190fd5b60007f00000000000000000000000000000000000000000000000000000000000000006001600160a01b0316846001600160a01b03161461067057816001600160a01b0316636f307dc36040518163ffffffff1660e01b815260040160206040518083038186803b15801561063f57600080fd5b505afa158015610653573d6000803e3d6000fd5b505050506040513d602081101561066957600080fd5b5051610686565b73eeeeeeeeeeeeeeeeeeeeeeeeeeeeeeeeeeeeeeee5b6001600160a01b038681169116149250505092915050565b60006106c8670de0b6b3a76400006106bc858563ffffffff6106cf16565b9063ffffffff61072816565b9392505050565b6000826106de57506000610470565b828202828482816106eb57fe5b04146106c85760405162461bcd60e51b81526004018080602001828103825260218152602001806108086021913960400191505060405180910390fd5b60006106c883836040518060400160405280601a81526020017f536166654d6174683a206469766973696f6e206279207a65726f000000000000815250600081836107f15760405162461bcd60e51b81526004018080602001828103825283818151815260200191508051906020019080838360005b838110156107b657818101518382015260200161079e565b50505050905090810190601f1680156107e35780820380516001836020036101000a031916815260200191505b509250505060405180910390fd5b5060008385816107fd57fe5b049594505050505056fe536166654d6174683a206d756c7469706c69636174696f6e206f766572666c6f77a2646970667358221220c7b5c63b99bceee6ddbb87a2d2d7c75d7b63ba8c5dfb13c81cfe94d6cc52f4c964736f6c634300060a0033","linkReferences":{}},"methodIdentifiers":{"ETH_TOKEN_ADDRESS()":"1878d1f1","getDepositUnderlyingTokenAmount(address,address,uint256)":"161aa661","getSpenderAddress(address,address)":"de68a3da","getUnwrapCallData(address,address,uint256)":"a22fe98e","getUnwrapSpenderAddress(address,address)":"83d91809","getWrapCallData(address,address,uint256)":"77b1aaf8","getWrapSpenderAddress(address,address)":"7a6d0bd2","vBNB()":"33e1567f"},"id":70}