{"abi":[{"type":"constructor","inputs":[{"name":"_router","type":"address","internalType":"address"}],"stateMutability":"nonpayable"},{"type":"function","name":"generateDataParam","inputs":[{"name":"_path","type":"address[]","internalType":"address[]"},{"name":"_isSendTokenFixed","type":"bool","internalType":"bool"}],"outputs":[{"name":"","type":"bytes","internalType":"bytes"}],"stateMutability":"pure"},{"type":"function","name":"getMaxAmountsIn","inputs":[{"name":"amountOut","type":"uint256","internalType":"uint256"},{"name":"path","type":"address[]","internalType":"address[]"}],"outputs":[{"name":"amounts","type":"uint256[]","internalType":"uint256[]"}],"stateMutability":"view"},{"type":"function","name":"getMinAmountsOut","inputs":[{"name":"amountIn","type":"uint256","internalType":"uint256"},{"name":"path","type":"address[]","internalType":"address[]"}],"outputs":[{"name":"amounts","type":"uint256[]","internalType":"uint256[]"}],"stateMutability":"view"},{"type":"function","name":"getSpender","inputs":[],"outputs":[{"name":"","type":"address","internalType":"address"}],"stateMutability":"view"},{"type":"function","name":"getTradeCalldata","inputs":[{"name":"","type":"address","internalType":"address"},{"name":"","type":"address","internalType":"address"},{"name":"_destinationAddress","type":"address","internalType":"address"},{"name":"_sourceQuantity","type":"uint256","internalType":"uint256"},{"name":"_destinationQuantity","type":"uint256","internalType":"uint256"},{"name":"_data","type":"bytes","internalType":"bytes"}],"outputs":[{"name":"","type":"address","internalType":"address"},{"name":"","type":"uint256","internalType":"uint256"},{"name":"","type":"bytes","internalType":"bytes"}],"stateMutability":"view"},{"type":"function","name":"getUniswapExchangeData","inputs":[{"name":"_path","type":"address[]","internalType":"address[]"},{"name":"_shouldSwapExactTokensForTokens","type":"bool","internalType":"bool"}],"outputs":[{"name":"","type":"bytes","internalType":"bytes"}],"stateMutability":"pure"},{"type":"function","name":"router","inputs":[],"outputs":[{"name":"","type":"address","internalType":"address"}],"stateMutability":"view"}],"bytecode":{"object":"0x60a060405234801561001057600080fd5b50604051610b17380380610b1783398101604081905261002f91610044565b60601b6001600160601b031916608052610072565b600060208284031215610055578081fd5b81516001600160a01b038116811461006b578182fd5b9392505050565b60805160601c610a746100a36000398061017c528061023d52806102be52806103cc52806104045250610a746000f3fe608060405234801561001057600080fd5b506004361061007d5760003560e01c8063bff272be1161005b578063bff272be146100e0578063d055fc38146100ab578063e171fcab146100f3578063f887ea40146101155761007d565b80631bfeb407146100825780632173867a146100ab578063334fc289146100cb575b600080fd5b6100956100903660046106ff565b61011d565b6040516100a29190610837565b60405180910390f35b6100be6100b936600461056a565b61020e565b6040516100a2919061087b565b6100d361023b565b6040516100a291906107cf565b6100956100ee3660046106ff565b61025f565b6101066101013660046104a8565b6102f5565b6040516100a2939291906107e3565b6100d3610402565b6060815167ffffffffffffffff8111801561013757600080fd5b50604051908082528060200260200182016040528015610161578160200160208202803683370190505b506040516307c0329d60e21b81529091506001600160a01b037f00000000000000000000000000000000000000000000000000000000000000001690631f00ca74906101b3908690869060040161088e565b60006040518083038186803b1580156101cb57600080fd5b505afa1580156101df573d6000803e3d6000fd5b505050506040513d6000823e601f3d908101601f19168201604052610207919081019061066c565b9392505050565b60608282604051602001610223929190610813565b60405160208183030381529060405290505b92915050565b7f000000000000000000000000000000000000000000000000000000000000000090565b6060815167ffffffffffffffff8111801561027957600080fd5b506040519080825280602002602001820160405280156102a3578160200160208202803683370190505b5060405163d06ca61f60e01b81529091506001600160a01b037f0000000000000000000000000000000000000000000000000000000000000000169063d06ca61f906101b3908690869060040161088e565b60008060608060008580602001905181019061031191906105ba565b9150915060608161033a576040518060800160405280604381526020016109fc60439139610354565b6040518060800160405280604381526020016109b9604391395b8261035f5788610361565b895b8361036c578a61036e565b895b858d426040516024016103859594939291906108af565b60408051601f1981840301815290829052916103a0916107b3565b6040519081900390206020820180516001600160e01b03166001600160e01b03199092169190911790527f0000000000000000000000000000000000000000000000000000000000000000965060009550935050505096509650969350505050565b7f000000000000000000000000000000000000000000000000000000000000000081565b600082601f830112610436578081fd5b813561044961044482610912565b6108eb565b81815291506020808301908481018184028601820187101561046a57600080fd5b60005b8481101561049257813561048081610992565b8452928201929082019060010161046d565b505050505092915050565b8051610235816109aa565b60008060008060008060c087890312156104c0578182fd5b86356104cb81610992565b955060208701356104db81610992565b945060408701356104eb81610992565b9350606087013592506080870135915060a087013567ffffffffffffffff811115610514578182fd5b80880189601f820112610525578283fd5b8035915061053561044483610932565b8281528a6020848401011115610549578384fd5b61055a836020830160208501610956565b8093505050509295509295509295565b6000806040838503121561057c578182fd5b823567ffffffffffffffff811115610592578283fd5b61059e85828601610426565b92505060208301356105af816109aa565b809150509250929050565b600080604083850312156105cc578182fd5b825167ffffffffffffffff8111156105e2578283fd5b80840185601f8201126105f3578384fd5b8051915061060361044483610912565b808382526020808301925080840189828388028701011115610623578788fd5b8794505b8585101561064e57805161063a81610992565b845260019490940193928101928101610627565b5081965061065e89828a0161049d565b955050505050509250929050565b6000602080838503121561067e578182fd5b825167ffffffffffffffff811115610694578283fd5b80840185601f8201126106a5578384fd5b805191506106b561044483610912565b82815283810190828501858502840186018910156106d1578687fd5b8693505b848410156106f35780518352600193909301929185019185016106d5565b50979650505050505050565b60008060408385031215610711578182fd5b82359150602083013567ffffffffffffffff81111561072e578182fd5b61073a85828601610426565b9150509250929050565b6000815180845260208085019450808401835b8381101561077c5781516001600160a01b031687529582019590820190600101610757565b509495945050505050565b6000815180845261079f816020860160208601610962565b601f01601f19169290920160200192915050565b600082516107c5818460208701610962565b9190910192915050565b6001600160a01b0391909116815260200190565b600060018060a01b03851682528360208301526060604083015261080a6060830184610787565b95945050505050565b6000604082526108266040830185610744565b905082151560208301529392505050565b6020808252825182820181905260009190848201906040850190845b8181101561086f57835183529284019291840191600101610853565b50909695505050505050565b6000602082526102076020830184610787565b6000838252604060208301526108a76040830184610744565b949350505050565b600086825285602083015260a060408301526108ce60a0830186610744565b6001600160a01b0394909416606083015250608001529392505050565b60405181810167ffffffffffffffff8111828210171561090a57600080fd5b604052919050565b600067ffffffffffffffff821115610928578081fd5b5060209081020190565b600067ffffffffffffffff821115610948578081fd5b50601f01601f191660200190565b82818337506000910152565b60005b8381101561097d578181015183820152602001610965565b8381111561098c576000848401525b50505050565b6001600160a01b03811681146109a757600080fd5b50565b80151581146109a757600080fdfe737761704578616374546f6b656e73466f72546f6b656e732875696e743235362c75696e743235362c616464726573735b5d2c616464726573732c75696e743235362973776170546f6b656e73466f724578616374546f6b656e732875696e743235362c75696e743235362c616464726573735b5d2c616464726573732c75696e7432353629a26469706673582212209833107735d988bd23fb071dfdbbbb680a9100852f7e032f65473c81b6dee56264736f6c634300060a0033","linkReferences":{}},"methodIdentifiers":{"generateDataParam(address[],bool)":"d055fc38","getMaxAmountsIn(uint256,address[])":"1bfeb407","getMinAmountsOut(uint256,address[])":"bff272be","getSpender()":"334fc289","getTradeCalldata(address,address,address,uint256,uint256,bytes)":"e171fcab","getUniswapExchangeData(address[],bool)":"2173867a","router()":"f887ea40"},"id":24}