{"abi":[{"type":"constructor","inputs":[{"name":"_components","type":"address[]","internalType":"address[]"},{"name":"_units","type":"int256[]","internalType":"int256[]"},{"name":"_modules","type":"address[]","internalType":"address[]"},{"name":"_controller","type":"address","internalType":"contract IController"},{"name":"_manager","type":"address","internalType":"address"},{"name":"_name","type":"string","internalType":"string"},{"name":"_symbol","type":"string","internalType":"string"}],"stateMutability":"nonpayable"},{"type":"receive","stateMutability":"payable"},{"type":"function","name":"addComponent","inputs":[{"name":"_component","type":"address","internalType":"address"}],"outputs":[],"stateMutability":"nonpayable"},{"type":"function","name":"addExternalPositionModule","inputs":[{"name":"_component","type":"address","internalType":"address"},{"name":"_positionModule","type":"address","internalType":"address"}],"outputs":[],"stateMutability":"nonpayable"},{"type":"function","name":"addModule","inputs":[{"name":"_module","type":"address","internalType":"address"}],"outputs":[],"stateMutability":"nonpayable"},{"type":"function","name":"allowance","inputs":[{"name":"owner","type":"address","internalType":"address"},{"name":"spender","type":"address","internalType":"address"}],"outputs":[{"name":"","type":"uint256","internalType":"uint256"}],"stateMutability":"view"},{"type":"function","name":"approve","inputs":[{"name":"spender","type":"address","internalType":"address"},{"name":"amount","type":"uint256","internalType":"uint256"}],"outputs":[{"name":"","type":"bool","internalType":"bool"}],"stateMutability":"nonpayable"},{"type":"function","name":"balanceOf","inputs":[{"name":"account","type":"address","internalType":"address"}],"outputs":[{"name":"","type":"uint256","internalType":"uint256"}],"stateMutability":"view"},{"type":"function","name":"burn","inputs":[{"name":"_account","type":"address","internalType":"address"},{"name":"_quantity","type":"uint256","internalType":"uint256"}],"outputs":[],"stateMutability":"nonpayable"},{"type":"function","name":"components","inputs":[{"name":"","type":"uint256","internalType":"uint256"}],"outputs":[{"name":"","type":"address","internalType":"address"}],"stateMutability":"view"},{"type":"function","name":"controller","inputs":[],"outputs":[{"name":"","type":"address","internalType":"contract IController"}],"stateMutability":"view"},{"type":"function","name":"decimals","inputs":[],"outputs":[{"name":"","type":"uint8","internalType":"uint8"}],"stateMutability":"view"},{"type":"function","name":"decreaseAllowance","inputs":[{"name":"spender","type":"address","internalType":"address"},{"name":"subtractedValue","type":"uint256","internalType":"uint256"}],"outputs":[{"name":"","type":"bool","internalType":"bool"}],"stateMutability":"nonpayable"},{"type":"function","name":"editDefaultPositionUnit","inputs":[{"name":"_component","type":"address","internalType":"address"},{"name":"_realUnit","type":"int256","internalType":"int256"}],"outputs":[],"stateMutability":"nonpayable"},{"type":"function","name":"editExternalPositionData","inputs":[{"name":"_component","type":"address","internalType":"address"},{"name":"_positionModule","type":"address","internalType":"address"},{"name":"_data","type":"bytes","internalType":"bytes"}],"outputs":[],"stateMutability":"nonpayable"},{"type":"function","name":"editExternalPositionUnit","inputs":[{"name":"_component","type":"address","internalType":"address"},{"name":"_positionModule","type":"address","internalType":"address"},{"name":"_realUnit","type":"int256","internalType":"int256"}],"outputs":[],"stateMutability":"nonpayable"},{"type":"function","name":"editPositionMultiplier","inputs":[{"name":"_newMultiplier","type":"int256","internalType":"int256"}],"outputs":[],"stateMutability":"nonpayable"},{"type":"function","name":"getComponents","inputs":[],"outputs":[{"name":"","type":"address[]","internalType":"address[]"}],"stateMutability":"view"},{"type":"function","name":"getDefaultPositionRealUnit","inputs":[{"name":"_component","type":"address","internalType":"address"}],"outputs":[{"name":"","type":"int256","internalType":"int256"}],"stateMutability":"view"},{"type":"function","name":"getExternalPositionData","inputs":[{"name":"_component","type":"address","internalType":"address"},{"name":"_positionModule","type":"address","internalType":"address"}],"outputs":[{"name":"","type":"bytes","internalType":"bytes"}],"stateMutability":"view"},{"type":"function","name":"getExternalPositionModules","inputs":[{"name":"_component","type":"address","internalType":"address"}],"outputs":[{"name":"","type":"address[]","internalType":"address[]"}],"stateMutability":"view"},{"type":"function","name":"getExternalPositionRealUnit","inputs":[{"name":"_component","type":"address","internalType":"address"},{"name":"_positionModule","type":"address","internalType":"address"}],"outputs":[{"name":"","type":"int256","internalType":"int256"}],"stateMutability":"view"},{"type":"function","name":"getModules","inputs":[],"outputs":[{"name":"","type":"address[]","internalType":"address[]"}],"stateMutability":"view"},{"type":"function","name":"getPositions","inputs":[],"outputs":[{"name":"","type":"tuple[]","internalType":"struct IJPToken.Position[]","components":[{"name":"component","type":"address","internalType":"address"},{"name":"module","type":"address","internalType":"address"},{"name":"unit","type":"int256","internalType":"int256"},{"name":"positionState","type":"uint8","internalType":"uint8"},{"name":"data","type":"bytes","internalType":"bytes"}]}],"stateMutability":"view"},{"type":"function","name":"getTotalComponentRealUnits","inputs":[{"name":"_component","type":"address","internalType":"address"}],"outputs":[{"name":"","type":"int256","internalType":"int256"}],"stateMutability":"view"},{"type":"function","name":"increaseAllowance","inputs":[{"name":"spender","type":"address","internalType":"address"},{"name":"addedValue","type":"uint256","internalType":"uint256"}],"outputs":[{"name":"","type":"bool","internalType":"bool"}],"stateMutability":"nonpayable"},{"type":"function","name":"initializeModule","inputs":[],"outputs":[],"stateMutability":"nonpayable"},{"type":"function","name":"invoke","inputs":[{"name":"_target","type":"address","internalType":"address"},{"name":"_value","type":"uint256","internalType":"uint256"},{"name":"_data","type":"bytes","internalType":"bytes"}],"outputs":[{"name":"_returnValue","type":"bytes","internalType":"bytes"}],"stateMutability":"nonpayable"},{"type":"function","name":"isComponent","inputs":[{"name":"_component","type":"address","internalType":"address"}],"outputs":[{"name":"","type":"bool","internalType":"bool"}],"stateMutability":"view"},{"type":"function","name":"isExternalPositionModule","inputs":[{"name":"_component","type":"address","internalType":"address"},{"name":"_module","type":"address","internalType":"address"}],"outputs":[{"name":"","type":"bool","internalType":"bool"}],"stateMutability":"view"},{"type":"function","name":"isInitializedModule","inputs":[{"name":"_module","type":"address","internalType":"address"}],"outputs":[{"name":"","type":"bool","internalType":"bool"}],"stateMutability":"view"},{"type":"function","name":"isLocked","inputs":[],"outputs":[{"name":"","type":"bool","internalType":"bool"}],"stateMutability":"view"},{"type":"function","name":"isPendingModule","inputs":[{"name":"_module","type":"address","internalType":"address"}],"outputs":[{"name":"","type":"bool","internalType":"bool"}],"stateMutability":"view"},{"type":"function","name":"lock","inputs":[],"outputs":[],"stateMutability":"nonpayable"},{"type":"function","name":"locker","inputs":[],"outputs":[{"name":"","type":"address","internalType":"address"}],"stateMutability":"view"},{"type":"function","name":"manager","inputs":[],"outputs":[{"name":"","type":"address","internalType":"address"}],"stateMutability":"view"},{"type":"function","name":"mint","inputs":[{"name":"_account","type":"address","internalType":"address"},{"name":"_quantity","type":"uint256","internalType":"uint256"}],"outputs":[],"stateMutability":"nonpayable"},{"type":"function","name":"moduleStates","inputs":[{"name":"","type":"address","internalType":"address"}],"outputs":[{"name":"","type":"uint8","internalType":"enum IJPToken.ModuleState"}],"stateMutability":"view"},{"type":"function","name":"modules","inputs":[{"name":"","type":"uint256","internalType":"uint256"}],"outputs":[{"name":"","type":"address","internalType":"address"}],"stateMutability":"view"},{"type":"function","name":"name","inputs":[],"outputs":[{"name":"","type":"string","internalType":"string"}],"stateMutability":"view"},{"type":"function","name":"positionMultiplier","inputs":[],"outputs":[{"name":"","type":"int256","internalType":"int256"}],"stateMutability":"view"},{"type":"function","name":"removeComponent","inputs":[{"name":"_component","type":"address","internalType":"address"}],"outputs":[],"stateMutability":"nonpayable"},{"type":"function","name":"removeExternalPositionModule","inputs":[{"name":"_component","type":"address","internalType":"address"},{"name":"_positionModule","type":"address","internalType":"address"}],"outputs":[],"stateMutability":"nonpayable"},{"type":"function","name":"removeModule","inputs":[{"name":"_module","type":"address","internalType":"address"}],"outputs":[],"stateMutability":"nonpayable"},{"type":"function","name":"removePendingModule","inputs":[{"name":"_module","type":"address","internalType":"address"}],"outputs":[],"stateMutability":"nonpayable"},{"type":"function","name":"setManager","inputs":[{"name":"_manager","type":"address","internalType":"address"}],"outputs":[],"stateMutability":"nonpayable"},{"type":"function","name":"symbol","inputs":[],"outputs":[{"name":"","type":"string","internalType":"string"}],"stateMutability":"view"},{"type":"function","name":"totalSupply","inputs":[],"outputs":[{"name":"","type":"uint256","internalType":"uint256"}],"stateMutability":"view"},{"type":"function","name":"transfer","inputs":[{"name":"recipient","type":"address","internalType":"address"},{"name":"amount","type":"uint256","internalType":"uint256"}],"outputs":[{"name":"","type":"bool","internalType":"bool"}],"stateMutability":"nonpayable"},{"type":"function","name":"transferFrom","inputs":[{"name":"sender","type":"address","internalType":"address"},{"name":"recipient","type":"address","internalType":"address"},{"name":"amount","type":"uint256","internalType":"uint256"}],"outputs":[{"name":"","type":"bool","internalType":"bool"}],"stateMutability":"nonpayable"},{"type":"function","name":"unlock","inputs":[],"outputs":[],"stateMutability":"nonpayable"},{"type":"event","name":"Approval","inputs":[{"name":"owner","type":"address","indexed":true,"internalType":"address"},{"name":"spender","type":"address","indexed":true,"internalType":"address"},{"name":"value","type":"uint256","indexed":false,"internalType":"uint256"}],"anonymous":false},{"type":"event","name":"ComponentAdded","inputs":[{"name":"_component","type":"address","indexed":true,"internalType":"address"}],"anonymous":false},{"type":"event","name":"ComponentRemoved","inputs":[{"name":"_component","type":"address","indexed":true,"internalType":"address"}],"anonymous":false},{"type":"event","name":"DefaultPositionUnitEdited","inputs":[{"name":"_component","type":"address","indexed":true,"internalType":"address"},{"name":"_realUnit","type":"int256","indexed":false,"internalType":"int256"}],"anonymous":false},{"type":"event","name":"ExternalPositionDataEdited","inputs":[{"name":"_component","type":"address","indexed":true,"internalType":"address"},{"name":"_positionModule","type":"address","indexed":true,"internalType":"address"},{"name":"_data","type":"bytes","indexed":false,"internalType":"bytes"}],"anonymous":false},{"type":"event","name":"ExternalPositionUnitEdited","inputs":[{"name":"_component","type":"address","indexed":true,"internalType":"address"},{"name":"_positionModule","type":"address","indexed":true,"internalType":"address"},{"name":"_realUnit","type":"int256","indexed":false,"internalType":"int256"}],"anonymous":false},{"type":"event","name":"Invoked","inputs":[{"name":"_target","type":"address","indexed":true,"internalType":"address"},{"name":"_value","type":"uint256","indexed":true,"internalType":"uint256"},{"name":"_data","type":"bytes","indexed":false,"internalType":"bytes"},{"name":"_returnValue","type":"bytes","indexed":false,"internalType":"bytes"}],"anonymous":false},{"type":"event","name":"ManagerEdited","inputs":[{"name":"_newManager","type":"address","indexed":false,"internalType":"address"},{"name":"_oldManager","type":"address","indexed":false,"internalType":"address"}],"anonymous":false},{"type":"event","name":"ModuleAdded","inputs":[{"name":"_module","type":"address","indexed":true,"internalType":"address"}],"anonymous":false},{"type":"event","name":"ModuleInitialized","inputs":[{"name":"_module","type":"address","indexed":true,"internalType":"address"}],"anonymous":false},{"type":"event","name":"ModuleRemoved","inputs":[{"name":"_module","type":"address","indexed":true,"internalType":"address"}],"anonymous":false},{"type":"event","name":"PendingModuleRemoved","inputs":[{"name":"_module","type":"address","indexed":true,"internalType":"address"}],"anonymous":false},{"type":"event","name":"PositionModuleAdded","inputs":[{"name":"_component","type":"address","indexed":true,"internalType":"address"},{"name":"_positionModule","type":"address","indexed":true,"internalType":"address"}],"anonymous":false},{"type":"event","name":"PositionModuleRemoved","inputs":[{"name":"_component","type":"address","indexed":true,"internalType":"address"},{"name":"_positionModule","type":"address","indexed":true,"internalType":"address"}],"anonymous":false},{"type":"event","name":"PositionMultiplierEdited","inputs":[{"name":"_newMultiplier","type":"int256","indexed":false,"internalType":"int256"}],"anonymous":false},{"type":"event","name":"Transfer","inputs":[{"name":"from","type":"address","indexed":true,"internalType":"address"},{"name":"to","type":"address","indexed":true,"internalType":"address"},{"name":"value","type":"uint256","indexed":false,"internalType":"uint256"}],"anonymous":false}],"bytecode":{"object":"0x60806040523480156200001157600080fd5b5060405162003d2138038062003d21833981016040819052620000349162000476565b8151829082906200004d906003906020850190620001bf565b50805162000063906004906020840190620001bf565b505060058054601260ff1990911617610100600160a81b0319166101006001600160a01b038881169190910291909117909155600680546001600160a01b03191691861691909117905550620000c4620001b2602090811b62001a6e17901c565b600d558651620000dc90600b9060208a019062000244565b5060005b85518110156200014357600160096000888481518110620000fd57fe5b6020908102919091018101516001600160a01b03168252810191909152604001600020805460ff191660018360028111156200013557fe5b0217905550600101620000e0565b5060005b8751811015620001a4578681815181106200015e57fe5b6020026020010151600c60008a84815181106200017757fe5b6020908102919091018101516001600160a01b031682528101919091526040016000205560010162000147565b5050505050505050620005d8565b670de0b6b3a76400005b90565b828054600181600116156101000203166002900490600052602060002090601f016020900481019282601f106200020257805160ff191683800117855562000232565b8280016001018555821562000232579182015b828111156200023257825182559160200191906001019062000215565b5062000240929150620002aa565b5090565b8280548282559060005260206000209081019282156200029c579160200282015b828111156200029c57825182546001600160a01b0319166001600160a01b0390911617825560209092019160019091019062000265565b5062000240929150620002c7565b620001bc91905b80821115620002405760008155600101620002b1565b620001bc91905b80821115620002405780546001600160a01b0319168155600101620002ce565b8051620002fb81620005bf565b92915050565b600082601f83011262000312578081fd5b81516200032962000323826200059f565b62000578565b8181529150602080830190848101818402860182018710156200034b57600080fd5b60005b84811015620003775781516200036481620005bf565b845292820192908201906001016200034e565b505050505092915050565b600082601f83011262000393578081fd5b8151620003a462000323826200059f565b818152915060208083019084810181840286018201871015620003c657600080fd5b60005b848110156200037757815184529282019290820190600101620003c9565b600082601f830112620003f8578081fd5b81516001600160401b038111156200040e578182fd5b602062000424601f8301601f1916820162000578565b925081835284818386010111156200043b57600080fd5b60005b828110156200045b5784810182015184820183015281016200043e565b828111156200046d5760008284860101525b50505092915050565b600080600080600080600060e0888a03121562000491578283fd5b87516001600160401b0380821115620004a8578485fd5b620004b68b838c0162000301565b985060208a0151915080821115620004cc578485fd5b620004da8b838c0162000382565b975060408a0151915080821115620004f0578485fd5b620004fe8b838c0162000301565b96506200050f8b60608c01620002ee565b9550620005208b60808c01620002ee565b945060a08a015191508082111562000536578384fd5b620005448b838c01620003e7565b935060c08a01519150808211156200055a578283fd5b50620005698a828b01620003e7565b91505092959891949750929550565b6040518181016001600160401b03811182821017156200059757600080fd5b604052919050565b60006001600160401b03821115620005b5578081fd5b5060209081020190565b6001600160a01b0381168114620005d557600080fd5b50565b61373980620005e86000396000f3fe6080604052600436106102b25760003560e01c80638ae458da11610175578063b2494df3116100dc578063d7f1b27c11610095578063ea0ee5591161006f578063ea0ee55914610842578063eaf993e114610862578063f77c479114610882578063f83d08ba14610897576102b9565b8063d7f1b27c146107e2578063dd62ed3e14610802578063df5e9b2914610822576102b9565b8063b2494df314610738578063c2de0e9d1461074d578063c5d574fe1461076d578063c75640171461078d578063d0ebdbe7146107ad578063d7b96d4e146107cd576102b9565b8063a457c2d71161012e578063a457c2d71461068e578063a4e2d634146106ae578063a69df4b5146106c3578063a7bdad03146106d8578063a9059cbb146106f8578063acf3f07714610718576102b9565b80638ae458da146105d75780638f6f0332146105f757806395d89b411461061757806399d50d5d1461062c5780639dc29fac1461064e578063a06324611461066e576102b9565b806340c10f191161021957806366cb8d2f116101d257806366cb8d2f146105155780636f86c8971461053557806370a08231146105555780637d96659314610575578063802758601461059557806381b2248a146105b7576102b9565b806340c10f191461045e578063481c6a751461047e5780634e353270146104a05780635230c396146104c057806353bae5f7146104d557806363a90fc1146104f5576102b9565b806323b872dd1161026b57806323b872dd1461038f57806326898fe1146103af5780632ba57d17146103cf578063313ce567146103ef57806335bc4e5214610411578063395093511461043e576102b9565b806306fdde03146102be578063095ea7b3146102e95780630ffe0f1e1461031657806318160ddd1461032d5780631ed86f191461034f57806322ebeba41461036f576102b9565b366102b957005b600080fd5b3480156102ca57600080fd5b506102d36108ac565b6040516102e09190612e0c565b60405180910390f35b3480156102f557600080fd5b50610309610304366004612b88565b610943565b6040516102e09190612dbd565b34801561032257600080fd5b5061032b610961565b005b34801561033957600080fd5b50610342610a4b565b6040516102e09190612e33565b34801561035b57600080fd5b5061032b61036a366004612a59565b610a51565b34801561037b57600080fd5b5061034261038a366004612a74565b610b89565b34801561039b57600080fd5b506103096103aa366004612b48565b610ba4565b3480156103bb57600080fd5b5061032b6103ca366004612aa8565b610c31565b3480156103db57600080fd5b5061032b6103ea366004612b88565b610ccc565b3480156103fb57600080fd5b50610404610d43565b6040516102e091906135f6565b34801561041d57600080fd5b5061043161042c366004612a59565b610d4c565b6040516102e09190612e1f565b34801561044a57600080fd5b50610309610459366004612b88565b610d61565b34801561046a57600080fd5b5061032b610479366004612b88565b610db5565b34801561048a57600080fd5b50610493610dd3565b6040516102e09190612c9e565b3480156104ac57600080fd5b5061032b6104bb366004612a59565b610de2565b3480156104cc57600080fd5b50610342610e90565b3480156104e157600080fd5b506103096104f0366004612a59565b610e96565b34801561050157600080fd5b5061032b610510366004612b0b565b610ec9565b34801561052157600080fd5b50610342610530366004612a59565b610f48565b34801561054157600080fd5b5061032b610550366004612a59565b610f56565b34801561056157600080fd5b50610342610570366004612a59565b610fae565b34801561058157600080fd5b50610309610590366004612a74565b610fc9565b3480156105a157600080fd5b506105aa610fe4565b6040516102e09190612d19565b3480156105c357600080fd5b506104936105d2366004612c14565b6111a1565b3480156105e357600080fd5b506102d36105f2366004612a74565b6111c8565b34801561060357600080fd5b506102d3610612366004612bb2565b6111d4565b34801561062357600080fd5b506102d3611282565b34801561063857600080fd5b506106416112e3565b6040516102e09190612ccc565b34801561065a57600080fd5b5061032b610669366004612b88565b611344565b34801561067a57600080fd5b5061032b610689366004612a59565b61135e565b34801561069a57600080fd5b506103096106a9366004612b88565b611484565b3480156106ba57600080fd5b506103096114f2565b3480156106cf57600080fd5b5061032b6114fb565b3480156106e457600080fd5b506106416106f3366004612a59565b61156b565b34801561070457600080fd5b50610309610713366004612b88565b611576565b34801561072457600080fd5b5061032b610733366004612a74565b61158a565b34801561074457600080fd5b50610641611647565b34801561075957600080fd5b5061032b610768366004612c14565b6116a7565b34801561077957600080fd5b50610493610788366004612c14565b611700565b34801561079957600080fd5b5061032b6107a8366004612a59565b61170d565b3480156107b957600080fd5b5061032b6107c8366004612a59565b6117c7565b3480156107d957600080fd5b50610493611851565b3480156107ee57600080fd5b506103096107fd366004612a59565b611860565b34801561080e57600080fd5b5061034261081d366004612a74565b611869565b34801561082e57600080fd5b5061030961083d366004612a59565b611894565b34801561084e57600080fd5b5061032b61085d366004612a74565b611903565b34801561086e57600080fd5b5061034261087d366004612a59565b6119a7565b34801561088e57600080fd5b50610493611a0e565b3480156108a357600080fd5b5061032b611a22565b60038054604080516020601f60026000196101006001881615020190951694909404938401819004810282018101909252828152606093909290918301828280156109385780601f1061090d57610100808354040283529160200191610938565b820191906000526020600020905b81548152906001019060200180831161091b57829003601f168201915b505050505090505b90565b6000610957610950611a7a565b8484611a7e565b5060015b92915050565b600a5460ff161561098d5760405162461bcd60e51b8152600401610984906134d5565b60405180910390fd5b60013360009081526009602052604090205460ff1660028111156109ad57fe5b146109ca5760405162461bcd60e51b815260040161098490613565565b33600081815260096020526040808220805460ff19166002179055600880546001810182559083527ff3f7a9fe364faab93b216da50a3214154f22a0a2b415b23a84c8169e8b636ee30180546001600160a01b03191684179055517f27b541a16df0902e262f34789782092ab25125513b8ed73608e802951771b9289190a2565b60025490565b610a59611b32565b6001600160a01b03811660009081526009602052604081205460ff166002811115610a8057fe5b14610a9d5760405162461bcd60e51b815260040161098490612f08565b6005546040516342f6e38960e01b81526101009091046001600160a01b0316906342f6e38990610ad1908490600401612c9e565b60206040518083038186803b158015610ae957600080fd5b505afa158015610afd573d6000803e3d6000fd5b505050506040513d601f19601f82011682018060405250810190610b219190612bf4565b610b3d5760405162461bcd60e51b81526004016109849061321c565b6001600160a01b038116600081815260096020526040808220805460ff19166001179055517fead6a006345da1073a106d5f32372d2d2204f46cb0b4bca8f5ebafcbbed12b8a9190a250565b6000610b9d610b988484611b5e565b611b8d565b9392505050565b6000610bb1848484611ba4565b610c2784610bbd611a7a565b610c22856040518060600160405280602881526020016136b7602891396001600160a01b038a16600090815260016020526040812090610bfb611a7a565b6001600160a01b03168152602081019190915260400160002054919063ffffffff611cc516565b611a7e565b5060019392505050565b610c39611cf1565b610c41611dce565b6001600160a01b038085166000908152600c6020908152604080832093871683526002909301905220610c789060010183836128e3565b50826001600160a01b0316846001600160a01b03167fb373eedb8e9038a2dcba31f06b2735887c1a904125e5c9f0021ba41ed972318e8484604051610cbe929190612dc8565b60405180910390a350505050565b610cd4611cf1565b610cdc611dce565b6000610ce782611e03565b6001600160a01b0384166000818152600c60205260409081902083905551919250907f8133e2bf34edab764b55c59d1d41f9df637e7c22828bb6b0a9d55b429d008a9790610d36908590612e33565b60405180910390a2505050565b60055460ff1690565b60096020526000908152604090205460ff1681565b6000610957610d6e611a7a565b84610c228560016000610d7f611a7a565b6001600160a01b03908116825260208083019390935260409182016000908120918c16815292529020549063ffffffff611e7b16565b610dbd611cf1565b610dc5611dce565b610dcf8282611ea0565b5050565b6006546001600160a01b031681565b610dea611cf1565b610df2611dce565b610dfb81611894565b15610e185760405162461bcd60e51b8152600401610984906131a6565b600b805460018101825560009182527f0175b7a638427703f0dbe7bb9bbf987a2551717b34e79f33b5b1008d1fa01db90180546001600160a01b0319166001600160a01b03841690811790915560405190917f76da6cf8b40dd2b2c223a5956831e0ff4e75522538a86782108a0bbe1577e29891a250565b600d5481565b600060015b6001600160a01b03831660009081526009602052604090205460ff166002811115610ec257fe5b1492915050565b610ed1611cf1565b610ed9611dce565b6000610ee482611e03565b6001600160a01b038086166000818152600c602090815260408083209489168084526002909501909152908190208490555192935090917f81a422e27f503e1b92cdb616a6e653aac10a8e0c3fa6832a58dc616c080fd7bd90610cbe908690612e33565b600061095b610b9883611f6c565b610f5e611cf1565b610f66611dce565b610f77600b8263ffffffff611f8716565b6040516001600160a01b038216907fc605d0bf97f9b921340106a2e59f9428d5eb9039b16866159e0cdd2bf8e963df90600090a250565b6001600160a01b031660009081526020819052604090205490565b6000610b9d82610fd8856120b4565b9063ffffffff61212d16565b606080610fef612143565b67ffffffffffffffff8111801561100557600080fd5b5060405190808252806020026020018201604052801561103f57816020015b61102c61295d565b8152602001906001900390816110245790505b5090506000805b600b54811015611199576000600b828154811061105f57fe5b60009182526020822001546001600160a01b0316915061107e82611f6c565b13156110ed576040805160a0810182526001600160a01b0383168152600060208201529081016110ad83610f48565b8152602001600060ff168152602001604051806020016040528060008152508152508484815181106110db57fe5b60209081029190910101526001909201915b60606110f8826120b4565b905060005b815181101561118e57600082828151811061111457fe5b602002602001015190506040518060a00160405280856001600160a01b03168152602001826001600160a01b031681526020016111518684610b89565b81526001602082015260400161116786846121c8565b81525087878151811061117657fe5b602090810291909101015250600194850194016110fd565b505050600101611046565b509091505090565b600881815481106111ae57fe5b6000918252602090912001546001600160a01b0316905081565b6060610b9d83836121c8565b60606111de611cf1565b6111e6611dce565b61123183838080601f01602080910402602001604051908101604052809392919081815260200183838082843760009201919091525050506001600160a01b03881691905086612286565b905083856001600160a01b03167f2a936dbabeaea30adc1ddad138b1958497988474bef8b09a29411f0105ab8ab285858560405161127193929190612ddc565b60405180910390a35b949350505050565b60048054604080516020601f60026000196101006001881615020190951694909404938401819004810282018101909252828152606093909290918301828280156109385780601f1061090d57610100808354040283529160200191610938565b6060600b80548060200260200160405190810160405280929190818152602001828054801561093857602002820191906000526020600020905b81546001600160a01b0316815260019091019060200180831161131d575050505050905090565b61134c611cf1565b611354611dce565b610dcf82826122ac565b611366611b32565b600a5460ff16156113895760405162461bcd60e51b8152600401610984906134d5565b60026001600160a01b03821660009081526009602052604090205460ff1660028111156113b257fe5b146113cf5760405162461bcd60e51b815260040161098490613086565b806001600160a01b031663847ef08d6040518163ffffffff1660e01b8152600401600060405180830381600087803b15801561140a57600080fd5b505af115801561141e573d6000803e3d6000fd5b505050506001600160a01b0381166000908152600960205260409020805460ff1916905561144d600882611f87565b6040516001600160a01b038216907f0a1ee69f55c33d8467c69ca59ce2007a737a88603d75392972520bf67cb513b890600090a250565b6000610957611491611a7a565b84610c22856040518060600160405280602581526020016136df60259139600160006114bb611a7a565b6001600160a01b03908116825260208083019390935260409182016000908120918d1681529252902054919063ffffffff611cc516565b600a5460ff1681565b611503611cf1565b600a5460ff166115255760405162461bcd60e51b81526004016109849061329a565b6007546001600160a01b0316331461154f5760405162461bcd60e51b81526004016109849061332a565b600780546001600160a01b0319169055600a805460ff19169055565b606061095b826120b4565b6000610957611583611a7a565b8484611ba4565b611592611cf1565b61159a611dce565b6001600160a01b0382166000908152600c602052604090206115c5906001018263ffffffff611f8716565b6001600160a01b038083166000908152600c602090815260408083209385168352600290930190529081208181559061160160018301826129a1565b5050806001600160a01b0316826001600160a01b03167f5d0275f68d583838a7e2be68e3ef8ac2c1f9d4eeaa4b223360f4cd093a160d7560405160405180910390a35050565b60606008805480602002602001604051908101604052809291908181526020018280548015610938576020028201919060005260206000209081546001600160a01b0316815260019091019060200180831161131d575050505050905090565b6116af611cf1565b6116b7611dce565b6116c08161238e565b600d8190556040517fc4e78b3245dc105eefced18655b978e194ff858545a1080f2888dc3b6ae8df0a906116f5908390612e33565b60405180910390a150565b600b81815481106111ae57fe5b611715611b32565b600a5460ff16156117385760405162461bcd60e51b8152600401610984906134d5565b60016001600160a01b03821660009081526009602052604090205460ff16600281111561176157fe5b1461177e5760405162461bcd60e51b815260040161098490613565565b6001600160a01b038116600081815260096020526040808220805460ff19169055517fd6b18042563148f38d728c1c4d339ffd515b632d0ad2e1833b822412f3f4d8779190a250565b6117cf611b32565b600a5460ff16156117f25760405162461bcd60e51b8152600401610984906134d5565b600680546001600160a01b038381166001600160a01b03198316179092556040519116907f43fcfef38622d6a5b118be09c27a6ed8cbdbfca21f0ea9245412ce8031c0423c906118459084908490612cb2565b60405180910390a15050565b6007546001600160a01b031681565b60006002610e9b565b6001600160a01b03918216600090815260016020908152604080832093909416825291909152205490565b600061095b82600b8054806020026020016040519081016040528092919081815260200182805480156118f057602002820191906000526020600020905b81546001600160a01b031681526001909101906020018083116118d2575b505050505061212d90919063ffffffff16565b61190b611cf1565b611913611dce565b61191d8282610fc9565b1561193a5760405162461bcd60e51b815260040161098490612eab565b6001600160a01b038281166000818152600c60209081526040808320600190810180549182018155845291832090910180546001600160a01b0319169486169485179055517ff71324fa78e1894b364a1fc8d0535c4208f28c7b380f752afe00c8ce386023fb9190a35050565b6000806119b383610f48565b905060606119c0846120b4565b905060005b8151811015611a05576119fb6119ee868484815181106119e157fe5b6020026020010151610b89565b849063ffffffff6123c916565b92506001016119c5565b50909392505050565b60055461010090046001600160a01b031681565b611a2a611cf1565b600a5460ff1615611a4d5760405162461bcd60e51b815260040161098490612e3c565b600780546001600160a01b03191633179055600a805460ff19166001179055565b670de0b6b3a764000090565b3390565b6001600160a01b038316611aa45760405162461bcd60e51b8152600401610984906133ce565b6001600160a01b038216611aca5760405162461bcd60e51b815260040161098490612f3f565b6001600160a01b0380841660008181526001602090815260408083209487168084529490915290819020849055517f8c5be1e5ebec7d5bd14f71427d1e84f3dd0314c0f7b2291e5b200ac8c7c3b92590611b25908590612e33565b60405180910390a3505050565b6006546001600160a01b03163314611b5c5760405162461bcd60e51b815260040161098490613501565b565b6001600160a01b039182166000908152600c602090815260408083209390941682526002909201909152205490565b600061095b600d548361240f90919063ffffffff16565b6001600160a01b038316611bca5760405162461bcd60e51b815260040161098490613352565b6001600160a01b038216611bf05760405162461bcd60e51b815260040161098490612e68565b611bfb838383612432565b611c3e81604051806060016040528060268152602001613668602691396001600160a01b038616600090815260208190526040902054919063ffffffff611cc516565b6001600160a01b038085166000908152602081905260408082209390935590841681522054611c73908263ffffffff611e7b16565b6001600160a01b0380841660008181526020819052604090819020939093559151908516907fddf252ad1be2c89b69c2b068fc378daa952ba7f163c4a11628f55a4df523b3ef90611b25908590612e33565b60008184841115611ce95760405162461bcd60e51b81526004016109849190612e0c565b505050900390565b60023360009081526009602052604090205460ff166002811115611d1157fe5b14611d2e5760405162461bcd60e51b81526004016109849061312e565b6005546040516342f6e38960e01b81526101009091046001600160a01b0316906342f6e38990611d62903390600401612c9e565b60206040518083038186803b158015611d7a57600080fd5b505afa158015611d8e573d6000803e3d6000fd5b505050506040513d601f19601f82011682018060405250810190611db29190612bf4565b611b5c5760405162461bcd60e51b815260040161098490613491565b600a5460ff1615611b5c576007546001600160a01b03163314611b5c5760405162461bcd60e51b8152600401610984906130b4565b600080611e1b600d548461243790919063ffffffff16565b9050600083138015611e2b575080155b15611e485760405162461bcd60e51b8152600401610984906131d5565b600083138015611e5e5750611e5c81611b8d565b155b1561095b5760405162461bcd60e51b815260040161098490612fb8565b600082820183811015610b9d5760405162461bcd60e51b815260040161098490612f81565b6001600160a01b038216611ec65760405162461bcd60e51b815260040161098490613595565b611ed260008383612432565b600254611ee5908263ffffffff611e7b16565b6002556001600160a01b038216600090815260208190526040902054611f11908263ffffffff611e7b16565b6001600160a01b0383166000818152602081905260408082209390935591519091907fddf252ad1be2c89b69c2b068fc378daa952ba7f163c4a11628f55a4df523b3ef90611f60908590612e33565b60405180910390a35050565b6001600160a01b03166000908152600c602052604090205490565b600080611fed84805480602002602001604051908101604052809291908181526020018280548015611fe257602002820191906000526020600020905b81546001600160a01b03168152600190910190602001808311611fc4575b50505050508461245a565b915091508061200e5760405162461bcd60e51b815260040161098490612ed9565b8354600019018281146120805784818154811061202757fe5b9060005260206000200160009054906101000a90046001600160a01b031685848154811061205157fe5b9060005260206000200160006101000a8154816001600160a01b0302191690836001600160a01b031602179055505b8480548061208a57fe5b600082815260209020810160001990810180546001600160a01b0319169055019055505b50505050565b6001600160a01b0381166000908152600c602090815260409182902060010180548351818402810184019094528084526060939283018282801561212157602002820191906000526020600020905b81546001600160a01b03168152600190910190602001808311612103575b50505050509050919050565b60008061213a848461245a565b95945050505050565b600080805b600b548110156121c2576000600b828154811061216157fe5b60009182526020822001546001600160a01b0316915061218082611f6c565b131561218d576001909201915b6060612198826120b4565b8051909150156121b85780516121b590859063ffffffff611e7b16565b93505b5050600101612148565b50905090565b6001600160a01b038281166000908152600c60209081526040808320938516835260029384018252918290206001908101805484519281161561010002600019011694909404601f8101839004830282018301909352828152606093909290918301828280156122795780601f1061224e57610100808354040283529160200191612279565b820191906000526020600020905b81548152906001019060200180831161225c57829003601f168201915b5050505050905092915050565b606061127a84848460405180606001604052806029815260200161368e602991396124c0565b6001600160a01b0382166122d25760405162461bcd60e51b8152600401610984906132e9565b6122de82600083612432565b61232181604051806060016040528060228152602001613646602291396001600160a01b038516600090815260208190526040902054919063ffffffff611cc516565b6001600160a01b03831660009081526020819052604090205560025461234d908263ffffffff6124ee16565b6002556040516000906001600160a01b038416907fddf252ad1be2c89b69c2b068fc378daa952ba7f163c4a11628f55a4df523b3ef90611f60908590612e33565b6000612398612530565b905060006123ac828463ffffffff61240f16565b13610dcf5760405162461bcd60e51b815260040161098490613397565b60008282018183128015906123de5750838112155b806123f357506000831280156123f357508381125b610b9d5760405162461bcd60e51b815260040161098490612fff565b6000610b9d612424848463ffffffff61261a16565b670de0b6b3a7640000612685565b505050565b6000610b9d61245484670de0b6b3a764000063ffffffff61261a16565b83612685565b81516000908190815b818110156124ad57846001600160a01b031686828151811061248157fe5b60200260200101516001600160a01b031614156124a5579250600191506124b99050565b600101612463565b50600019600092509250505b9250929050565b6060824710156124e25760405162461bcd60e51b815260040161098490613040565b61213a85858585612713565b6000610b9d83836040518060400160405280601e81526020017f536166654d6174683a207375627472616374696f6e206f766572666c6f770000815250611cc5565b6000600019815b600b5481101561260a576000600b828154811061255057fe5b60009182526020822001546001600160a01b0316915061257761257283611f6c565b6127d7565b905060008111801561258857508381105b15612591578093505b606061259c836120b4565b905060005b81518110156125fa5760008282815181106125b857fe5b6020026020010151905060006125d66125d18784611b5e565b6127fd565b90506000811180156125e757508781105b156125f0578097505b50506001016125a1565b5050600190920191506125379050565b5061261481612821565b91505090565b6000826126295750600061095b565b8260001914801561263d5750600160ff1b82145b1561265a5760405162461bcd60e51b815260040161098490613253565b8282028284828161266757fe5b0514610b9d5760405162461bcd60e51b815260040161098490613253565b6000816126a45760405162461bcd60e51b8152600401610984906135cc565b600160ff1b831415806126b957508160001914155b6126d55760405162461bcd60e51b8152600401610984906132c2565b60006126e7848463ffffffff61284616565b9050600083851812801561270357508284816126ff57fe5b0715155b15610b9d57600019019392505050565b606061271e856128aa565b61273a5760405162461bcd60e51b815260040161098490613412565b60006060866001600160a01b031685876040516127579190612c82565b60006040518083038185875af1925050503d8060008114612794576040519150601f19603f3d011682016040523d82523d6000602084013e612799565b606091505b509150915081156127ad57915061127a9050565b8051156127bd5780518082602001fd5b8360405162461bcd60e51b81526004016109849190612e0c565b6000808212156127f95760405162461bcd60e51b8152600401610984906130f9565b5090565b60008082121561281857612813826000036127d7565b61095b565b61095b826127d7565b6000600160ff1b82106127f95760405162461bcd60e51b815260040161098490613449565b6000816128655760405162461bcd60e51b815260040161098490613530565b816000191480156128795750600160ff1b83145b156128965760405162461bcd60e51b815260040161098490613165565b60008284816128a157fe5b05949350505050565b6000813f7fc5d2460186f7233c927e7db2dcc703c0e500b653ca82273b7bfad8045d85a47081811480159061127a575050151592915050565b828054600181600116156101000203166002900490600052602060002090601f016020900481019282601f106129245782800160ff19823516178555612951565b82800160010185558215612951579182015b82811115612951578235825591602001919060010190612936565b506127f99291506129e8565b6040518060a0016040528060006001600160a01b0316815260200160006001600160a01b0316815260200160008152602001600060ff168152602001606081525090565b50805460018160011615610100020316600290046000825580601f106129c757506129e5565b601f0160209004906000526020600020908101906129e591906129e8565b50565b61094091905b808211156127f957600081556001016129ee565b80356001600160a01b038116811461095b57600080fd5b60008083601f840112612a2a578182fd5b50813567ffffffffffffffff811115612a41578182fd5b6020830191508360208285010111156124b957600080fd5b600060208284031215612a6a578081fd5b610b9d8383612a02565b60008060408385031215612a86578081fd5b612a908484612a02565b9150612a9f8460208501612a02565b90509250929050565b60008060008060608587031215612abd578182fd5b8435612ac881613630565b93506020850135612ad881613630565b9250604085013567ffffffffffffffff811115612af3578283fd5b612aff87828801612a19565b95989497509550505050565b600080600060608486031215612b1f578283fd5b612b298585612a02565b9250612b388560208601612a02565b9150604084013590509250925092565b600080600060608486031215612b5c578283fd5b8335612b6781613630565b92506020840135612b7781613630565b929592945050506040919091013590565b60008060408385031215612b9a578182fd5b612ba48484612a02565b946020939093013593505050565b60008060008060608587031215612bc7578384fd5b8435612bd281613630565b935060208501359250604085013567ffffffffffffffff811115612af3578283fd5b600060208284031215612c05578081fd5b81518015158114610b9d578182fd5b600060208284031215612c25578081fd5b5035919050565b60008284528282602086013780602084860101526020601f19601f85011685010190509392505050565b60008151808452612c6e816020860160208601613604565b601f01601f19169290920160200192915050565b60008251612c94818460208701613604565b9190910192915050565b6001600160a01b0391909116815260200190565b6001600160a01b0392831681529116602082015260400190565b6020808252825182820181905260009190848201906040850190845b81811015612d0d5783516001600160a01b031683529284019291840191600101612ce8565b50909695505050505050565b60208082528251828201819052600091906040908185019080840286018301878501865b83811015612daf57888303603f19018552815180516001600160a01b039081168552888201511688850152868101518785015260608082015160ff169085015260808082015160a08287018190529190612d9983880182612c56565b988b019896505050928801925050600101612d3d565b509098975050505050505050565b901515815260200190565b60006020825261127a602083018486612c2c565b600060408252612df0604083018587612c2c565b8281036020840152612e028185612c56565b9695505050505050565b600060208252610b9d6020830184612c56565b6020810160038310612e2d57fe5b91905290565b90815260200190565b602080825260129082015271135d5cdd081b9bdd081899481b1bd8dad95960721b604082015260600190565b60208082526023908201527f45524332303a207472616e7366657220746f20746865207a65726f206164647260408201526265737360e81b606082015260800190565b602080825260149082015273135bd91d5b1948185b1c9958591e48185919195960621b604082015260600190565b60208082526015908201527420b2323932b9b9903737ba1034b71030b93930bc9760591b604082015260600190565b60208082526018908201527f4d6f64756c65206d757374206e6f742062652061646465640000000000000000604082015260600190565b60208082526022908201527f45524332303a20617070726f766520746f20746865207a65726f206164647265604082015261737360f01b606082015260800190565b6020808252601b908201527f536166654d6174683a206164646974696f6e206f766572666c6f770000000000604082015260600190565b60208082526027908201527f5669727475616c20746f205265616c20756e697420636f6e76657273696f6e206040820152661a5b9d985b1a5960ca1b606082015260800190565b60208082526021908201527f5369676e6564536166654d6174683a206164646974696f6e206f766572666c6f6040820152607760f81b606082015260800190565b60208082526026908201527f416464726573733a20696e73756666696369656e742062616c616e636520666f6040820152651c8818d85b1b60d21b606082015260800190565b602080825260149082015273135bd91d5b19481b5d5cdd08189948185919195960621b604082015260600190565b60208082526025908201527f5768656e206c6f636b65642c206f6e6c7920746865206c6f636b65722063616e6040820152640818d85b1b60da1b606082015260800190565b6020808252818101527f53616665436173743a2076616c7565206d75737420626520706f736974697665604082015260600190565b60208082526018908201527f4f6e6c7920746865206d6f64756c652063616e2063616c6c0000000000000000604082015260600190565b60208082526021908201527f5369676e6564536166654d6174683a206469766973696f6e206f766572666c6f6040820152607760f81b606082015260800190565b602080825260159082015274135d5cdd081b9bdd0818994818dbdb5c1bdb995b9d605a1b604082015260600190565b60208082526027908201527f5265616c20746f205669727475616c20756e697420636f6e76657273696f6e206040820152661a5b9d985b1a5960ca1b606082015260800190565b6020808252601d908201527f4d75737420626520656e61626c6564206f6e20436f6e74726f6c6c6572000000604082015260600190565b60208082526027908201527f5369676e6564536166654d6174683a206d756c7469706c69636174696f6e206f604082015266766572666c6f7760c81b606082015260800190565b6020808252600e908201526d135d5cdd081899481b1bd8dad95960921b604082015260600190565b6020808252600d908201526c125b9d985b1a59081a5b9c1d5d609a1b604082015260600190565b60208082526021908201527f45524332303a206275726e2066726f6d20746865207a65726f206164647265736040820152607360f81b606082015260800190565b6020808252600e908201526d26bab9ba103132903637b1b5b2b960911b604082015260600190565b60208082526025908201527f45524332303a207472616e736665722066726f6d20746865207a65726f206164604082015264647265737360d81b606082015260800190565b60208082526018908201527f4e6577206d756c7469706c69657220746f6f20736d616c6c0000000000000000604082015260600190565b60208082526024908201527f45524332303a20617070726f76652066726f6d20746865207a65726f206164646040820152637265737360e01b606082015260800190565b6020808252601d908201527f416464726573733a2063616c6c20746f206e6f6e2d636f6e7472616374000000604082015260600190565b60208082526028908201527f53616665436173743a2076616c756520646f65736e27742066697420696e2061604082015267371034b73a191a9b60c11b606082015260800190565b60208082526024908201527f4d6f64756c65206d75737420626520656e61626c6564206f6e20636f6e74726f604082015263363632b960e11b606082015260800190565b60208082526012908201527113db9b1e481dda195b881d5b9b1bd8dad95960721b604082015260600190565b60208082526015908201527413db9b1e481b585b9859d95c8818d85b8818d85b1b605a1b604082015260600190565b6020808252818101527f5369676e6564536166654d6174683a206469766973696f6e206279207a65726f604082015260600190565b6020808252601690820152754d6f64756c65206d7573742062652070656e64696e6760501b604082015260600190565b6020808252601f908201527f45524332303a206d696e7420746f20746865207a65726f206164647265737300604082015260600190565b60208082526010908201526f043616e742064697669646520627920360841b604082015260600190565b60ff91909116815260200190565b60005b8381101561361f578181015183820152602001613607565b838111156120ae5750506000910152565b6001600160a01b03811681146129e557600080fdfe45524332303a206275726e20616d6f756e7420657863656564732062616c616e636545524332303a207472616e7366657220616d6f756e7420657863656564732062616c616e6365416464726573733a206c6f772d6c6576656c2063616c6c20776974682076616c7565206661696c656445524332303a207472616e7366657220616d6f756e74206578636565647320616c6c6f77616e636545524332303a2064656372656173656420616c6c6f77616e63652062656c6f77207a65726fa26469706673582212203898a085ec163d7cfde12de2b866973bb89dbf5865427777a6729ea8686a7a8464736f6c634300060a0033","linkReferences":{}},"methodIdentifiers":{"addComponent(address)":"4e353270","addExternalPositionModule(address,address)":"ea0ee559","addModule(address)":"1ed86f19","allowance(address,address)":"dd62ed3e","approve(address,uint256)":"095ea7b3","balanceOf(address)":"70a08231","burn(address,uint256)":"9dc29fac","components(uint256)":"c5d574fe","controller()":"f77c4791","decimals()":"313ce567","decreaseAllowance(address,uint256)":"a457c2d7","editDefaultPositionUnit(address,int256)":"2ba57d17","editExternalPositionData(address,address,bytes)":"26898fe1","editExternalPositionUnit(address,address,int256)":"63a90fc1","editPositionMultiplier(int256)":"c2de0e9d","getComponents()":"99d50d5d","getDefaultPositionRealUnit(address)":"66cb8d2f","getExternalPositionData(address,address)":"8ae458da","getExternalPositionModules(address)":"a7bdad03","getExternalPositionRealUnit(address,address)":"22ebeba4","getModules()":"b2494df3","getPositions()":"80275860","getTotalComponentRealUnits(address)":"eaf993e1","increaseAllowance(address,uint256)":"39509351","initializeModule()":"0ffe0f1e","invoke(address,uint256,bytes)":"8f6f0332","isComponent(address)":"df5e9b29","isExternalPositionModule(address,address)":"7d966593","isInitializedModule(address)":"d7f1b27c","isLocked()":"a4e2d634","isPendingModule(address)":"53bae5f7","lock()":"f83d08ba","locker()":"d7b96d4e","manager()":"481c6a75","mint(address,uint256)":"40c10f19","moduleStates(address)":"35bc4e52","modules(uint256)":"81b2248a","name()":"06fdde03","positionMultiplier()":"5230c396","removeComponent(address)":"6f86c897","removeExternalPositionModule(address,address)":"acf3f077","removeModule(address)":"a0632461","removePendingModule(address)":"c7564017","setManager(address)":"d0ebdbe7","symbol()":"95d89b41","totalSupply()":"18160ddd","transfer(address,uint256)":"a9059cbb","transferFrom(address,address,uint256)":"23b872dd","unlock()":"a69df4b5"},"id":21}