{"abi":[{"type":"constructor","inputs":[{"name":"_controller","type":"address","internalType":"contract IController"},{"name":"_weth","type":"address","internalType":"contract IWETH"}],"stateMutability":"nonpayable"},{"type":"function","name":"controller","inputs":[],"outputs":[{"name":"","type":"address","internalType":"contract IController"}],"stateMutability":"view"},{"type":"function","name":"exchangeInfo","inputs":[{"name":"","type":"address","internalType":"contract IERC20"}],"outputs":[{"name":"","type":"string","internalType":"string"}],"stateMutability":"view"},{"type":"function","name":"getAndValidateAdapter","inputs":[{"name":"_integrationName","type":"string","internalType":"string"}],"outputs":[{"name":"","type":"address","internalType":"address"}],"stateMutability":"view"},{"type":"function","name":"getRequiredComponentIssuanceUnits","inputs":[{"name":"_jpToken","type":"address","internalType":"contract IJPToken"},{"name":"_quantity","type":"uint256","internalType":"uint256"},{"name":"_isIssue","type":"bool","internalType":"bool"}],"outputs":[{"name":"","type":"address[]","internalType":"address[]"},{"name":"","type":"uint256[]","internalType":"uint256[]"}],"stateMutability":"view"},{"type":"function","name":"initialize","inputs":[{"name":"_jpToken","type":"address","internalType":"contract IJPToken"},{"name":"_preIssueHook","type":"address","internalType":"contract IManagerIssuanceHook"}],"outputs":[],"stateMutability":"nonpayable"},{"type":"function","name":"issueWithEther2","inputs":[{"name":"_jpToken","type":"address","internalType":"contract IJPToken"},{"name":"_minjpTokenRec","type":"uint256","internalType":"uint256"},{"name":"_midTokens","type":"address[]","internalType":"address[]"},{"name":"_weightings","type":"uint256[]","internalType":"uint256[]"},{"name":"_to","type":"address","internalType":"address"},{"name":"_returnDust","type":"bool","internalType":"bool"}],"outputs":[],"stateMutability":"payable"},{"type":"function","name":"issueWithSingleToken2","inputs":[{"name":"_jpToken","type":"address","internalType":"contract IJPToken"},{"name":"_issueToken","type":"address","internalType":"address"},{"name":"_issueTokenQuantity","type":"uint256","internalType":"uint256"},{"name":"_minjpTokenRec","type":"uint256","internalType":"uint256"},{"name":"_midTokens","type":"address[]","internalType":"address[]"},{"name":"_weightings","type":"uint256[]","internalType":"uint256[]"},{"name":"_to","type":"address","internalType":"address"},{"name":"_returnDust","type":"bool","internalType":"bool"}],"outputs":[],"stateMutability":"nonpayable"},{"type":"function","name":"managerIssuanceHook","inputs":[{"name":"","type":"address","internalType":"contract IJPToken"}],"outputs":[{"name":"","type":"address","internalType":"contract IManagerIssuanceHook"}],"stateMutability":"view"},{"type":"function","name":"owner","inputs":[],"outputs":[{"name":"","type":"address","internalType":"address"}],"stateMutability":"view"},{"type":"function","name":"redeemToSingleToken","inputs":[{"name":"_jpToken","type":"address","internalType":"contract IJPToken"},{"name":"_jpTokenQuantity","type":"uint256","internalType":"uint256"},{"name":"_redeemToken","type":"address","internalType":"address"},{"name":"_midTokens","type":"address[]","internalType":"address[]"},{"name":"_to","type":"address","internalType":"address"},{"name":"_minRedeemTokenToRec","type":"uint256","internalType":"uint256"}],"outputs":[],"stateMutability":"nonpayable"},{"type":"function","name":"removeModule","inputs":[],"outputs":[],"stateMutability":"nonpayable"},{"type":"function","name":"renounceOwnership","inputs":[],"outputs":[],"stateMutability":"nonpayable"},{"type":"function","name":"setExchanges","inputs":[{"name":"_components","type":"address[]","internalType":"address[]"},{"name":"_exchangeNames","type":"string[]","internalType":"string[]"}],"outputs":[],"stateMutability":"nonpayable"},{"type":"function","name":"setWrapAdapters","inputs":[{"name":"_components","type":"address[]","internalType":"address[]"},{"name":"_wrapAdapterNames","type":"string[]","internalType":"string[]"},{"name":"_underlyingTokens","type":"address[]","internalType":"address[]"}],"outputs":[],"stateMutability":"nonpayable"},{"type":"function","name":"transferOwnership","inputs":[{"name":"newOwner","type":"address","internalType":"address"}],"outputs":[],"stateMutability":"nonpayable"},{"type":"function","name":"weth","inputs":[],"outputs":[{"name":"","type":"address","internalType":"contract IWETH"}],"stateMutability":"view"},{"type":"function","name":"wrapInfo","inputs":[{"name":"","type":"address","internalType":"contract IERC20"}],"outputs":[{"name":"wrapAdapterName","type":"string","internalType":"string"},{"name":"underlyingToken","type":"address","internalType":"address"}],"stateMutability":"view"},{"type":"event","name":"AssetExchangeExecutionParamUpdated","inputs":[{"name":"_component","type":"address","indexed":true,"internalType":"address"},{"name":"_newExchangeName","type":"string","indexed":false,"internalType":"string"}],"anonymous":false},{"type":"event","name":"AssetWrapExecutionParamUpdated","inputs":[{"name":"_component","type":"address","indexed":true,"internalType":"address"},{"name":"_newWrapAdapterName","type":"string","indexed":false,"internalType":"string"},{"name":"_newUnderlyingToken","type":"address","indexed":false,"internalType":"address"}],"anonymous":false},{"type":"event","name":"ComponentExchanged","inputs":[{"name":"_jpToken","type":"address","indexed":true,"internalType":"contract IJPToken"},{"name":"_sendToken","type":"address","indexed":true,"internalType":"address"},{"name":"_receiveToken","type":"address","indexed":true,"internalType":"address"},{"name":"_exchangeAdapter","type":"address","indexed":false,"internalType":"contract IExchangeAdapter"},{"name":"_totalSendAmount","type":"uint256","indexed":false,"internalType":"uint256"},{"name":"_totalReceiveAmount","type":"uint256","indexed":false,"internalType":"uint256"}],"anonymous":false},{"type":"event","name":"ComponentUnwrapped","inputs":[{"name":"_jpToken","type":"address","indexed":true,"internalType":"contract IJPToken"},{"name":"_underlyingToken","type":"address","indexed":true,"internalType":"address"},{"name":"_wrappedToken","type":"address","indexed":true,"internalType":"address"},{"name":"_underlyingQuantity","type":"uint256","indexed":false,"internalType":"uint256"},{"name":"_wrappedQuantity","type":"uint256","indexed":false,"internalType":"uint256"},{"name":"_integrationName","type":"string","indexed":false,"internalType":"string"}],"anonymous":false},{"type":"event","name":"ComponentWrapped","inputs":[{"name":"_jpToken","type":"address","indexed":true,"internalType":"contract IJPToken"},{"name":"_underlyingToken","type":"address","indexed":true,"internalType":"address"},{"name":"_wrappedToken","type":"address","indexed":true,"internalType":"address"},{"name":"_underlyingQuantity","type":"uint256","indexed":false,"internalType":"uint256"},{"name":"_wrappedQuantity","type":"uint256","indexed":false,"internalType":"uint256"},{"name":"_integrationName","type":"string","indexed":false,"internalType":"string"}],"anonymous":false},{"type":"event","name":"OwnershipTransferred","inputs":[{"name":"previousOwner","type":"address","indexed":true,"internalType":"address"},{"name":"newOwner","type":"address","indexed":true,"internalType":"address"}],"anonymous":false},{"type":"event","name":"jpTokenIssued","inputs":[{"name":"_jpToken","type":"address","indexed":true,"internalType":"address"},{"name":"_issuer","type":"address","indexed":false,"internalType":"address"},{"name":"_to","type":"address","indexed":false,"internalType":"address"},{"name":"_hookContract","type":"address","indexed":false,"internalType":"address"},{"name":"_JPMintQuantity","type":"uint256","indexed":false,"internalType":"uint256"},{"name":"_issuedTokenReturned","type":"uint256","indexed":false,"internalType":"uint256"}],"anonymous":false},{"type":"event","name":"jpTokenRedeemed","inputs":[{"name":"_jpToken","type":"address","indexed":true,"internalType":"address"},{"name":"_redeemer","type":"address","indexed":false,"internalType":"address"},{"name":"_to","type":"address","indexed":false,"internalType":"address"},{"name":"_quantity","type":"uint256","indexed":false,"internalType":"uint256"}],"anonymous":false}],"bytecode":{"object":"0x60a06040523480156200001157600080fd5b50604051620053d1380380620053d18339810160408190526200003491620000d2565b8160006200004a6001600160e01b03620000ce16565b600080546001600160a01b0319166001600160a01b0383169081178255604051929350917f8be0079c531659141344cd1fd0a4f28419497f9722a3daafe3b4186f6b6457e0908290a350600180546001600160a01b0319166001600160a01b039290921691909117815560025560601b6001600160601b0319166080525062000129565b3390565b60008060408385031215620000e5578182fd5b8251620000f28162000110565b6020840151909250620001058162000110565b809150509250929050565b6001600160a01b03811681146200012657600080fd5b50565b60805160601c6152536200017e600039806103225280610bf65280610c6d5280610c9c5280610cd752806116345280612fe35280613168528061343352806134725280613aae5280613afc52506152536000f3fe6080604052600436106100fe5760003560e01c8063aec0633811610095578063dfe7533511610064578063dfe753351461027d578063e9e6f5c11461029d578063f1ca6a3f146102bd578063f2fde38b146102eb578063f77c47911461030b576100fe565b8063aec06338146101fc578063c1bd162b1461021c578063c97b83b01461023c578063de4321381461024f576100fe565b80636ac607a1116100d15780636ac607a11461019d578063715018a6146101bd578063847ef08d146101d25780638da5cb5b146101e7576100fe565b80633fc8cef314610103578063485cc9551461012e5780634ee05c4a146101505780635f06cd2c14610170575b600080fd5b34801561010f57600080fd5b50610118610320565b60405161012591906146c6565b60405180910390f35b34801561013a57600080fd5b5061014e610149366004614450565b610344565b005b34801561015c57600080fd5b5061014e61016b366004614269565b6103db565b34801561017c57600080fd5b5061019061018b36600461413f565b6105ca565b60405161012591906148f7565b3480156101a957600080fd5b5061014e6101b8366004614488565b610665565b3480156101c957600080fd5b5061014e610871565b3480156101de57600080fd5b5061014e6108f0565b3480156101f357600080fd5b506101186108f2565b34801561020857600080fd5b50610118610217366004614609565b610902565b34801561022857600080fd5b5061014e6102373660046142c9565b610922565b61014e61024a36600461450e565b610ba4565b34801561025b57600080fd5b5061026f61026a36600461413f565b610d12565b60405161012592919061490a565b34801561028957600080fd5b5061011861029836600461413f565b610dc2565b3480156102a957600080fd5b5061014e6102b8366004614390565b610ddd565b3480156102c957600080fd5b506102dd6102d83660046145b0565b610e79565b604051610125929190614807565b3480156102f757600080fd5b5061014e61030636600461413f565b610f96565b34801561031757600080fd5b5061011861104c565b7f000000000000000000000000000000000000000000000000000000000000000081565b8133610350828261105b565b8361035a81611085565b6001600160a01b0385811660008181526003602052604080822080546001600160a01b0319169489169490941790935582516307ff078f60e11b815292519192630ffe0f1e926004808301939282900301818387803b1580156103bc57600080fd5b505af11580156103d0573d6000803e3d6000fd5b505050505050505050565b6103e3611149565b6000546001600160a01b039081169116146104195760405162461bcd60e51b815260040161041090614d51565b60405180910390fd5b610429828263ffffffff61114d16565b60005b82518110156105c55760015461044a906001600160a01b0316611177565b6001600160a01b031663639a39783084848151811061046557fe5b60200260200101516040518363ffffffff1660e01b815260040161048a9291906147e3565b60206040518083038186803b1580156104a257600080fd5b505afa1580156104b6573d6000803e3d6000fd5b505050506040513d601f19601f820116820180604052508101906104da9190614342565b6104f65760405162461bcd60e51b815260040161041090614ca2565b81818151811061050257fe5b60200260200101516004600085848151811061051a57fe5b60200260200101516001600160a01b03166001600160a01b031681526020019081526020016000209080519060200190610555929190613e5b565b5082818151811061056257fe5b60200260200101516001600160a01b03167fc58c5ebe64b61aa17ac9e8948fc0664b62dff77268a22b4f1142443b3a583aac8383815181106105a057fe5b60200260200101516040516105b591906148f7565b60405180910390a260010161042c565b505050565b60046020908152600091825260409182902080548351601f60026000196101006001861615020190931692909204918201849004840281018401909452808452909183018282801561065d5780601f106106325761010080835404028352916020019161065d565b820191906000526020600020905b81548152906001019060200180831161064057829003601f168201915b505050505081565b6002805414156106875760405162461bcd60e51b81526004016104109061502d565b6002805585610695816111fc565b600086116106b55760405162461bcd60e51b815260040161041090614a6a565b604051632770a7eb60e21b81526001600160a01b03881690639dc29fac906106e39033908a90600401614732565b600060405180830381600087803b1580156106fd57600080fd5b505af1158015610711573d6000803e3d6000fd5b5050505060608061072489896000610e79565b915091506000809050825187511461074e5760405162461bcd60e51b815260040161041090614fac565b60005b83518110156107df5761077a8b8b86848151811061076b57fe5b60200260200101516000611221565b60006107c28c8b8b858151811061078d57fe5b60200260200101518886815181106107a157fe5b60200260200101518887815181106107b557fe5b60200260200101516113be565b90506107d4838263ffffffff61168c16565b925050600101610751565b50848110156108005760405162461bcd60e51b815260040161041090614ea4565b61081b6001600160a01b038b1689888463ffffffff6116b816565b896001600160a01b03167faff1a7efa3cefa842df2e0a721e817b7b34459df822cc112f0069fcfcbedcad433888c6040516108589392919061470e565b60405180910390a2505060016002555050505050505050565b610879611149565b6000546001600160a01b039081169116146108a65760405162461bcd60e51b815260040161041090614d51565b600080546040516001600160a01b03909116907f8be0079c531659141344cd1fd0a4f28419497f9722a3daafe3b4186f6b6457e0908390a3600080546001600160a01b0319169055565b565b6000546001600160a01b03165b90565b60008061090e836117fa565b905061091981611805565b9150505b919050565b61092a611149565b6000546001600160a01b039081169116146109575760405162461bcd60e51b815260040161041090614d51565b610967838363ffffffff61114d16565b610977838263ffffffff61114d16565b60005b8351811015610b9e57600154610998906001600160a01b0316611177565b6001600160a01b031663639a3978308584815181106109b357fe5b60200260200101516040518363ffffffff1660e01b81526004016109d89291906147e3565b60206040518083038186803b1580156109f057600080fd5b505afa158015610a04573d6000803e3d6000fd5b505050506040513d601f19601f82011682018060405250810190610a289190614342565b610a445760405162461bcd60e51b815260040161041090614edb565b828181518110610a5057fe5b602002602001015160056000868481518110610a6857fe5b60200260200101516001600160a01b03166001600160a01b031681526020019081526020016000206000019080519060200190610aa6929190613e5b565b50818181518110610ab357fe5b602002602001015160056000868481518110610acb57fe5b60200260200101516001600160a01b03166001600160a01b0316815260200190815260200160002060010160006101000a8154816001600160a01b0302191690836001600160a01b03160217905550838181518110610b2657fe5b60200260200101516001600160a01b03167f9b6908663d418cb1b019425f179085f031896cd0545d64837c95ce3cfff91299848381518110610b6457fe5b6020026020010151848481518110610b7857fe5b6020026020010151604051610b8e92919061490a565b60405180910390a260010161097a565b50505050565b600280541415610bc65760405162461bcd60e51b81526004016104109061502d565b6002805585610bd4816111fc565b60003411610bf45760405162461bcd60e51b815260040161041090614f12565b7f00000000000000000000000000000000000000000000000000000000000000006001600160a01b031663d0e30db0346040518263ffffffff1660e01b81526004016000604051808303818588803b158015610c4f57600080fd5b505af1158015610c63573d6000803e3d6000fd5b5050505050610c947f00000000000000000000000000000000000000000000000000000000000000003089346118c4565b6000610cc6887f0000000000000000000000000000000000000000000000000000000000000000348a8a8a8a8a6118d0565b9050610d036001600160a01b0389167f0000000000000000000000000000000000000000000000000000000000000000338463ffffffff6116b816565b50506001600255505050505050565b60056020908152600091825260409182902080548351601f60026000196101006001861615020190931692909204918201849004840281018401909452808452909291839190830182828015610da95780601f10610d7e57610100808354040283529160200191610da9565b820191906000526020600020905b815481529060010190602001808311610d8c57829003601f168201915b505050600190930154919250506001600160a01b031682565b6003602052600090815260409020546001600160a01b031681565b600280541415610dff5760405162461bcd60e51b81526004016104109061502d565b6002805587610e0d816111fc565b60008711610e2d5760405162461bcd60e51b815260040161041090614f47565b610e3988338b8a6118c4565b6000610e4b8a8a8a8a8a8a8a8a6118d0565b9050610e686001600160a01b038b168a338463ffffffff6116b816565b505060016002555050505050505050565b606080606080610e8887611a8a565b91509150606082516001600160401b0381118015610ea557600080fd5b50604051908082528060200260200182016040528015610ecf578160200160208202803683370190505b50905060005b8251811015610f875786610f0e57610f0988848381518110610ef357fe5b6020026020010151611d9090919063ffffffff16565b610f34565b610f3488848381518110610f1e57fe5b6020026020010151611dba90919063ffffffff16565b828281518110610f4057fe5b6020026020010181815250506000828281518110610f5a57fe5b602002602001015111610f7f5760405162461bcd60e51b815260040161041090614934565b600101610ed5565b50919791965090945050505050565b610f9e611149565b6000546001600160a01b03908116911614610fcb5760405162461bcd60e51b815260040161041090614d51565b6001600160a01b038116610ff15760405162461bcd60e51b815260040161041090614a24565b600080546040516001600160a01b03808516939216917f8be0079c531659141344cd1fd0a4f28419497f9722a3daafe3b4186f6b6457e091a3600080546001600160a01b0319166001600160a01b0392909216919091179055565b6001546001600160a01b031681565b6110658282611e11565b6110815760405162461bcd60e51b815260040161041090614cd9565b5050565b600154604051635ae5900360e01b81526001600160a01b0390911690635ae59003906110b59084906004016146c6565b60206040518083038186803b1580156110cd57600080fd5b505afa1580156110e1573d6000803e3d6000fd5b505050506040513d601f19601f820116820180604052508101906111059190614342565b6111215760405162461bcd60e51b815260040161041090614dbd565b61112a81611e9f565b6111465760405162461bcd60e51b815260040161041090614ad8565b50565b3390565b805182511461116e5760405162461bcd60e51b815260040161041090614977565b61108182611f1e565b6040516373b2e76b60e11b81526000906001600160a01b0383169063e765ced6906111a690849060040161513e565b60206040518083038186803b1580156111be57600080fd5b505afa1580156111d2573d6000803e3d6000fd5b505050506040513d601f19601f820116820180604052508101906111f6919061415b565b92915050565b61120581611f65565b6111465760405162461bcd60e51b815260040161041090614bc0565b60405163a7bdad0360e01b81526060906001600160a01b0386169063a7bdad03906112509086906004016146c6565b60006040518083038186803b15801561126857600080fd5b505afa15801561127c573d6000803e3d6000fd5b505050506040513d6000823e601f3d908101601f191682016040526112a491908101906141ce565b905060005b81518110156113b6578215611335578181815181106112c457fe5b60200260200101516001600160a01b0316630fb96b2187878760016040518563ffffffff1660e01b81526004016112fe94939291906148cd565b600060405180830381600087803b15801561131857600080fd5b505af115801561132c573d6000803e3d6000fd5b505050506113ae565b81818151811061134157fe5b60200260200101516001600160a01b031663c137f4d787878760016040518563ffffffff1660e01b815260040161137b94939291906148cd565b600060405180830381600087803b15801561139557600080fd5b505af11580156113a9573d6000803e3d6000fd5b505050505b6001016112a9565b505050505050565b600080836001600160a01b0316866001600160a01b031614156113e2575081611682565b6001600160a01b038481166000908152600560205260409020600101541661141c5761141387858789876001612019565b91506116829050565b611424613ed5565b6001600160a01b0385166000908152600560209081526040918290208251815460026001821615610100026000190190911604601f81018490049093028101606090810185529381018381529093919284928491908401828280156114ca5780601f1061149f576101008083540402835291602001916114ca565b820191906000526020600020905b8154815290600101906020018083116114ad57829003601f168201915b5050509183525050600191909101546001600160a01b031660209091015280519091506000906114f990610902565b905060008061159c8b85602001518a8a8860000151886001600160a01b0316631878d1f16040518163ffffffff1660e01b815260040160206040518083038186803b15801561154757600080fd5b505afa15801561155b573d6000803e3d6000fd5b505050506040513d601f19601f8201168201806040525081019061157f919061415b565b6001600160a01b03168a602001516001600160a01b0316146121ea565b91509150826001600160a01b0316631878d1f16040518163ffffffff1660e01b815260040160206040518083038186803b1580156115d957600080fd5b505afa1580156115ed573d6000803e3d6000fd5b505050506040513d601f19601f82011682018060405250810190611611919061415b565b6001600160a01b031684602001516001600160a01b031614156116665761165d8b7f00000000000000000000000000000000000000000000000000000000000000008b8d866001612019565b955061167d9050565b6116798b85602001518b8d866001612019565b9550505b505050505b9695505050505050565b6000828201838110156116b15760405162461bcd60e51b815260040161041090614aa1565b9392505050565b8015610b9e576040516370a0823160e01b81526000906001600160a01b038516906370a08231906116ed9088906004016146c6565b60206040518083038186803b15801561170557600080fd5b505afa158015611719573d6000803e3d6000fd5b505050506040513d601f19601f8201168201806040525081019061173d91906145f1565b905061174b8585858561226a565b6040516370a0823160e01b81526000906001600160a01b038616906370a082319061177a9089906004016146c6565b60206040518083038186803b15801561179257600080fd5b505afa1580156117a6573d6000803e3d6000fd5b505050506040513d601f19601f820116820180604052508101906117ca91906145f1565b90506117dc828463ffffffff61233716565b81146113b65760405162461bcd60e51b815260040161041090614d86565b805160209091012090565b600154600090819061181f906001600160a01b0316611177565b6001600160a01b031663e6d642c530856040518363ffffffff1660e01b815260040161184c929190614732565b60206040518083038186803b15801561186457600080fd5b505afa158015611878573d6000803e3d6000fd5b505050506040513d601f19601f8201168201806040525081019061189c919061415b565b90506001600160a01b0381166111f65760405162461bcd60e51b815260040161041090614c07565b610b9e84848484612379565b6000806118df8a88338761249d565b905060608a6001600160a01b03166399d50d5d6040518163ffffffff1660e01b815260040160006040518083038186803b15801561191c57600080fd5b505afa158015611930573d6000803e3d6000fd5b505050506040513d6000823e601f3d908101601f1916820160405261195891908101906141ce565b9050855181511461197b5760405162461bcd60e51b8152600401610410906149a6565b865181511461199c5760405162461bcd60e51b8152600401610410906150ee565b6000806119ad8d8d8d8c8c8b61253b565b91509150898210156119d15760405162461bcd60e51b815260040161041090614f7c565b6040516340c10f1960e01b81526001600160a01b038e16906340c10f19906119ff908a908690600401614732565b600060405180830381600087803b158015611a1957600080fd5b505af1158015611a2d573d6000803e3d6000fd5b505050508c6001600160a01b03167fd6e385bab06f94ac03f80bbf0dcf7418b113a54da42bfaa80339e3e5c6d596853389878686604051611a729594939291906146da565b60405180910390a29c9b505050505050505050505050565b6060806060836001600160a01b03166399d50d5d6040518163ffffffff1660e01b815260040160006040518083038186803b158015611ac857600080fd5b505afa158015611adc573d6000803e3d6000fd5b505050506040513d6000823e601f3d908101601f19168201604052611b0491908101906141ce565b9050606081516001600160401b0381118015611b1f57600080fd5b50604051908082528060200260200182016040528015611b49578160200160208202803683370190505b50905060005b8251811015611d85576000838281518110611b6657fe5b602002602001015190506000876001600160a01b03166366cb8d2f836040518263ffffffff1660e01b8152600401611b9e91906146c6565b60206040518083038186803b158015611bb657600080fd5b505afa158015611bca573d6000803e3d6000fd5b505050506040513d601f19601f82011682018060405250810190611bee91906145f1565b90506060886001600160a01b031663a7bdad03846040518263ffffffff1660e01b8152600401611c1e91906146c6565b60006040518083038186803b158015611c3657600080fd5b505afa158015611c4a573d6000803e3d6000fd5b505050506040513d6000823e601f3d908101601f19168201604052611c7291908101906141ce565b805190915015611d5a5760005b8151811015611d585760008a6001600160a01b03166322ebeba486858581518110611ca657fe5b60200260200101516040518363ffffffff1660e01b8152600401611ccb92919061474b565b60206040518083038186803b158015611ce357600080fd5b505afa158015611cf7573d6000803e3d6000fd5b505050506040513d601f19601f82011682018060405250810190611d1b91906145f1565b905060008113611d3d5760405162461bcd60e51b81526004016104109061509b565b611d4d848263ffffffff61277c16565b935050600101611c7f565b505b611d63826127c2565b858581518110611d6f57fe5b6020908102919091010152505050600101611b4f565b509092509050915091565b60006116b1670de0b6b3a7640000611dae858563ffffffff6127e816565b9063ffffffff61282216565b6000821580611dc7575081155b15611dd4575060006111f6565b6116b16001611e05670de0b6b3a7640000611dae83611df9898963ffffffff6127e816565b9063ffffffff61233716565b9063ffffffff61168c16565b6000816001600160a01b0316836001600160a01b031663481c6a756040518163ffffffff1660e01b815260040160206040518083038186803b158015611e5657600080fd5b505afa158015611e6a573d6000803e3d6000fd5b505050506040513d601f19601f82011682018060405250810190611e8e919061415b565b6001600160a01b0316149392505050565b6040516353bae5f760e01b81526000906001600160a01b038316906353bae5f790611ece9030906004016146c6565b60206040518083038186803b158015611ee657600080fd5b505afa158015611efa573d6000803e3d6000fd5b505050506040513d601f19601f820116820180604052508101906111f69190614342565b6000815111611f3f5760405162461bcd60e51b815260040161041090614e6d565b611f4881612864565b156111465760405162461bcd60e51b815260040161041090614c36565b600154604051635ae5900360e01b81526000916001600160a01b031690635ae5900390611f969085906004016146c6565b60206040518083038186803b158015611fae57600080fd5b505afa158015611fc2573d6000803e3d6000fd5b505050506040513d601f19601f82011682018060405250810190611fe69190614342565b80156111f657506040516335fc6c9f60e21b81526001600160a01b0383169063d7f1b27c90611ece9030906004016146c6565b600080846001600160a01b0316876001600160a01b031614156120405750829050806121df565b612048613eed565b6001600160a01b0386166000908152600460209081526040918290208054835160026001831615610100026000190190921691909104601f8101849004840282018401909452838152612102938d936120f89391908301828280156120ee5780601f106120c3576101008083540402835291602001916120ee565b820191906000526020600020905b8154815290600101906020018083116120d157829003601f168201915b5050505050610902565b8a8a8a8a8a612913565b905061210d81612c0d565b612139816000015182602001518360400151846060015185608001518660a00151876101000151612cdd565b61214281612e92565b5060006121636121528b8b612f47565b60c08401519063ffffffff61233716565b905060006121798360e00151611df98d8b612f47565b9050876001600160a01b03168a6001600160a01b03168c6001600160a01b03167f71c90a8e22bbb06ea39d299250bcaff990254be58217e7d1479dcbf2f24aa776866020015186866040516121d093929190614881565b60405180910390a49093509150505b965096945050505050565b6000806000806121fe868b8b8b8b8a612fc6565b91509150876001600160a01b0316896001600160a01b03168b6001600160a01b03167f0e631fe8e26e2b6c2ce8c4c55eca1d769c98bb4b5539068aec9ada0a3b429afe85858b60405161225393929190615147565b60405180910390a490999098509650505050505050565b8015610b9e5760608282604051602401612285929190614732565b60408051601f198184030181529181526020820180516001600160e01b031663a9059cbb60e01b179052516347b7819960e11b81529091506001600160a01b03861690638f6f0332906122e190879060009086906004016147b3565b600060405180830381600087803b1580156122fb57600080fd5b505af115801561230f573d6000803e3d6000fd5b505050506040513d6000823e601f3d908101601f191682016040526113b6919081019061435e565b60006116b183836040518060400160405280601e81526020017f536166654d6174683a207375627472616374696f6e206f766572666c6f7700008152506131e6565b8015610b9e576040516370a0823160e01b81526000906001600160a01b038616906370a08231906123ae9086906004016146c6565b60206040518083038186803b1580156123c657600080fd5b505afa1580156123da573d6000803e3d6000fd5b505050506040513d601f19601f820116820180604052508101906123fe91906145f1565b905061240c85858585613212565b6040516370a0823160e01b81526000906001600160a01b038716906370a082319061243b9087906004016146c6565b60206040518083038186803b15801561245357600080fd5b505afa158015612467573d6000803e3d6000fd5b505050506040513d601f19601f8201168201806040525081019061248b91906145f1565b90506117dc828463ffffffff61168c16565b6001600160a01b03808516600090815260036020526040812054909116801561252d5760405163a045808360e01b81526001600160a01b0382169063a0458083906124f29089908990899089906004016148a2565b600060405180830381600087803b15801561250c57600080fd5b505af1158015612520573d6000803e3d6000fd5b5050505080915050612533565b60009150505b949350505050565b600080600060001990506060896001600160a01b03166399d50d5d6040518163ffffffff1660e01b815260040160006040518083038186803b15801561258057600080fd5b505afa158015612594573d6000803e3d6000fd5b505050506040513d6000823e601f3d908101601f191682016040526125bc91908101906141ce565b9050606081516001600160401b03811180156125d757600080fd5b50604051908082528060200260200182016040528015612601578160200160208202803683370190505b50905060005b825181101561275857600061263d6001611df98b858151811061262657fe5b60200260200101518e611d9090919063ffffffff16565b905060006126d88e6001600160a01b03166366cb8d2f87868151811061265f57fe5b60200260200101516040518263ffffffff1660e01b815260040161268391906146c6565b60206040518083038186803b15801561269b57600080fd5b505afa1580156126af573d6000803e3d6000fd5b505050506040513d601f19601f820116820180604052508101906126d391906145f1565b6127c2565b9050600061270f8f8f858f88815181106126ee57fe5b60200260200101518a898151811061270257fe5b602002602001015161326a565b90508085858151811061271e57fe5b6020908102919091010152600061273b828463ffffffff61350416565b9050878111612748578097505b5050600190920191506126079050565b5060006127698c8c8b85888c613522565b939c939b50929950505050505050505050565b60008282018183128015906127915750838112155b806127a657506000831280156127a657508381125b6116b15760405162461bcd60e51b815260040161041090614b7f565b6000808212156127e45760405162461bcd60e51b815260040161041090614c6d565b5090565b6000826127f7575060006111f6565b8282028284828161280457fe5b04146116b15760405162461bcd60e51b815260040161041090614d10565b60006116b183836040518060400160405280601a81526020017f536166654d6174683a206469766973696f6e206279207a65726f00000000000081525061369f565b6000808251116128865760405162461bcd60e51b81526004016104109061511a565b60005b600183510381101561290a5760008382815181106128a357fe5b6020026020010151905060008260010190505b8451811015612900578481815181106128cb57fe5b60200260200101516001600160a01b0316826001600160a01b031614156128f8576001935050505061091d565b6001016128b6565b5050600101612889565b50600092915050565b61291b613eed565b60606001600160a01b03861615806129445750866001600160a01b0316866001600160a01b0316145b806129605750846001600160a01b0316866001600160a01b0316145b156129e6576040805160028082526060820183529091602083019080368337019050509050868160008151811061299357fe5b60200260200101906001600160a01b031690816001600160a01b03168152505084816001815181106129c157fe5b60200260200101906001600160a01b031690816001600160a01b031681525050612a92565b6040805160038082526080820190925290602082016060803683370190505090508681600081518110612a1557fe5b60200260200101906001600160a01b031690816001600160a01b0316815250508581600181518110612a4357fe5b60200260200101906001600160a01b031690816001600160a01b0316815250508481600281518110612a7157fe5b60200260200101906001600160a01b031690816001600160a01b0316815250505b612a9a613eed565b6001600160a01b03808b168252898116602083015288811660408301528616606082015260808101859052600060a0820152612ad68a89612f47565b60c0820152612ae58a87612f47565b60e082015283612b7757604051631a0abf8760e31b81526001600160a01b038a169063d055fc3890612b1e90859060009060040161485d565b60006040518083038186803b158015612b3657600080fd5b505afa158015612b4a573d6000803e3d6000fd5b505050506040513d6000823e601f3d908101601f19168201604052612b72919081019061435e565b612bfa565b604051631a0abf8760e31b81526001600160a01b038a169063d055fc3890612ba690859060019060040161485d565b60006040518083038186803b158015612bbe57600080fd5b505afa158015612bd2573d6000803e3d6000fd5b505050506040513d6000823e601f3d908101601f19168201604052612bfa919081019061435e565b6101008201529998505050505050505050565b6000816080015111612c315760405162461bcd60e51b815260040161041090615064565b600081604001516001600160a01b03166370a0823183600001516040518263ffffffff1660e01b8152600401612c6791906146c6565b60206040518083038186803b158015612c7f57600080fd5b505afa158015612c93573d6000803e3d6000fd5b505050506040513d601f19601f82011682018060405250810190612cb791906145f1565b905081608001518110156110815760405162461bcd60e51b8152600401610410906149d3565b612d6a85876001600160a01b031663334fc2896040518163ffffffff1660e01b815260040160206040518083038186803b158015612d1a57600080fd5b505afa158015612d2e573d6000803e3d6000fd5b505050506040513d601f19601f82011682018060405250810190612d52919061415b565b6001600160a01b038a1691908663ffffffff6136d616565b6000806060886001600160a01b031663e171fcab89898d8a8a8a6040518763ffffffff1660e01b8152600401612da596959493929190614765565b60006040518083038186803b158015612dbd57600080fd5b505afa158015612dd1573d6000803e3d6000fd5b505050506040513d6000823e601f3d908101601f19168201604052612df99190810190614177565b925092509250896001600160a01b0316638f6f03328484846040518463ffffffff1660e01b8152600401612e2f939291906147b3565b600060405180830381600087803b158015612e4957600080fd5b505af1158015612e5d573d6000803e3d6000fd5b505050506040513d6000823e601f3d908101601f19168201604052612e85919081019061435e565b5050505050505050505050565b600080612f218360e0015184606001516001600160a01b03166370a0823186600001516040518263ffffffff1660e01b8152600401612ed191906146c6565b60206040518083038186803b158015612ee957600080fd5b505afa158015612efd573d6000803e3d6000fd5b505050506040513d601f19601f82011682018060405250810190611df991906145f1565b90508260a001518110156111f65760405162461bcd60e51b815260040161041090614b0f565b600080826001600160a01b03166370a08231856040518263ffffffff1660e01b8152600401612f7691906146c6565b60206040518083038186803b158015612f8e57600080fd5b505afa158015612fa2573d6000803e3d6000fd5b505050506040513d601f19601f8201168201806040525081019061253391906145f1565b600080612fd4878686613747565b600083612fe15786613003565b7f00000000000000000000000000000000000000000000000000000000000000005b905060006130118983612f47565b9050600061301f8a89612f47565b9050600061302c8c610902565b90506000816001600160a01b03166383d918098c8c6040518363ffffffff1660e01b815260040161305e92919061474b565b60206040518083038186803b15801561307657600080fd5b505afa15801561308a573d6000803e3d6000fd5b505050506040513d601f19601f820116820180604052508101906130ae919061415b565b90506130cb6001600160a01b038d168b838c63ffffffff6136d616565b6131538c838a6130db578d61314c565b846001600160a01b0316631878d1f16040518163ffffffff1660e01b815260040160206040518083038186803b15801561311457600080fd5b505afa158015613128573d6000803e3d6000fd5b505050506040513d601f19601f8201168201806040525081019061314c919061415b565b8d8d613790565b8715613194576131946001600160a01b038d167f0000000000000000000000000000000000000000000000000000000000000000813163ffffffff6138a516565b60006131a08d87612f47565b905060006131ae8e8d612f47565b90506131c0828763ffffffff61233716565b6131d0868363ffffffff61233716565b9850985050505050505050965096945050505050565b6000818484111561320a5760405162461bcd60e51b815260040161041091906148f7565b505050900390565b610b9e846323b872dd60e01b8585856040516024016132339392919061470e565b60408051601f198184030181529190526020810180516001600160e01b03166001600160e01b03199093169290921790915261395a565b600080826001600160a01b0316866001600160a01b0316141561328e575083611682565b6001600160a01b03838116600090815260056020526040902060010154166132bf5761141387878686896001612019565b6132c7613ed5565b6001600160a01b0384166000908152600560209081526040918290208251815460026001821615610100026000190190911604601f810184900490930281016060908101855293810183815290939192849284919084018282801561336d5780601f106133425761010080835404028352916020019161336d565b820191906000526020600020905b81548152906001019060200180831161335057829003601f168201915b5050509183525050600191909101546001600160a01b0316602090910152805190915060009061339c90610902565b90506000809050816001600160a01b0316631878d1f16040518163ffffffff1660e01b815260040160206040518083038186803b1580156133dc57600080fd5b505afa1580156133f0573d6000803e3d6000fd5b505050506040513d601f19601f82011682018060405250810190613414919061415b565b6001600160a01b031683602001516001600160a01b031614156134c3577f00000000000000000000000000000000000000000000000000000000000000006001600160a01b0316896001600160a01b0316146134a2576134998a8a897f00000000000000000000000000000000000000000000000000000000000000008c6001612019565b91506134a59050565b50865b6134bc8a84602001518884876000015160016139e9565b93506134f6565b6134d68a8a8986602001518c6001612019565b9050809150506134f38a84602001518884876000015160006139e9565b93505b505050905095945050505050565b60006116b182611dae85670de0b6b3a764000063ffffffff6127e816565b60008161353157506000611682565b60008090506060886001600160a01b03166399d50d5d6040518163ffffffff1660e01b815260040160006040518083038186803b15801561357157600080fd5b505afa158015613585573d6000803e3d6000fd5b505050506040513d6000823e601f3d908101601f191682016040526135ad91908101906141ce565b905060005b81518110156136915760006135eb876135df8d6001600160a01b03166366cb8d2f87878151811061265f57fe5b9063ffffffff611d9016565b90506000613615828a85815181106135ff57fe5b602002602001015161233790919063ffffffff16565b90506000613629828463ffffffff61350416565b9050613639612710611dae613a65565b811115613686576136836136768e8e8e888151811061365457fe5b602002602001015189898151811061366857fe5b6020026020010151876113be565b879063ffffffff61168c16565b95505b5050506001016135b2565b509098975050505050505050565b600081836136c05760405162461bcd60e51b815260040161041091906148f7565b5060008385816136cc57fe5b0495945050505050565b606082826040516024016136eb929190614732565b60408051601f198184030181529181526020820180516001600160e01b031663095ea7b360e01b179052516347b7819960e11b81529091506001600160a01b03861690638f6f0332906122e190879060009086906004016147b3565b600081116137675760405162461bcd60e51b815260040161041090614dff565b806137728484612f47565b10156105c55760405162461bcd60e51b815260040161041090614b39565b6000806060866001600160a01b031663a22fe98e8787876040518463ffffffff1660e01b81526004016137c59392919061470e565b60006040518083038186803b1580156137dd57600080fd5b505afa1580156137f1573d6000803e3d6000fd5b505050506040513d6000823e601f3d908101601f191682016040526138199190810190614177565b925092509250876001600160a01b0316638f6f03328484846040518463ffffffff1660e01b815260040161384f939291906147b3565b600060405180830381600087803b15801561386957600080fd5b505af115801561387d573d6000803e3d6000fd5b505050506040513d6000823e601f3d908101601f191682016040526103d0919081019061435e565b6040805160048082526024820183526020820180516001600160e01b0316630d0e30db60e41b17905291516347b7819960e11b815290916001600160a01b03861691638f6f0332916138fd91879187918791016147b3565b600060405180830381600087803b15801561391757600080fd5b505af115801561392b573d6000803e3d6000fd5b505050506040513d6000823e601f3d908101601f19168201604052613953919081019061435e565b5050505050565b60606139af826040518060400160405280602081526020017f5361666545524332303a206c6f772d6c6576656c2063616c6c206661696c6564815250856001600160a01b0316613a719092919063ffffffff16565b8051909150156105c557808060200190518101906139cd9190614342565b6105c55760405162461bcd60e51b815260040161041090614fe3565b60008060006139fc858a8a8a8a89613a80565b91509150866001600160a01b0316886001600160a01b03168a6001600160a01b03167f266efe8e5e4e2e7e407c4814a2818ef8e990768c61e67315ac34a8d3555b438e85858a604051613a5193929190615147565b60405180910390a498975050505050505050565b670de0b6b3a764000090565b60606125338484600085613cba565b600080600080613a908988612f47565b90506000613a9d8b610902565b9050600086613aac5789613ace565b7f00000000000000000000000000000000000000000000000000000000000000005b9050613adb8b828a613747565b613ae58b82612f47565b93508615613b2c57613b276001600160a01b038c167f00000000000000000000000000000000000000000000000000000000000000008a63ffffffff613d7e16565b613be1565b604051633d3685e960e11b81526000906001600160a01b03841690637a6d0bd290613b5d908e908e9060040161474b565b60206040518083038186803b158015613b7557600080fd5b505afa158015613b89573d6000803e3d6000fd5b505050506040513d601f19601f82011682018060405250810190613bad919061415b565b9050613bdf8b82613bc58c600163ffffffff61168c16565b8f6001600160a01b03166136d6909392919063ffffffff16565b505b613c698b8389613bf1578c613c62565b846001600160a01b0316631878d1f16040518163ffffffff1660e01b815260040160206040518083038186803b158015613c2a57600080fd5b505afa158015613c3e573d6000803e3d6000fd5b505050506040513d601f19601f82011682018060405250810190613c62919061415b565b8c8c613ded565b6000613c758c83612f47565b90506000613c838d8c612f47565b9050613c95868363ffffffff61233716565b613ca5828763ffffffff61233716565b97509750505050505050965096945050505050565b6060613cc585613e22565b613ce15760405162461bcd60e51b815260040161041090614e36565b60006060866001600160a01b03168587604051613cfe91906146aa565b60006040518083038185875af1925050503d8060008114613d3b576040519150601f19603f3d011682016040523d82523d6000602084013e613d40565b606091505b50915091508115613d545791506125339050565b805115613d645780518082602001fd5b8360405162461bcd60e51b815260040161041091906148f7565b606081604051602401613d91919061513e565b60408051601f198184030181529181526020820180516001600160e01b0316632e1a7d4d60e01b179052516347b7819960e11b81529091506001600160a01b03851690638f6f0332906138fd90869060009086906004016147b3565b6000806060866001600160a01b03166377b1aaf88787876040518463ffffffff1660e01b81526004016137c59392919061470e565b6000813f7fc5d2460186f7233c927e7db2dcc703c0e500b653ca82273b7bfad8045d85a470818114801590612533575050151592915050565b828054600181600116156101000203166002900490600052602060002090601f016020900481019282601f10613e9c57805160ff1916838001178555613ec9565b82800160010185558215613ec9579182015b82811115613ec9578251825591602001919060010190613eae565b506127e4929150613f5d565b60408051808201909152606081526000602082015290565b60405180610120016040528060006001600160a01b0316815260200160006001600160a01b0316815260200160006001600160a01b0316815260200160006001600160a01b0316815260200160008152602001600081526020016000815260200160008152602001606081525090565b6108ff91905b808211156127e45760008155600101613f63565b600082601f830112613f87578081fd5b8135613f9a613f958261518c565b615166565b818152915060208083019084810181840286018201871015613fbb57600080fd5b60005b84811015613fe3578135613fd1816151fa565b84529282019290820190600101613fbe565b505050505092915050565b600082601f830112613ffe578081fd5b813561400c613f958261518c565b818152915060208083019084810160005b84811015613fe357614034888484358a01016140f1565b8452928201929082019060010161401d565b600082601f830112614056578081fd5b8135614064613f958261518c565b81815291506020808301908481018184028601820187101561408557600080fd5b60005b84811015613fe357813584529282019290820190600101614088565b600082601f8301126140b4578081fd5b81516140c2613f95826151ab565b91508082528360208285010111156140d957600080fd5b6140ea8160208401602086016151ce565b5092915050565b600082601f830112614101578081fd5b813561410f613f95826151ab565b915080825283602082850101111561412657600080fd5b8060208401602084013760009082016020015292915050565b600060208284031215614150578081fd5b81356116b1816151fa565b60006020828403121561416c578081fd5b81516116b1816151fa565b60008060006060848603121561418b578182fd5b8351614196816151fa565b6020850151604086015191945092506001600160401b038111156141b8578182fd5b6141c4868287016140a4565b9150509250925092565b600060208083850312156141e0578182fd5b82516001600160401b038111156141f5578283fd5b80840185601f820112614206578384fd5b80519150614216613f958361518c565b8281528381019082850185850284018601891015614232578687fd5b8693505b8484101561425d578051614249816151fa565b835260019390930192918501918501614236565b50979650505050505050565b6000806040838503121561427b578182fd5b82356001600160401b0380821115614291578384fd5b61429d86838701613f77565b935060208501359150808211156142b2578283fd5b506142bf85828601613fee565b9150509250929050565b6000806000606084860312156142dd578283fd5b83356001600160401b03808211156142f3578485fd5b6142ff87838801613f77565b94506020860135915080821115614314578384fd5b61432087838801613fee565b93506040860135915080821115614335578283fd5b506141c486828701613f77565b600060208284031215614353578081fd5b81516116b18161520f565b60006020828403121561436f578081fd5b81516001600160401b03811115614384578182fd5b612533848285016140a4565b600080600080600080600080610100898b0312156143ac578586fd5b88356143b7816151fa565b975060208901356143c7816151fa565b9650604089013595506060890135945060808901356001600160401b03808211156143f0578586fd5b6143fc8c838d01613f77565b955060a08b0135915080821115614411578485fd5b5061441e8b828c01614046565b93505060c089013561442f816151fa565b915060e089013561443f8161520f565b809150509295985092959890939650565b60008060408385031215614462578182fd5b823561446d816151fa565b9150602083013561447d816151fa565b809150509250929050565b60008060008060008060c087890312156144a0578384fd5b86356144ab816151fa565b95506020870135945060408701356144c2816151fa565b935060608701356001600160401b038111156144dc578283fd5b6144e889828a01613f77565b93505060808701356144f9816151fa565b8092505060a087013590509295509295509295565b60008060008060008060c08789031215614526578384fd5b8635614531816151fa565b95506020870135945060408701356001600160401b0380821115614553578586fd5b61455f8a838b01613f77565b95506060890135915080821115614574578384fd5b5061458189828a01614046565b9350506080870135614592816151fa565b915060a08701356145a28161520f565b809150509295509295509295565b6000806000606084860312156145c4578081fd5b83356145cf816151fa565b92506020840135915060408401356145e68161520f565b809150509250925092565b600060208284031215614602578081fd5b5051919050565b60006020828403121561461a578081fd5b81356001600160401b0381111561462f578182fd5b612533848285016140f1565b6000815180845260208085019450808401835b838110156146735781516001600160a01b03168752958201959082019060010161464e565b509495945050505050565b600081518084526146968160208601602086016151ce565b601f01601f19169290920160200192915050565b600082516146bc8184602087016151ce565b9190910192915050565b6001600160a01b0391909116815260200190565b6001600160a01b03958616815293851660208501529190931660408301526060820192909252608081019190915260a00190565b6001600160a01b039384168152919092166020820152604081019190915260600190565b6001600160a01b03929092168252602082015260400190565b6001600160a01b0392831681529116602082015260400190565b6001600160a01b038781168252868116602083015285166040820152606081018490526080810183905260c060a082018190526000906147a79083018461467e565b98975050505050505050565b600060018060a01b0385168252836020830152606060408301526147da606083018461467e565b95945050505050565b6001600160a01b03831681526040602082018190526000906125339083018461467e565b60006040825261481a604083018561463b565b828103602084810191909152845180835285820192820190845b8181101561485057845183529383019391830191600101614834565b5090979650505050505050565b600060408252614870604083018561463b565b905082151560208301529392505050565b6001600160a01b039390931683526020830191909152604082015260600190565b6001600160a01b03948516815260208101939093529083166040830152909116606082015260800190565b6001600160a01b039485168152602081019390935292166040820152901515606082015260800190565b6000602082526116b1602083018461467e565b60006040825261491d604083018561467e565b905060018060a01b03831660208301529392505050565b60208082526023908201527f636f6d706f6e656e7420616d6f756e742073686f756c64206e6f74206265207a60408201526265726f60e81b606082015260800190565b602080825260159082015274082e4e4c2f240d8cadccee8d040dad2e6dac2e8c6d605b1b604082015260600190565b6020808252601390820152720eecad2ced0e8d2dccee640dad2e6dac2e8c6d606b1b604082015260600190565b60208082526031908201527f746f74616c2073656e64207175616e746974792063616e742062652067726561604082015270746572207468616e206578697374696e6760781b606082015260800190565b60208082526026908201527f4f776e61626c653a206e6577206f776e657220697320746865207a65726f206160408201526564647265737360d01b606082015260800190565b6020808252601b908201527f52656465656d207175616e74697479206d757374206265203e20300000000000604082015260600190565b6020808252601b908201527f536166654d6174683a206164646974696f6e206f766572666c6f770000000000604082015260600190565b6020808252601e908201527f4d7573742062652070656e64696e6720696e697469616c697a6174696f6e0000604082015260600190565b60208082526010908201526f536c69707061676520746f6f2062696760801b604082015260600190565b60208082526026908201527f7175616e746974792063616e742062652067726561746572207468616e206578604082015265697374696e6760d01b606082015260800190565b60208082526021908201527f5369676e6564536166654d6174683a206164646974696f6e206f766572666c6f6040820152607760f81b606082015260800190565b60208082526027908201527f4d75737420626520612076616c696420616e6420696e697469616c697a65642060408201526625282a37b5b2b760c91b606082015260800190565b60208082526015908201527426bab9ba103132903b30b634b21030b230b83a32b960591b604082015260600190565b6020808252601a908201527f43616e6e6f74206475706c696361746520616464726573736573000000000000604082015260600190565b6020808252818101527f53616665436173743a2076616c7565206d75737420626520706f736974697665604082015260600190565b6020808252601a908201527f556e7265636f676e697a65642065786368616e6765206e616d65000000000000604082015260600190565b6020808252601b908201527f4d75737420626520746865204a50546f6b656e206d616e616765720000000000604082015260600190565b60208082526021908201527f536166654d6174683a206d756c7469706c69636174696f6e206f766572666c6f6040820152607760f81b606082015260800190565b6020808252818101527f4f776e61626c653a2063616c6c6572206973206e6f7420746865206f776e6572604082015260600190565b6020808252601d908201527f496e76616c696420706f7374207472616e736665722062616c616e6365000000604082015260600190565b60208082526022908201527f4d75737420626520636f6e74726f6c6c65722d656e61626c6564204a50546f6b60408201526132b760f11b606082015260800190565b6020808252601e908201527f636f6d706f6e656e74207175616e74697479206d757374206265203e20300000604082015260600190565b6020808252601d908201527f416464726573733a2063616c6c20746f206e6f6e2d636f6e7472616374000000604082015260600190565b60208082526018908201527f4172726179206c656e677468206d757374206265203e20300000000000000000604082015260600190565b6020808252601c908201527f5f6d696e52656465656d546f6b656e546f526563206e6f74206d657400000000604082015260600190565b6020808252601e908201527f556e7265636f676e697a656420777261702061646170746572206e616d650000604082015260600190565b6020808252818101527f4973737565206574686572207175616e74697479206d757374206265203e2030604082015260600190565b6020808252818101527f497373756520746f6b656e207175616e74697479206d757374206265203e2030604082015260600190565b60208082526016908201527517db5a5b9a9c151bdad95b949958c81b9bdd081b595d60521b604082015260600190565b6020808252601a908201527f5f6d6964546f6b656e73206c656e677468206d69736d61746368000000000000604082015260600190565b6020808252602a908201527f5361666545524332303a204552433230206f7065726174696f6e20646964206e6040820152691bdd081cdd58d8d9595960b21b606082015260800190565b6020808252601f908201527f5265656e7472616e637947756172643a207265656e7472616e742063616c6c00604082015260600190565b6020808252601d908201527f546f6b656e20746f2073656c6c206d757374206265206e6f6e7a65726f000000604082015260600190565b60208082526033908201527f4f6e6c7920706f7369746976652065787465726e616c20756e697420706f73696040820152721d1a5bdb9cc8185c99481cdd5c1c1bdc9d1959606a1b606082015260800190565b6020808252601290820152710dad2c8a8ded6cadce640dad2e6dac2e8c6d60731b604082015260600190565b6020808252600a90820152694120697320656d70747960b01b604082015260600190565b90815260200190565b6000848252836020830152606060408301526147da606083018461467e565b6040518181016001600160401b038111828210171561518457600080fd5b604052919050565b60006001600160401b038211156151a1578081fd5b5060209081020190565b60006001600160401b038211156151c0578081fd5b50601f01601f191660200190565b60005b838110156151e95781810151838201526020016151d1565b83811115610b9e5750506000910152565b6001600160a01b038116811461114657600080fd5b801515811461114657600080fdfea26469706673582212200714af01904169dd5fcd5f8723fc625c04f6f880741caf72aeb7077bbaadad3664736f6c634300060a0033","linkReferences":{}},"methodIdentifiers":{"controller()":"f77c4791","exchangeInfo(address)":"5f06cd2c","getAndValidateAdapter(string)":"aec06338","getRequiredComponentIssuanceUnits(address,uint256,bool)":"f1ca6a3f","initialize(address,address)":"485cc955","issueWithEther2(address,uint256,address[],uint256[],address,bool)":"c97b83b0","issueWithSingleToken2(address,address,uint256,uint256,address[],uint256[],address,bool)":"e9e6f5c1","managerIssuanceHook(address)":"dfe75335","owner()":"8da5cb5b","redeemToSingleToken(address,uint256,address,address[],address,uint256)":"6ac607a1","removeModule()":"847ef08d","renounceOwnership()":"715018a6","setExchanges(address[],string[])":"4ee05c4a","setWrapAdapters(address[],string[],address[])":"c1bd162b","transferOwnership(address)":"f2fde38b","weth()":"3fc8cef3","wrapInfo(address)":"de432138"},"id":30}