{"abi":[{"type":"constructor","inputs":[{"name":"_weth","type":"address","internalType":"address"}],"stateMutability":"nonpayable"},{"type":"function","name":"ETH_TOKEN_ADDRESS","inputs":[],"outputs":[{"name":"","type":"address","internalType":"address"}],"stateMutability":"view"},{"type":"function","name":"WETH","inputs":[],"outputs":[{"name":"","type":"address","internalType":"address"}],"stateMutability":"view"},{"type":"function","name":"getDepositUnderlyingTokenAmount","inputs":[{"name":"_underlyingToken","type":"address","internalType":"address"},{"name":"_wrappedToken","type":"address","internalType":"address"},{"name":"_wrappedAmount","type":"uint256","internalType":"uint256"}],"outputs":[{"name":"","type":"uint256","internalType":"uint256"}],"stateMutability":"view"},{"type":"function","name":"getSpenderAddress","inputs":[{"name":"","type":"address","internalType":"address"},{"name":"_wrappedToken","type":"address","internalType":"address"}],"outputs":[{"name":"","type":"address","internalType":"address"}],"stateMutability":"view"},{"type":"function","name":"getUnwrapCallData","inputs":[{"name":"_underlyingToken","type":"address","internalType":"address"},{"name":"_wrappedToken","type":"address","internalType":"address"},{"name":"_wrappedTokenUnits","type":"uint256","internalType":"uint256"}],"outputs":[{"name":"","type":"address","internalType":"address"},{"name":"","type":"uint256","internalType":"uint256"},{"name":"","type":"bytes","internalType":"bytes"}],"stateMutability":"view"},{"type":"function","name":"getUnwrapSpenderAddress","inputs":[{"name":"","type":"address","internalType":"address"},{"name":"_wrappedToken","type":"address","internalType":"address"}],"outputs":[{"name":"","type":"address","internalType":"address"}],"stateMutability":"view"},{"type":"function","name":"getWrapCallData","inputs":[{"name":"_underlyingToken","type":"address","internalType":"address"},{"name":"_wrappedToken","type":"address","internalType":"address"},{"name":"_underlyingUnits","type":"uint256","internalType":"uint256"}],"outputs":[{"name":"","type":"address","internalType":"address"},{"name":"","type":"uint256","internalType":"uint256"},{"name":"","type":"bytes","internalType":"bytes"}],"stateMutability":"view"},{"type":"function","name":"getWrapSpenderAddress","inputs":[{"name":"","type":"address","internalType":"address"},{"name":"_wrappedToken","type":"address","internalType":"address"}],"outputs":[{"name":"","type":"address","internalType":"address"}],"stateMutability":"view"}],"bytecode":{"object":"0x60a060405234801561001057600080fd5b5060405161098a38038061098a8339818101604052602081101561003357600080fd5b5051606081901b6001600160601b0319166080526001600160a01b031661091e61006c600039806105855280610651525061091e6000f3fe608060405234801561001057600080fd5b50600436106100885760003560e01c806383d918091161005b57806383d91809146101c7578063a22fe98e146101f5578063ad5c46481461022b578063de68a3da146101c757610088565b8063161aa6611461008d5780631878d1f1146100d557806377b1aaf8146100f95780637a6d0bd2146101c7575b600080fd5b6100c3600480360360608110156100a357600080fd5b506001600160a01b03813581169160208101359091169060400135610233565b60408051918252519081900360200190f35b6100dd6103eb565b604080516001600160a01b039092168252519081900360200190f35b61012f6004803603606081101561010f57600080fd5b506001600160a01b03813581169160208101359091169060400135610403565b60405180846001600160a01b03166001600160a01b0316815260200183815260200180602001828103825283818151815260200191508051906020019080838360005b8381101561018a578181015183820152602001610172565b50505050905090810190601f1680156101b75780820380516001836020036101000a031916815260200191505b5094505050505060405180910390f35b6100dd600480360360408110156101dd57600080fd5b506001600160a01b03813581169160200135166104d9565b61012f6004803603606081101561020b57600080fd5b506001600160a01b038135811691602081013590911690604001356104e1565b6100dd610583565b6000838361024182826105a7565b61028f576040805162461bcd60e51b815260206004820152601a60248201527926bab9ba1031329030903b30b634b2103a37b5b2b7103830b4b960311b604482015290519081900360640190fd5b8361029d57600092506103e2565b60008590506000816001600160a01b03166318160ddd6040518163ffffffff1660e01b815260040160206040518083038186803b1580156102dd57600080fd5b505afa1580156102f1573d6000803e3d6000fd5b505050506040513d602081101561030757600080fd5b50516040805163626be56760e01b815290519192506000916001600160a01b0385169163626be567916004808301926020929190829003018186803b15801561034f57600080fd5b505afa158015610363573d6000803e3d6000fd5b505050506040513d602081101561037957600080fd5b50519050811580610388575080155b15610398578695505050506103e2565b60006103db60016103cf856103c3836103b78e8963ffffffff61068d16565b9063ffffffff6106ed16565b9063ffffffff61072f16565b9063ffffffff61077116565b9650505050505b50509392505050565b73eeeeeeeeeeeeeeeeeeeeeeeeeeeeeeeeeeeeeeee81565b6000806060858561041482826105a7565b610462576040805162461bcd60e51b815260206004820152601a60248201527926bab9ba1031329030903b30b634b2103a37b5b2b7103830b4b960311b604482015290519081900360640190fd5b60006001600160a01b03891673eeeeeeeeeeeeeeeeeeeeeeeeeeeeeeeeeeeeeeee1415610490575085610494565b5060005b604080516024808201999099528151808203909901895260440190526020870180516001600160e01b031663b6b55f2560e01b17905296989697509495945050505050565b805b92915050565b600080606085856104f282826105a7565b610540576040805162461bcd60e51b815260206004820152601a60248201527926bab9ba1031329030903b30b634b2103a37b5b2b7103830b4b960311b604482015290519081900360640190fd5b5050604080516024808201969096528151808203909601865260440190525050506020810180516001600160e01b0316632e1a7d4d60e01b179052909260009250565b7f000000000000000000000000000000000000000000000000000000000000000081565b600080826001600160a01b031663fc0c546a6040518163ffffffff1660e01b815260040160206040518083038186803b1580156105e357600080fd5b505afa1580156105f7573d6000803e3d6000fd5b505050506040513d602081101561060d57600080fd5b505190506001600160a01b03841673eeeeeeeeeeeeeeeeeeeeeeeeeeeeeeeeeeeeeeee1461064f57836001600160a01b0316816001600160a01b031614610685565b7f00000000000000000000000000000000000000000000000000000000000000006001600160a01b0316816001600160a01b0316145b949350505050565b60008261069c575060006104db565b828202828482816106a957fe5b04146106e65760405162461bcd60e51b81526004018080602001828103825260218152602001806108c86021913960400191505060405180910390fd5b9392505050565b60006106e683836040518060400160405280601e81526020017f536166654d6174683a207375627472616374696f6e206f766572666c6f7700008152506107cb565b60006106e683836040518060400160405280601a81526020017f536166654d6174683a206469766973696f6e206279207a65726f000000000000815250610862565b6000828201838110156106e6576040805162461bcd60e51b815260206004820152601b60248201527f536166654d6174683a206164646974696f6e206f766572666c6f770000000000604482015290519081900360640190fd5b6000818484111561085a5760405162461bcd60e51b81526004018080602001828103825283818151815260200191508051906020019080838360005b8381101561081f578181015183820152602001610807565b50505050905090810190601f16801561084c5780820380516001836020036101000a031916815260200191505b509250505060405180910390fd5b505050900390565b600081836108b15760405162461bcd60e51b815260206004820181815283516024840152835190928392604490910191908501908083836000831561081f578181015183820152602001610807565b5060008385816108bd57fe5b049594505050505056fe536166654d6174683a206d756c7469706c69636174696f6e206f766572666c6f77a2646970667358221220d5606eb06dbda7f10c4e4ebd3ed7988ca1f89d06e77f59a6347968cc6017018864736f6c634300060a0033","linkReferences":{}},"methodIdentifiers":{"ETH_TOKEN_ADDRESS()":"1878d1f1","WETH()":"ad5c4648","getDepositUnderlyingTokenAmount(address,address,uint256)":"161aa661","getSpenderAddress(address,address)":"de68a3da","getUnwrapCallData(address,address,uint256)":"a22fe98e","getUnwrapSpenderAddress(address,address)":"83d91809","getWrapCallData(address,address,uint256)":"77b1aaf8","getWrapSpenderAddress(address,address)":"7a6d0bd2"},"id":23}