{"abi":[{"type":"constructor","inputs":[{"name":"_controller","type":"address","internalType":"contract IController"}],"stateMutability":"nonpayable"},{"type":"function","name":"controller","inputs":[],"outputs":[{"name":"","type":"address","internalType":"contract IController"}],"stateMutability":"view"},{"type":"function","name":"getAndValidateAdapter","inputs":[{"name":"_integrationName","type":"string","internalType":"string"}],"outputs":[{"name":"","type":"address","internalType":"address"}],"stateMutability":"view"},{"type":"function","name":"getRequiredComponentUnitsForIssue","inputs":[{"name":"_JPToken","type":"address","internalType":"contract IJPToken"},{"name":"_quantity","type":"uint256","internalType":"uint256"}],"outputs":[{"name":"","type":"address[]","internalType":"address[]"},{"name":"","type":"uint256[]","internalType":"uint256[]"}],"stateMutability":"view"},{"type":"function","name":"initialize","inputs":[{"name":"_JPToken","type":"address","internalType":"contract IJPToken"},{"name":"_preIssueHook","type":"address","internalType":"contract IManagerIssuanceHook"}],"outputs":[],"stateMutability":"nonpayable"},{"type":"function","name":"issue","inputs":[{"name":"_JPToken","type":"address","internalType":"contract IJPToken"},{"name":"_quantity","type":"uint256","internalType":"uint256"},{"name":"_to","type":"address","internalType":"address"}],"outputs":[],"stateMutability":"nonpayable"},{"type":"function","name":"managerIssuanceHook","inputs":[{"name":"","type":"address","internalType":"contract IJPToken"}],"outputs":[{"name":"","type":"address","internalType":"contract IManagerIssuanceHook"}],"stateMutability":"view"},{"type":"function","name":"redeem","inputs":[{"name":"_JPToken","type":"address","internalType":"contract IJPToken"},{"name":"_quantity","type":"uint256","internalType":"uint256"},{"name":"_to","type":"address","internalType":"address"}],"outputs":[],"stateMutability":"nonpayable"},{"type":"function","name":"removeModule","inputs":[],"outputs":[],"stateMutability":"nonpayable"},{"type":"event","name":"JPTokenIssued","inputs":[{"name":"_JPToken","type":"address","indexed":true,"internalType":"address"},{"name":"_issuer","type":"address","indexed":true,"internalType":"address"},{"name":"_to","type":"address","indexed":true,"internalType":"address"},{"name":"_hookContract","type":"address","indexed":false,"internalType":"address"},{"name":"_quantity","type":"uint256","indexed":false,"internalType":"uint256"}],"anonymous":false},{"type":"event","name":"JPTokenRedeemed","inputs":[{"name":"_JPToken","type":"address","indexed":true,"internalType":"address"},{"name":"_redeemer","type":"address","indexed":true,"internalType":"address"},{"name":"_to","type":"address","indexed":true,"internalType":"address"},{"name":"_quantity","type":"uint256","indexed":false,"internalType":"uint256"}],"anonymous":false}],"bytecode":{"object":"0x608060405234801561001057600080fd5b50604051611ded380380611ded83398101604081905261002f91610058565b600080546001600160a01b0319166001600160a01b039290921691909117905560018055610086565b600060208284031215610069578081fd5b81516001600160a01b038116811461007f578182fd5b9392505050565b611d58806100956000396000f3fe608060405234801561001057600080fd5b50600436106100885760003560e01c8063847ef08d1161005b578063847ef08d146100f2578063aec06338146100fa578063dfe753351461011a578063f77c47911461012d57610088565b8063485cc9551461008d5780635c833bfd146100a25780636d78f47a146100b55780637a4ffd03146100c8575b600080fd5b6100a061009b3660046115f5565b610135565b005b6100a06100b0366004611658565b6101cc565b6100a06100c3366004611658565b610480565b6100db6100d636600461162d565b6105ff565b6040516100e99291906117fd565b60405180910390f35b6100a06107a2565b61010d6101083660046116b1565b6107ba565b6040516100e99190611785565b61010d6101283660046115d9565b6107d8565b61010d6107f3565b81336101418282610802565b8361014b8161082c565b6001600160a01b0385811660008181526002602052604080822080546001600160a01b0319169489169490941790935582516307ff078f60e11b815292519192630ffe0f1e926004808301939282900301818387803b1580156101ad57600080fd5b505af11580156101c1573d6000803e3d6000fd5b505050505050505050565b600260015414156101f85760405162461bcd60e51b81526004016101ef90611c56565b60405180910390fd5b600260015582610207816108f0565b600083116102275760405162461bcd60e51b81526004016101ef906118c9565b604051632770a7eb60e21b81526001600160a01b03851690639dc29fac906102559033908790600401611799565b600060405180830381600087803b15801561026f57600080fd5b505af1158015610283573d6000803e3d6000fd5b505050506060846001600160a01b03166399d50d5d6040518163ffffffff1660e01b815260040160006040518083038186803b1580156102c257600080fd5b505afa1580156102d6573d6000803e3d6000fd5b505050506040513d6000823e601f3d908101601f191682016040526102fe9190810190611493565b905060005b815181101561041f57600082828151811061031a57fe5b6020026020010151905061034081886001600160a01b031661091590919063ffffffff16565b1561035d5760405162461bcd60e51b81526004016101ef90611987565b60006103e3886001600160a01b03166366cb8d2f846040518263ffffffff1660e01b815260040161038e9190611785565b60206040518083038186803b1580156103a657600080fd5b505afa1580156103ba573d6000803e3d6000fd5b505050506040513d601f19601f820116820180604052508101906103de9190611699565b6109a3565b905060006103f7888363ffffffff6109c916565b90506104146001600160a01b038a1684898463ffffffff6109f316565b505050600101610303565b50826001600160a01b0316336001600160a01b0316866001600160a01b03167fd6d0d7732aa8c60b86a6c4e0c96716d9692fed0f893a23e9d25c158ead9050a38760405161046d9190611c8d565b60405180910390a4505060018055505050565b600260015414156104a35760405162461bcd60e51b81526004016101ef90611c56565b6002600155826104b2816108f0565b600083116104d25760405162461bcd60e51b81526004016101ef90611a02565b60006104e085853386610b3e565b90506060806104ef87876105ff565b909250905060005b825181101561053a5761053283828151811061050f57fe5b6020026020010151338a85858151811061052557fe5b6020026020010151610bdc565b6001016104f7565b506040516340c10f1960e01b81526001600160a01b038816906340c10f19906105699088908a90600401611799565b600060405180830381600087803b15801561058357600080fd5b505af1158015610597573d6000803e3d6000fd5b50505050846001600160a01b0316336001600160a01b0316886001600160a01b03167ff2144fc3d451834403dd17f4ded401b6af34c15ca6b7c07aa9f891f3a33f16b8868a6040516105ea929190611799565b60405180910390a45050600180555050505050565b6060808361060c816108f0565b6060856001600160a01b03166399d50d5d6040518163ffffffff1660e01b815260040160006040518083038186803b15801561064757600080fd5b505afa15801561065b573d6000803e3d6000fd5b505050506040513d6000823e601f3d908101601f191682016040526106839190810190611493565b90506060815167ffffffffffffffff8111801561069f57600080fd5b506040519080825280602002602001820160405280156106c9578160200160208202803683370190505b50905060005b8251811015610795576107078382815181106106e757fe5b6020026020010151896001600160a01b031661091590919063ffffffff16565b156107245760405162461bcd60e51b81526004016101ef90611987565b6107768761076a8a6001600160a01b03166366cb8d2f87868151811061074657fe5b60200260200101516040518263ffffffff1660e01b815260040161038e9190611785565b9063ffffffff610be816565b82828151811061078257fe5b60209081029190910101526001016106cf565b5090969095509350505050565b60405162461bcd60e51b81526004016101ef90611937565b6000806107c683610c3f565b90506107d181610c4a565b9392505050565b6002602052600090815260409020546001600160a01b031681565b6000546001600160a01b031681565b61080c8282610d07565b6108285760405162461bcd60e51b81526004016101ef90611ae4565b5050565b600054604051635ae5900360e01b81526001600160a01b0390911690635ae590039061085c908490600401611785565b60206040518083038186803b15801561087457600080fd5b505afa158015610888573d6000803e3d6000fd5b505050506040513d601f19601f820116820180604052508101906108ac919061153e565b6108c85760405162461bcd60e51b81526004016101ef90611b93565b6108d181610d95565b6108ed5760405162461bcd60e51b81526004016101ef906119cb565b50565b6108f981610e14565b6108ed5760405162461bcd60e51b81526004016101ef90611a39565b600080836001600160a01b031663a7bdad03846040518263ffffffff1660e01b81526004016109449190611785565b60006040518083038186803b15801561095c57600080fd5b505afa158015610970573d6000803e3d6000fd5b505050506040513d6000823e601f3d908101601f191682016040526109989190810190611493565b511190505b92915050565b6000808212156109c55760405162461bcd60e51b81526004016101ef90611aaf565b5090565b60006107d1670de0b6b3a76400006109e7858563ffffffff610ec816565b9063ffffffff610f0216565b8015610b38576040516370a0823160e01b81526000906001600160a01b038516906370a0823190610a28908890600401611785565b60206040518083038186803b158015610a4057600080fd5b505afa158015610a54573d6000803e3d6000fd5b505050506040513d601f19601f82011682018060405250810190610a789190611699565b9050610a8685858585610f44565b6040516370a0823160e01b81526000906001600160a01b038616906370a0823190610ab5908990600401611785565b60206040518083038186803b158015610acd57600080fd5b505afa158015610ae1573d6000803e3d6000fd5b505050506040513d601f19601f82011682018060405250810190610b059190611699565b9050610b17828463ffffffff61101116565b8114610b355760405162461bcd60e51b81526004016101ef90611b5c565b50505b50505050565b6001600160a01b038085166000908152600260205260408120549091168015610bce5760405163a045808360e01b81526001600160a01b0382169063a045808390610b9390899089908990899060040161188b565b600060405180830381600087803b158015610bad57600080fd5b505af1158015610bc1573d6000803e3d6000fd5b5050505080915050610bd4565b60009150505b949350505050565b610b3884848484611053565b6000821580610bf5575081155b15610c025750600061099d565b6107d16001610c33670de0b6b3a76400006109e783610c27898963ffffffff610ec816565b9063ffffffff61101116565b9063ffffffff61117716565b805160209091012090565b600080548190610c62906001600160a01b031661119c565b6001600160a01b031663e6d642c530856040518363ffffffff1660e01b8152600401610c8f929190611799565b60206040518083038186803b158015610ca757600080fd5b505afa158015610cbb573d6000803e3d6000fd5b505050506040513d601f19601f82011682018060405250810190610cdf9190611477565b90506001600160a01b03811661099d5760405162461bcd60e51b81526004016101ef90611a80565b6000816001600160a01b0316836001600160a01b031663481c6a756040518163ffffffff1660e01b815260040160206040518083038186803b158015610d4c57600080fd5b505afa158015610d60573d6000803e3d6000fd5b505050506040513d601f19601f82011682018060405250810190610d849190611477565b6001600160a01b0316149392505050565b6040516353bae5f760e01b81526000906001600160a01b038316906353bae5f790610dc4903090600401611785565b60206040518083038186803b158015610ddc57600080fd5b505afa158015610df0573d6000803e3d6000fd5b505050506040513d601f19601f8201168201806040525081019061099d919061153e565b60008054604051635ae5900360e01b81526001600160a01b0390911690635ae5900390610e45908590600401611785565b60206040518083038186803b158015610e5d57600080fd5b505afa158015610e71573d6000803e3d6000fd5b505050506040513d601f19601f82011682018060405250810190610e95919061153e565b801561099d57506040516335fc6c9f60e21b81526001600160a01b0383169063d7f1b27c90610dc4903090600401611785565b600082610ed75750600061099d565b82820282848281610ee457fe5b04146107d15760405162461bcd60e51b81526004016101ef90611b1b565b60006107d183836040518060400160405280601a81526020017f536166654d6174683a206469766973696f6e206279207a65726f00000000000081525061121b565b8015610b385760608282604051602401610f5f929190611799565b60408051601f198184030181529181526020820180516001600160e01b031663a9059cbb60e01b179052516347b7819960e11b81529091506001600160a01b03861690638f6f033290610fbb90879060009086906004016117d6565b600060405180830381600087803b158015610fd557600080fd5b505af1158015610fe9573d6000803e3d6000fd5b505050506040513d6000823e601f3d908101601f19168201604052610b35919081019061155e565b60006107d183836040518060400160405280601e81526020017f536166654d6174683a207375627472616374696f6e206f766572666c6f770000815250611252565b8015610b38576040516370a0823160e01b81526000906001600160a01b038616906370a0823190611088908690600401611785565b60206040518083038186803b1580156110a057600080fd5b505afa1580156110b4573d6000803e3d6000fd5b505050506040513d601f19601f820116820180604052508101906110d89190611699565b90506110e68585858561127e565b6040516370a0823160e01b81526000906001600160a01b038716906370a0823190611115908790600401611785565b60206040518083038186803b15801561112d57600080fd5b505afa158015611141573d6000803e3d6000fd5b505050506040513d601f19601f820116820180604052508101906111659190611699565b9050610b17828463ffffffff61117716565b6000828201838110156107d15760405162461bcd60e51b81526004016101ef90611900565b6040516373b2e76b60e11b81526000906001600160a01b0383169063e765ced6906111cb908490600401611c8d565b60206040518083038186803b1580156111e357600080fd5b505afa1580156111f7573d6000803e3d6000fd5b505050506040513d601f19601f8201168201806040525081019061099d9190611477565b6000818361123c5760405162461bcd60e51b81526004016101ef91906118b6565b50600083858161124857fe5b0495945050505050565b600081848411156112765760405162461bcd60e51b81526004016101ef91906118b6565b505050900390565b610b38846323b872dd60e01b85858560405160240161129f939291906117b2565b60408051601f198184030181529190526020810180516001600160e01b03166001600160e01b0319909316929092179091526060611326826040518060400160405280602081526020017f5361666545524332303a206c6f772d6c6576656c2063616c6c206661696c6564815250856001600160a01b03166113659092919063ffffffff16565b8051909150156113605780806020019051810190611344919061153e565b6113605760405162461bcd60e51b81526004016101ef90611c0c565b505050565b6060610bd48484600085606061137a85611433565b6113965760405162461bcd60e51b81526004016101ef90611bd5565b60006060866001600160a01b031685876040516113b39190611769565b60006040518083038185875af1925050503d80600081146113f0576040519150601f19603f3d011682016040523d82523d6000602084013e6113f5565b606091505b50915091508115611409579150610bd49050565b8051156114195780518082602001fd5b8360405162461bcd60e51b81526004016101ef91906118b6565b6000813f7fc5d2460186f7233c927e7db2dcc703c0e500b653ca82273b7bfad8045d85a470818114801590610bd4575050151592915050565b805161099d81611d0d565b600060208284031215611488578081fd5b81516107d181611d0d565b600060208083850312156114a5578182fd5b825167ffffffffffffffff808211156114bc578384fd5b81850186601f8201126114cd578485fd5b80519250818311156114dd578485fd5b83830291506114ed848301611c96565b8381528481019082860184840187018a1015611507578788fd5b8794505b858510156115315761151d8a8261146c565b83526001949094019391860191860161150b565b5098975050505050505050565b60006020828403121561154f578081fd5b815180151581146107d1578182fd5b60006020828403121561156f578081fd5b815167ffffffffffffffff811115611585578182fd5b80830184601f820112611596578283fd5b805191506115ab6115a683611cbd565b611c96565b8281528560208484010111156115bf578384fd5b6115d0836020830160208501611ce1565b95945050505050565b6000602082840312156115ea578081fd5b81356107d181611d0d565b60008060408385031215611607578081fd5b823561161281611d0d565b9150602083013561162281611d0d565b809150509250929050565b6000806040838503121561163f578182fd5b823561164a81611d0d565b946020939093013593505050565b60008060006060848603121561166c578081fd5b833561167781611d0d565b925060208401359150604084013561168e81611d0d565b809150509250925092565b6000602082840312156116aa578081fd5b5051919050565b6000602082840312156116c2578081fd5b813567ffffffffffffffff8111156116d8578182fd5b80830184601f8201126116e9578283fd5b803591506116f96115a683611cbd565b82815285602084840101111561170d578384fd5b82602083016020830137918201602001929092529392505050565b815260200190565b6001600160a01b03169052565b60008151808452611755816020860160208601611ce1565b601f01601f19169290920160200192915050565b6000825161177b818460208701611ce1565b9190910192915050565b6001600160a01b0391909116815260200190565b6001600160a01b03929092168252602082015260400190565b6001600160a01b039384168152919092166020820152604081019190915260600190565b600060018060a01b0385168252836020830152606060408301526115d0606083018461173d565b604080825283519082018190526000906020906060840190828701845b8281101561183d5761182d848351611730565b928401929084019060010161181a565b505050838103828501528085516118548184611c8d565b91508387019250845b8181101561187e57611870838551611728565b93850193925060010161185d565b5090979650505050505050565b6001600160a01b03948516815260208101939093529083166040830152909116606082015260800190565b6000602082526107d1602083018461173d565b6020808252601b908201527f52656465656d207175616e74697479206d757374206265203e20300000000000604082015260600190565b6020808252601b908201527f536166654d6174683a206164646974696f6e206f766572666c6f770000000000604082015260600190565b60208082526030908201527f54686520426173696349737375616e63654d6f64756c65206d6f64756c65206360408201526f185b9b9bdd081899481c995b5bdd995960821b606082015260800190565b60208082526024908201527f4f6e6c792064656661756c7420706f736974696f6e732061726520737570706f6040820152631c9d195960e21b606082015260800190565b6020808252601e908201527f4d7573742062652070656e64696e6720696e697469616c697a6174696f6e0000604082015260600190565b6020808252601a908201527f4973737565207175616e74697479206d757374206265203e2030000000000000604082015260600190565b60208082526027908201527f4d75737420626520612076616c696420616e6420696e697469616c697a65642060408201526625282a37b5b2b760c91b606082015260800190565b60208082526015908201527426bab9ba103132903b30b634b21030b230b83a32b960591b604082015260600190565b6020808252818101527f53616665436173743a2076616c7565206d75737420626520706f736974697665604082015260600190565b6020808252601b908201527f4d75737420626520746865204a50546f6b656e206d616e616765720000000000604082015260600190565b60208082526021908201527f536166654d6174683a206d756c7469706c69636174696f6e206f766572666c6f6040820152607760f81b606082015260800190565b6020808252601d908201527f496e76616c696420706f7374207472616e736665722062616c616e6365000000604082015260600190565b60208082526022908201527f4d75737420626520636f6e74726f6c6c65722d656e61626c6564204a50546f6b60408201526132b760f11b606082015260800190565b6020808252601d908201527f416464726573733a2063616c6c20746f206e6f6e2d636f6e7472616374000000604082015260600190565b6020808252602a908201527f5361666545524332303a204552433230206f7065726174696f6e20646964206e6040820152691bdd081cdd58d8d9595960b21b606082015260800190565b6020808252601f908201527f5265656e7472616e637947756172643a207265656e7472616e742063616c6c00604082015260600190565b90815260200190565b60405181810167ffffffffffffffff81118282101715611cb557600080fd5b604052919050565b600067ffffffffffffffff821115611cd3578081fd5b50601f01601f191660200190565b60005b83811015611cfc578181015183820152602001611ce4565b83811115610b385750506000910152565b6001600160a01b03811681146108ed57600080fdfea2646970667358221220004e050515aa2772dd83ff8f0b11594c63750824fc9e61bc0879d7b74260efd464736f6c634300060a0033","linkReferences":{}},"methodIdentifiers":{"controller()":"f77c4791","getAndValidateAdapter(string)":"aec06338","getRequiredComponentUnitsForIssue(address,uint256)":"7a4ffd03","initialize(address,address)":"485cc955","issue(address,uint256,address)":"6d78f47a","managerIssuanceHook(address)":"dfe75335","redeem(address,uint256,address)":"5c833bfd","removeModule()":"847ef08d"},"id":76}