{"abi":[{"type":"constructor","inputs":[{"name":"_feeRecipient","type":"address","internalType":"address"}],"stateMutability":"nonpayable"},{"type":"function","name":"addFactory","inputs":[{"name":"_factory","type":"address","internalType":"address"}],"outputs":[],"stateMutability":"nonpayable"},{"type":"function","name":"addFee","inputs":[{"name":"_module","type":"address","internalType":"address"},{"name":"_feeType","type":"uint256","internalType":"uint256"},{"name":"_newFeePercentage","type":"uint256","internalType":"uint256"}],"outputs":[],"stateMutability":"nonpayable"},{"type":"function","name":"addJP","inputs":[{"name":"_jpToken","type":"address","internalType":"address"}],"outputs":[],"stateMutability":"nonpayable"},{"type":"function","name":"addModule","inputs":[{"name":"_module","type":"address","internalType":"address"}],"outputs":[],"stateMutability":"nonpayable"},{"type":"function","name":"addResource","inputs":[{"name":"_resource","type":"address","internalType":"address"},{"name":"_id","type":"uint256","internalType":"uint256"}],"outputs":[],"stateMutability":"nonpayable"},{"type":"function","name":"editFee","inputs":[{"name":"_module","type":"address","internalType":"address"},{"name":"_feeType","type":"uint256","internalType":"uint256"},{"name":"_newFeePercentage","type":"uint256","internalType":"uint256"}],"outputs":[],"stateMutability":"nonpayable"},{"type":"function","name":"editFeeRecipient","inputs":[{"name":"_newFeeRecipient","type":"address","internalType":"address"}],"outputs":[],"stateMutability":"nonpayable"},{"type":"function","name":"factories","inputs":[{"name":"","type":"uint256","internalType":"uint256"}],"outputs":[{"name":"","type":"address","internalType":"address"}],"stateMutability":"view"},{"type":"function","name":"feeRecipient","inputs":[],"outputs":[{"name":"","type":"address","internalType":"address"}],"stateMutability":"view"},{"type":"function","name":"fees","inputs":[{"name":"","type":"address","internalType":"address"},{"name":"","type":"uint256","internalType":"uint256"}],"outputs":[{"name":"","type":"uint256","internalType":"uint256"}],"stateMutability":"view"},{"type":"function","name":"getFactories","inputs":[],"outputs":[{"name":"","type":"address[]","internalType":"address[]"}],"stateMutability":"view"},{"type":"function","name":"getJPs","inputs":[],"outputs":[{"name":"","type":"address[]","internalType":"address[]"}],"stateMutability":"view"},{"type":"function","name":"getModuleFee","inputs":[{"name":"_moduleAddress","type":"address","internalType":"address"},{"name":"_feeType","type":"uint256","internalType":"uint256"}],"outputs":[{"name":"","type":"uint256","internalType":"uint256"}],"stateMutability":"view"},{"type":"function","name":"getModules","inputs":[],"outputs":[{"name":"","type":"address[]","internalType":"address[]"}],"stateMutability":"view"},{"type":"function","name":"getResources","inputs":[],"outputs":[{"name":"","type":"address[]","internalType":"address[]"}],"stateMutability":"view"},{"type":"function","name":"initialize","inputs":[{"name":"_factories","type":"address[]","internalType":"address[]"},{"name":"_modules","type":"address[]","internalType":"address[]"},{"name":"_resources","type":"address[]","internalType":"address[]"},{"name":"_resourceIds","type":"uint256[]","internalType":"uint256[]"}],"outputs":[],"stateMutability":"nonpayable"},{"type":"function","name":"isFactory","inputs":[{"name":"","type":"address","internalType":"address"}],"outputs":[{"name":"","type":"bool","internalType":"bool"}],"stateMutability":"view"},{"type":"function","name":"isInitialized","inputs":[],"outputs":[{"name":"","type":"bool","internalType":"bool"}],"stateMutability":"view"},{"type":"function","name":"isJP","inputs":[{"name":"","type":"address","internalType":"address"}],"outputs":[{"name":"","type":"bool","internalType":"bool"}],"stateMutability":"view"},{"type":"function","name":"isModule","inputs":[{"name":"","type":"address","internalType":"address"}],"outputs":[{"name":"","type":"bool","internalType":"bool"}],"stateMutability":"view"},{"type":"function","name":"isResource","inputs":[{"name":"","type":"address","internalType":"address"}],"outputs":[{"name":"","type":"bool","internalType":"bool"}],"stateMutability":"view"},{"type":"function","name":"isSystemContract","inputs":[{"name":"_contractAddress","type":"address","internalType":"address"}],"outputs":[{"name":"","type":"bool","internalType":"bool"}],"stateMutability":"view"},{"type":"function","name":"jps","inputs":[{"name":"","type":"uint256","internalType":"uint256"}],"outputs":[{"name":"","type":"address","internalType":"address"}],"stateMutability":"view"},{"type":"function","name":"modules","inputs":[{"name":"","type":"uint256","internalType":"uint256"}],"outputs":[{"name":"","type":"address","internalType":"address"}],"stateMutability":"view"},{"type":"function","name":"owner","inputs":[],"outputs":[{"name":"","type":"address","internalType":"address"}],"stateMutability":"view"},{"type":"function","name":"removeFactory","inputs":[{"name":"_factory","type":"address","internalType":"address"}],"outputs":[],"stateMutability":"nonpayable"},{"type":"function","name":"removeJP","inputs":[{"name":"_jpToken","type":"address","internalType":"address"}],"outputs":[],"stateMutability":"nonpayable"},{"type":"function","name":"removeModule","inputs":[{"name":"_module","type":"address","internalType":"address"}],"outputs":[],"stateMutability":"nonpayable"},{"type":"function","name":"removeResource","inputs":[{"name":"_id","type":"uint256","internalType":"uint256"}],"outputs":[],"stateMutability":"nonpayable"},{"type":"function","name":"renounceOwnership","inputs":[],"outputs":[],"stateMutability":"nonpayable"},{"type":"function","name":"resourceId","inputs":[{"name":"","type":"uint256","internalType":"uint256"}],"outputs":[{"name":"","type":"address","internalType":"address"}],"stateMutability":"view"},{"type":"function","name":"resources","inputs":[{"name":"","type":"uint256","internalType":"uint256"}],"outputs":[{"name":"","type":"address","internalType":"address"}],"stateMutability":"view"},{"type":"function","name":"transferOwnership","inputs":[{"name":"newOwner","type":"address","internalType":"address"}],"outputs":[],"stateMutability":"nonpayable"},{"type":"event","name":"FactoryAdded","inputs":[{"name":"_factory","type":"address","indexed":true,"internalType":"address"}],"anonymous":false},{"type":"event","name":"FactoryRemoved","inputs":[{"name":"_factory","type":"address","indexed":true,"internalType":"address"}],"anonymous":false},{"type":"event","name":"FeeEdited","inputs":[{"name":"_module","type":"address","indexed":true,"internalType":"address"},{"name":"_feeType","type":"uint256","indexed":true,"internalType":"uint256"},{"name":"_feePercentage","type":"uint256","indexed":false,"internalType":"uint256"}],"anonymous":false},{"type":"event","name":"FeeRecipientChanged","inputs":[{"name":"_newFeeRecipient","type":"address","indexed":false,"internalType":"address"}],"anonymous":false},{"type":"event","name":"JPAdded","inputs":[{"name":"_jpToken","type":"address","indexed":true,"internalType":"address"},{"name":"_factory","type":"address","indexed":true,"internalType":"address"}],"anonymous":false},{"type":"event","name":"JPRemoved","inputs":[{"name":"_jpToken","type":"address","indexed":true,"internalType":"address"}],"anonymous":false},{"type":"event","name":"ModuleAdded","inputs":[{"name":"_module","type":"address","indexed":true,"internalType":"address"}],"anonymous":false},{"type":"event","name":"ModuleRemoved","inputs":[{"name":"_module","type":"address","indexed":true,"internalType":"address"}],"anonymous":false},{"type":"event","name":"OwnershipTransferred","inputs":[{"name":"previousOwner","type":"address","indexed":true,"internalType":"address"},{"name":"newOwner","type":"address","indexed":true,"internalType":"address"}],"anonymous":false},{"type":"event","name":"ResourceAdded","inputs":[{"name":"_resource","type":"address","indexed":true,"internalType":"address"},{"name":"_id","type":"uint256","indexed":false,"internalType":"uint256"}],"anonymous":false},{"type":"event","name":"ResourceRemoved","inputs":[{"name":"_resource","type":"address","indexed":true,"internalType":"address"},{"name":"_id","type":"uint256","indexed":false,"internalType":"uint256"}],"anonymous":false}],"bytecode":{"object":"0x608060405234801561001057600080fd5b506040516200299d3803806200299d8339818101604052602081101561003557600080fd5b5051600061004a6001600160e01b036100b916565b600080546001600160a01b0319166001600160a01b0383169081178255604051929350917f8be0079c531659141344cd1fd0a4f28419497f9722a3daafe3b4186f6b6457e0908290a350600b80546001600160a01b0319166001600160a01b03929092169190911790556100bd565b3390565b6128d080620000cd6000396000f3fe608060405234801561001057600080fd5b50600436106101fb5760003560e01c8063715018a61161011a578063a3c56615116100ad578063c9c986321161007c578063c9c98632146107d6578063e0b75317146107de578063e765ced61461080a578063f2fde38b14610827578063f36b9a9a1461084d576101fb565b8063a3c5661514610579578063b2494df3146107a0578063c1cc57b0146107a8578063c5bb387b146107b0576101fb565b806381b2248a116100e957806381b2248a146105085780638da5cb5b146105255780639a76c4b21461052d578063a063246114610553576101fb565b8063715018a61461044a57806376a5bcf614610452578063792aa04f146104845780637e6cbb6a146104b0576101fb565b8063263a536211610192578063469048401161016157806346904840146103d95780634b37c73f146103e15780635ae5900314610407578063672383c41461042d576101fb565b8063263a53621461034757806329ce1ec514610385578063392e53cd146103ab57806342f6e389146103b3576101fb565b806314bf47bf116101ce57806314bf47bf146102b85780631ed86f19146102de578063207a948514610304578063244d6daa1461032a576101fb565b806301b98339146102005780630f04ba671461021f5780630f9b25031461025957806313bc6d4b14610292575b600080fd5b61021d6004803603602081101561021657600080fd5b503561087f565b005b6102456004803603602081101561023557600080fd5b50356001600160a01b0316610a81565b604080519115158252519081900360200190f35b6102766004803603602081101561026f57600080fd5b5035610a96565b604080516001600160a01b039092168252519081900360200190f35b610245600480360360208110156102a857600080fd5b50356001600160a01b0316610abd565b61021d600480360360208110156102ce57600080fd5b50356001600160a01b0316610b5b565b61021d600480360360208110156102f457600080fd5b50356001600160a01b0316610d29565b6102456004803603602081101561031a57600080fd5b50356001600160a01b0316610ebf565b6102766004803603602081101561034057600080fd5b5035610ed4565b6103736004803603604081101561035d57600080fd5b506001600160a01b038135169060200135610ee1565b60408051918252519081900360200190f35b61021d6004803603602081101561039b57600080fd5b50356001600160a01b0316610efe565b610245611095565b610245600480360360208110156103c957600080fd5b50356001600160a01b03166110a5565b6102766110ba565b61021d600480360360208110156103f757600080fd5b50356001600160a01b03166110c9565b6102456004803603602081101561041d57600080fd5b50356001600160a01b031661129c565b6102766004803603602081101561044357600080fd5b50356112b1565b61021d6112be565b61021d6004803603606081101561046857600080fd5b506001600160a01b038135169060208101359060400135611360565b6103736004803603604081101561049a57600080fd5b506001600160a01b038135169060200135611527565b6104b861154f565b60408051602080825283518183015283519192839290830191858101910280838360005b838110156104f45781810151838201526020016104dc565b505050509050019250505060405180910390f35b6102766004803603602081101561051e57600080fd5b50356115b2565b6102766115bf565b61021d6004803603602081101561054357600080fd5b50356001600160a01b03166115ce565b61021d6004803603602081101561056957600080fd5b50356001600160a01b031661176d565b61021d6004803603608081101561058f57600080fd5b810190602081018135600160201b8111156105a957600080fd5b8201836020820111156105bb57600080fd5b803590602001918460208302840111600160201b831117156105dc57600080fd5b9190808060200260200160405190810160405280939291908181526020018383602002808284376000920191909152509295949360208101935035915050600160201b81111561062b57600080fd5b82018360208201111561063d57600080fd5b803590602001918460208302840111600160201b8311171561065e57600080fd5b9190808060200260200160405190810160405280939291908181526020018383602002808284376000920191909152509295949360208101935035915050600160201b8111156106ad57600080fd5b8201836020820111156106bf57600080fd5b803590602001918460208302840111600160201b831117156106e057600080fd5b9190808060200260200160405190810160405280939291908181526020018383602002808284376000920191909152509295949360208101935035915050600160201b81111561072f57600080fd5b82018360208201111561074157600080fd5b803590602001918460208302840111600160201b8311171561076257600080fd5b91908080602002602001604051908101604052809392919081815260200183836020028082843760009201919091525092955061193f945050505050565b6104b8611def565b6104b8611e4f565b61021d600480360360208110156107c657600080fd5b50356001600160a01b0316611eaf565b6104b8611ffa565b61021d600480360360408110156107f457600080fd5b506001600160a01b03813516906020013561205a565b6102766004803603602081101561082057600080fd5b5035612289565b61021d6004803603602081101561083d57600080fd5b50356001600160a01b03166122a4565b61021d6004803603606081101561086357600080fd5b506001600160a01b03813516906020810135906040013561239c565b600b54600160a01b900460ff166108cb576040805162461bcd60e51b815260206004820152601d602482015260008051602061285a833981519152604482015290519081900360640190fd5b6108d3612505565b6000546001600160a01b03908116911614610923576040805162461bcd60e51b8152602060048201819052602482015260008051602061283a833981519152604482015290519081900360640190fd5b6000818152600a60205260409020546001600160a01b03168061098d576040805162461bcd60e51b815260206004820152601760248201527f5265736f7572636520646f6573206e6f74206578697374000000000000000000604482015290519081900360640190fd5b6109fa8160048054806020026020016040519081016040528092919081815260200182805480156109e757602002820191906000526020600020905b81546001600160a01b031681526001909101906020018083116109c9575b505050505061250990919063ffffffff16565b8051610a0e91600491602090910190612748565b506000828152600a6020908152604080832080546001600160a01b03191690556001600160a01b0384168084526008835292819020805460ff19169055805185815290517fbc7961276d9fc2a4fe4fc4d817e48d15615364e5df46fa0d8fb45637582ae4f8929181900390910190a25050565b60066020526000908152604090205460ff1681565b60018181548110610aa357fe5b6000918252602090912001546001600160a01b0316905081565b6001600160a01b03811660009081526005602052604081205460ff1680610afc57506001600160a01b03821660009081526007602052604090205460ff165b80610b1f57506001600160a01b03821660009081526008602052604090205460ff165b80610b4257506001600160a01b03821660009081526006602052604090205460ff165b80610b5557506001600160a01b03821630145b92915050565b600b54600160a01b900460ff16610ba7576040805162461bcd60e51b815260206004820152601d602482015260008051602061285a833981519152604482015290519081900360640190fd5b610baf612505565b6000546001600160a01b03908116911614610bff576040805162461bcd60e51b8152602060048201819052602482015260008051602061283a833981519152604482015290519081900360640190fd5b6001600160a01b03811660009081526005602052604090205460ff16610c60576040805162461bcd60e51b8152602060048201526011602482015270129408191bd95cc81b9bdd08195e1a5cdd607a1b604482015290519081900360640190fd5b610ccb8160018054806020026020016040519081016040528092919081815260200182805480156109e7576020028201919060005260206000209081546001600160a01b031681526001909101906020018083116109c957505050505061250990919063ffffffff16565b8051610cdf91600191602090910190612748565b506001600160a01b038116600081815260056020526040808220805460ff19169055517f4dd76ac7b0c803e675e2c6a4ecfd6c93084601615ae0cc09b5df8247143f2a739190a250565b600b54600160a01b900460ff16610d75576040805162461bcd60e51b815260206004820152601d602482015260008051602061285a833981519152604482015290519081900360640190fd5b610d7d612505565b6000546001600160a01b03908116911614610dcd576040805162461bcd60e51b8152602060048201819052602482015260008051602061283a833981519152604482015290519081900360640190fd5b6001600160a01b03811660009081526007602052604090205460ff1615610e33576040805162461bcd60e51b81526020600482015260156024820152744d6f64756c6520616c72656164792065786973747360581b604482015290519081900360640190fd5b6001600160a01b038116600081815260076020526040808220805460ff1916600190811790915560038054918201815583527fc2575a0e9e593c00f959f8c92f12db2869c3395a3b0502d05e2516446f71f85b0180546001600160a01b03191684179055517fead6a006345da1073a106d5f32372d2d2204f46cb0b4bca8f5ebafcbbed12b8a9190a250565b60086020526000908152604090205460ff1681565b60048181548110610aa357fe5b600960209081526000928352604080842090915290825290205481565b600b54600160a01b900460ff16610f4a576040805162461bcd60e51b815260206004820152601d602482015260008051602061285a833981519152604482015290519081900360640190fd5b610f52612505565b6000546001600160a01b03908116911614610fa2576040805162461bcd60e51b8152602060048201819052602482015260008051602061283a833981519152604482015290519081900360640190fd5b6001600160a01b03811660009081526006602052604090205460ff1615611009576040805162461bcd60e51b8152602060048201526016602482015275466163746f727920616c72656164792065786973747360501b604482015290519081900360640190fd5b6001600160a01b038116600081815260066020526040808220805460ff1916600190811790915560028054918201815583527f405787fa12a823e0f2b7631cc41b3ba8828b3321ca811111fa75cd3aa3bb5ace0180546001600160a01b03191684179055517f6fdc0147105e43e21da80a75b42d0fd464060d5e1a34b0cefbf0b4ccfc2e36a19190a250565b600b54600160a01b900460ff1681565b60076020526000908152604090205460ff1681565b600b546001600160a01b031681565b600b54600160a01b900460ff16611115576040805162461bcd60e51b815260206004820152601d602482015260008051602061285a833981519152604482015290519081900360640190fd5b61111d612505565b6000546001600160a01b0390811691161461116d576040805162461bcd60e51b8152602060048201819052602482015260008051602061283a833981519152604482015290519081900360640190fd5b6001600160a01b03811660009081526006602052604090205460ff166111d3576040805162461bcd60e51b8152602060048201526016602482015275119858dd1bdc9e48191bd95cc81b9bdd08195e1a5cdd60521b604482015290519081900360640190fd5b61123e8160028054806020026020016040519081016040528092919081815260200182805480156109e7576020028201919060005260206000209081546001600160a01b031681526001909101906020018083116109c957505050505061250990919063ffffffff16565b805161125291600291602090910190612748565b506001600160a01b038116600081815260066020526040808220805460ff19169055517fafa2737b2090fa39c66b7348625f0c03726240f724defbc6216d679506f944419190a250565b60056020526000908152604090205460ff1681565b60028181548110610aa357fe5b6112c6612505565b6000546001600160a01b03908116911614611316576040805162461bcd60e51b8152602060048201819052602482015260008051602061283a833981519152604482015290519081900360640190fd5b600080546040516001600160a01b03909116907f8be0079c531659141344cd1fd0a4f28419497f9722a3daafe3b4186f6b6457e0908390a3600080546001600160a01b0319169055565b600b54600160a01b900460ff166113ac576040805162461bcd60e51b815260206004820152601d602482015260008051602061285a833981519152604482015290519081900360640190fd5b6113b4612505565b6000546001600160a01b03908116911614611404576040805162461bcd60e51b8152602060048201819052602482015260008051602061283a833981519152604482015290519081900360640190fd5b6001600160a01b03831660009081526007602052604090205460ff16611469576040805162461bcd60e51b8152602060048201526015602482015274135bd91d5b1948191bd95cc81b9bdd08195e1a5cdd605a1b604482015290519081900360640190fd5b6001600160a01b03831660009081526009602090815260408083208584529091529020546114c85760405162461bcd60e51b81526004018080602001828103825260218152602001806127f86021913960400191505060405180910390fd5b6001600160a01b0383166000818152600960209081526040808320868452825291829020849055815184815291518593927f84d9943a841552627b79770783a3cfd4da8303efc30bd75b65d863bd909926e392908290030190a3505050565b6001600160a01b03919091166000908152600960209081526040808320938352929052205490565b606060028054806020026020016040519081016040528092919081815260200182805480156115a757602002820191906000526020600020905b81546001600160a01b03168152600190910190602001808311611589575b505050505090505b90565b60038181548110610aa357fe5b6000546001600160a01b031690565b600b54600160a01b900460ff1661161a576040805162461bcd60e51b815260206004820152601d602482015260008051602061285a833981519152604482015290519081900360640190fd5b3360009081526006602052604090205460ff1661167e576040805162461bcd60e51b815260206004820152601d60248201527f4f6e6c792076616c696420666163746f726965732063616e2063616c6c000000604482015290519081900360640190fd5b6001600160a01b03811660009081526005602052604090205460ff16156116e0576040805162461bcd60e51b81526020600482015260116024820152704a5020616c72656164792065786973747360781b604482015290519081900360640190fd5b6001600160a01b038116600081815260056020526040808220805460ff19166001908117909155805480820182559083527fb10e2d527612073b26eecdfd717e6a320cf44b4afac2b0732d9fcbe2b7fa0cf60180546001600160a01b03191684179055513392917fba3e61b8f7dda42d1e4a4f12a78a4471caa1d871985de60244effb61fddaab5e91a350565b600b54600160a01b900460ff166117b9576040805162461bcd60e51b815260206004820152601d602482015260008051602061285a833981519152604482015290519081900360640190fd5b6117c1612505565b6000546001600160a01b03908116911614611811576040805162461bcd60e51b8152602060048201819052602482015260008051602061283a833981519152604482015290519081900360640190fd5b6001600160a01b03811660009081526007602052604090205460ff16611876576040805162461bcd60e51b8152602060048201526015602482015274135bd91d5b1948191bd95cc81b9bdd08195e1a5cdd605a1b604482015290519081900360640190fd5b6118e18160038054806020026020016040519081016040528092919081815260200182805480156109e7576020028201919060005260206000209081546001600160a01b031681526001909101906020018083116109c957505050505061250990919063ffffffff16565b80516118f591600391602090910190612748565b506001600160a01b038116600081815260076020526040808220805460ff19169055517f0a1ee69f55c33d8467c69ca59ce2007a737a88603d75392972520bf67cb513b89190a250565b611947612505565b6000546001600160a01b03908116911614611997576040805162461bcd60e51b8152602060048201819052602482015260008051602061283a833981519152604482015290519081900360640190fd5b600b54600160a01b900460ff16156119e05760405162461bcd60e51b815260040180806020018281038252602181526020018061287a6021913960400191505060405180910390fd5b8051825114611a36576040805162461bcd60e51b815260206004820152601b60248201527f4172726179206c656e6774687320646f206e6f74206d617463682e0000000000604482015290519081900360640190fd5b8351611a49906002906020870190612748565b508251611a5d906003906020860190612748565b508151611a71906004906020850190612748565b5060005b8451811015611b3f5760006001600160a01b0316858281518110611a9557fe5b60200260200101516001600160a01b03161415611af3576040805162461bcd60e51b81526020600482015260176024820152762d32b9379030b2323932b9b99039bab136b4ba3a32b21760491b604482015290519081900360640190fd5b600160066000878481518110611b0557fe5b6020908102919091018101516001600160a01b03168252810191909152604001600020805460ff1916911515919091179055600101611a75565b5060005b8351811015611c0d5760006001600160a01b0316848281518110611b6357fe5b60200260200101516001600160a01b03161415611bc1576040805162461bcd60e51b81526020600482015260176024820152762d32b9379030b2323932b9b99039bab136b4ba3a32b21760491b604482015290519081900360640190fd5b600160076000868481518110611bd357fe5b6020908102919091018101516001600160a01b03168252810191909152604001600020805460ff1916911515919091179055600101611b43565b5060005b8251811015611dd55760006001600160a01b0316838281518110611c3157fe5b60200260200101516001600160a01b03161415611c8f576040805162461bcd60e51b81526020600482015260176024820152762d32b9379030b2323932b9b99039bab136b4ba3a32b21760491b604482015290519081900360640190fd5b60006001600160a01b0316600a6000848481518110611caa57fe5b6020908102919091018101518252810191909152604001600020546001600160a01b031614611d20576040805162461bcd60e51b815260206004820152601a60248201527f5265736f7572636520494420616c726561647920657869737473000000000000604482015290519081900360640190fd5b600160086000858481518110611d3257fe5b60200260200101516001600160a01b03166001600160a01b0316815260200190815260200160002060006101000a81548160ff021916908315150217905550828181518110611d7d57fe5b6020026020010151600a6000848481518110611d9557fe5b602090810291909101810151825281019190915260400160002080546001600160a01b0319166001600160a01b0392909216919091179055600101611c11565b5050600b805460ff60a01b1916600160a01b179055505050565b606060038054806020026020016040519081016040528092919081815260200182805480156115a7576020028201919060005260206000209081546001600160a01b03168152600190910190602001808311611589575050505050905090565b606060048054806020026020016040519081016040528092919081815260200182805480156115a7576020028201919060005260206000209081546001600160a01b03168152600190910190602001808311611589575050505050905090565b600b54600160a01b900460ff16611efb576040805162461bcd60e51b815260206004820152601d602482015260008051602061285a833981519152604482015290519081900360640190fd5b611f03612505565b6000546001600160a01b03908116911614611f53576040805162461bcd60e51b8152602060048201819052602482015260008051602061283a833981519152604482015290519081900360640190fd5b6001600160a01b038116611fa6576040805162461bcd60e51b8152602060048201526015602482015274041646472657373206d757374206e6f74206265203605c1b604482015290519081900360640190fd5b600b80546001600160a01b0383166001600160a01b0319909116811790915560408051918252517f167cccccc6e9b2892a740ec13fc1e51d3de8ea384f25bd87fee7412d588637e29181900360200190a150565b606060018054806020026020016040519081016040528092919081815260200182805480156115a7576020028201919060005260206000209081546001600160a01b03168152600190910190602001808311611589575050505050905090565b600b54600160a01b900460ff166120a6576040805162461bcd60e51b815260206004820152601d602482015260008051602061285a833981519152604482015290519081900360640190fd5b6120ae612505565b6000546001600160a01b039081169116146120fe576040805162461bcd60e51b8152602060048201819052602482015260008051602061283a833981519152604482015290519081900360640190fd5b6001600160a01b03821660009081526008602052604090205460ff161561216c576040805162461bcd60e51b815260206004820152601760248201527f5265736f7572636520616c726561647920657869737473000000000000000000604482015290519081900360640190fd5b6000818152600a60205260409020546001600160a01b0316156121d6576040805162461bcd60e51b815260206004820152601a60248201527f5265736f7572636520494420616c726561647920657869737473000000000000604482015290519081900360640190fd5b6001600160a01b0382166000818152600860209081526040808320805460ff19166001908117909155858452600a835281842080546001600160a01b031990811687179091556004805492830181559094527f8a35acfbc15ff81a39ae7d344fd709f28e8600b4aa8c65c6b64bfe7fe36bd19b0180549093168417909255815184815291517f5674036e091d8b4ee7f8e06cc71d41ee33f3fc331821fc0e017c1a091e8c861e9281900390910190a25050565b600a602052600090815260409020546001600160a01b031681565b6122ac612505565b6000546001600160a01b039081169116146122fc576040805162461bcd60e51b8152602060048201819052602482015260008051602061283a833981519152604482015290519081900360640190fd5b6001600160a01b0381166123415760405162461bcd60e51b81526004018080602001828103825260268152602001806127d26026913960400191505060405180910390fd5b600080546040516001600160a01b03808516939216917f8be0079c531659141344cd1fd0a4f28419497f9722a3daafe3b4186f6b6457e091a3600080546001600160a01b0319166001600160a01b0392909216919091179055565b600b54600160a01b900460ff166123e8576040805162461bcd60e51b815260206004820152601d602482015260008051602061285a833981519152604482015290519081900360640190fd5b6123f0612505565b6000546001600160a01b03908116911614612440576040805162461bcd60e51b8152602060048201819052602482015260008051602061283a833981519152604482015290519081900360640190fd5b6001600160a01b03831660009081526007602052604090205460ff166124a5576040805162461bcd60e51b8152602060048201526015602482015274135bd91d5b1948191bd95cc81b9bdd08195e1a5cdd605a1b604482015290519081900360640190fd5b6001600160a01b0383166000908152600960209081526040808320858452909152902054156114c85760405162461bcd60e51b81526004018080602001828103825260218152602001806128196021913960400191505060405180910390fd5b3390565b6060600080612518858561257e565b9150915080612566576040805162461bcd60e51b815260206004820152601560248201527420b2323932b9b9903737ba1034b71030b93930bc9760591b604482015290519081900360640190fd5b606061257286846125e4565b509350610b5592505050565b81516000908190815b818110156125d157846001600160a01b03168682815181106125a557fe5b60200260200101516001600160a01b031614156125c9579250600191506125dd9050565b600101612587565b50600019600092509250505b9250929050565b8151606090600090808410612640576040805162461bcd60e51b815260206004820152601860248201527f496e646578206d757374206265203c2041206c656e6774680000000000000000604482015290519081900360640190fd5b60606001820367ffffffffffffffff8111801561265c57600080fd5b50604051908082528060200260200182016040528015612686578160200160208202803683370190505b50905060005b858110156126d4578681815181106126a057fe5b60200260200101518282815181106126b457fe5b6001600160a01b039092166020928302919091019091015260010161268c565b50600185015b82811015612725578681815181106126ee57fe5b602002602001015182600183038151811061270557fe5b6001600160a01b03909216602092830291909101909101526001016126da565b508086868151811061273357fe5b60200260200101519350935050509250929050565b82805482825590600052602060002090810192821561279d579160200282015b8281111561279d57825182546001600160a01b0319166001600160a01b03909116178255602090920191600190910190612768565b506127a99291506127ad565b5090565b6115af91905b808211156127a95780546001600160a01b03191681556001016127b356fe4f776e61626c653a206e6577206f776e657220697320746865207a65726f2061646472657373466565207479706520646f6573206e6f74206578697374206f6e206d6f64756c65466565207479706520616c726561647920657869737473206f6e206d6f64756c654f776e61626c653a2063616c6c6572206973206e6f7420746865206f776e6572436f6e7472616374206d75737420626520696e697469616c697a65642e000000436f6e74726f6c6c657220697320616c726561647920696e697469616c697a6564a264697066735822122062f1af83a319c276dfcb4a74c76cabc532fd7b7ef976ebf032ca5393d6d0b12464736f6c634300060a0033","linkReferences":{}},"methodIdentifiers":{"addFactory(address)":"29ce1ec5","addFee(address,uint256,uint256)":"f36b9a9a","addJP(address)":"9a76c4b2","addModule(address)":"1ed86f19","addResource(address,uint256)":"e0b75317","editFee(address,uint256,uint256)":"76a5bcf6","editFeeRecipient(address)":"c5bb387b","factories(uint256)":"672383c4","feeRecipient()":"46904840","fees(address,uint256)":"263a5362","getFactories()":"7e6cbb6a","getJPs()":"c9c98632","getModuleFee(address,uint256)":"792aa04f","getModules()":"b2494df3","getResources()":"c1cc57b0","initialize(address[],address[],address[],uint256[])":"a3c56615","isFactory(address)":"0f04ba67","isInitialized()":"392e53cd","isJP(address)":"5ae59003","isModule(address)":"42f6e389","isResource(address)":"207a9485","isSystemContract(address)":"13bc6d4b","jps(uint256)":"0f9b2503","modules(uint256)":"81b2248a","owner()":"8da5cb5b","removeFactory(address)":"4b37c73f","removeJP(address)":"14bf47bf","removeModule(address)":"a0632461","removeResource(uint256)":"01b98339","renounceOwnership()":"715018a6","resourceId(uint256)":"e765ced6","resources(uint256)":"244d6daa","transferOwnership(address)":"f2fde38b"},"id":19}